{
  "_format": "hh-sol-artifact-1",
  "contractName": "EToken",
  "sourceName": "contracts/EToken.sol",
  "abi": [
    {
      "inputs": [
        {
          "internalType": "contract IPolicyPool",
          "name": "policyPool_",
          "type": "address"
        }
      ],
      "stateMutability": "nonpayable",
      "type": "constructor"
    },
    {
      "anonymous": false,
      "inputs": [
        {
          "indexed": false,
          "internalType": "address",
          "name": "previousAdmin",
          "type": "address"
        },
        {
          "indexed": false,
          "internalType": "address",
          "name": "newAdmin",
          "type": "address"
        }
      ],
      "name": "AdminChanged",
      "type": "event"
    },
    {
      "anonymous": false,
      "inputs": [
        {
          "indexed": true,
          "internalType": "address",
          "name": "owner",
          "type": "address"
        },
        {
          "indexed": true,
          "internalType": "address",
          "name": "spender",
          "type": "address"
        },
        {
          "indexed": false,
          "internalType": "uint256",
          "name": "value",
          "type": "uint256"
        }
      ],
      "name": "Approval",
      "type": "event"
    },
    {
      "anonymous": false,
      "inputs": [
        {
          "indexed": true,
          "internalType": "address",
          "name": "beacon",
          "type": "address"
        }
      ],
      "name": "BeaconUpgraded",
      "type": "event"
    },
    {
      "anonymous": false,
      "inputs": [
        {
          "indexed": true,
          "internalType": "enum IAccessManager.GovernanceActions",
          "name": "action",
          "type": "uint8"
        },
        {
          "indexed": false,
          "internalType": "address",
          "name": "value",
          "type": "address"
        }
      ],
      "name": "ComponentChanged",
      "type": "event"
    },
    {
      "anonymous": false,
      "inputs": [
        {
          "indexed": true,
          "internalType": "enum IAccessManager.GovernanceActions",
          "name": "action",
          "type": "uint8"
        },
        {
          "indexed": false,
          "internalType": "uint256",
          "name": "value",
          "type": "uint256"
        }
      ],
      "name": "GovernanceAction",
      "type": "event"
    },
    {
      "anonymous": false,
      "inputs": [
        {
          "indexed": false,
          "internalType": "uint8",
          "name": "version",
          "type": "uint8"
        }
      ],
      "name": "Initialized",
      "type": "event"
    },
    {
      "anonymous": false,
      "inputs": [
        {
          "indexed": true,
          "internalType": "address",
          "name": "borrower",
          "type": "address"
        }
      ],
      "name": "InternalBorrowerAdded",
      "type": "event"
    },
    {
      "anonymous": false,
      "inputs": [
        {
          "indexed": true,
          "internalType": "address",
          "name": "borrower",
          "type": "address"
        },
        {
          "indexed": false,
          "internalType": "uint256",
          "name": "defaultedDebt",
          "type": "uint256"
        }
      ],
      "name": "InternalBorrowerRemoved",
      "type": "event"
    },
    {
      "anonymous": false,
      "inputs": [
        {
          "indexed": true,
          "internalType": "address",
          "name": "borrower",
          "type": "address"
        },
        {
          "indexed": false,
          "internalType": "uint256",
          "name": "value",
          "type": "uint256"
        },
        {
          "indexed": false,
          "internalType": "uint256",
          "name": "amountAsked",
          "type": "uint256"
        }
      ],
      "name": "InternalLoan",
      "type": "event"
    },
    {
      "anonymous": false,
      "inputs": [
        {
          "indexed": true,
          "internalType": "address",
          "name": "borrower",
          "type": "address"
        },
        {
          "indexed": false,
          "internalType": "uint256",
          "name": "value",
          "type": "uint256"
        }
      ],
      "name": "InternalLoanRepaid",
      "type": "event"
    },
    {
      "anonymous": false,
      "inputs": [
        {
          "indexed": false,
          "internalType": "address",
          "name": "account",
          "type": "address"
        }
      ],
      "name": "Paused",
      "type": "event"
    },
    {
      "anonymous": false,
      "inputs": [
        {
          "indexed": false,
          "internalType": "uint256",
          "name": "interestRate",
          "type": "uint256"
        },
        {
          "indexed": false,
          "internalType": "uint256",
          "name": "value",
          "type": "uint256"
        }
      ],
      "name": "SCRLocked",
      "type": "event"
    },
    {
      "anonymous": false,
      "inputs": [
        {
          "indexed": false,
          "internalType": "uint256",
          "name": "interestRate",
          "type": "uint256"
        },
        {
          "indexed": false,
          "internalType": "uint256",
          "name": "value",
          "type": "uint256"
        }
      ],
      "name": "SCRUnlocked",
      "type": "event"
    },
    {
      "anonymous": false,
      "inputs": [
        {
          "indexed": true,
          "internalType": "address",
          "name": "from",
          "type": "address"
        },
        {
          "indexed": true,
          "internalType": "address",
          "name": "to",
          "type": "address"
        },
        {
          "indexed": false,
          "internalType": "uint256",
          "name": "value",
          "type": "uint256"
        }
      ],
      "name": "Transfer",
      "type": "event"
    },
    {
      "anonymous": false,
      "inputs": [
        {
          "indexed": false,
          "internalType": "address",
          "name": "account",
          "type": "address"
        }
      ],
      "name": "Unpaused",
      "type": "event"
    },
    {
      "anonymous": false,
      "inputs": [
        {
          "indexed": true,
          "internalType": "address",
          "name": "implementation",
          "type": "address"
        }
      ],
      "name": "Upgraded",
      "type": "event"
    },
    {
      "inputs": [],
      "name": "GUARDIAN_ROLE",
      "outputs": [
        {
          "internalType": "bytes32",
          "name": "",
          "type": "bytes32"
        }
      ],
      "stateMutability": "view",
      "type": "function"
    },
    {
      "inputs": [],
      "name": "LEVEL1_ROLE",
      "outputs": [
        {
          "internalType": "bytes32",
          "name": "",
          "type": "bytes32"
        }
      ],
      "stateMutability": "view",
      "type": "function"
    },
    {
      "inputs": [],
      "name": "LEVEL2_ROLE",
      "outputs": [
        {
          "internalType": "bytes32",
          "name": "",
          "type": "bytes32"
        }
      ],
      "stateMutability": "view",
      "type": "function"
    },
    {
      "inputs": [],
      "name": "LEVEL3_ROLE",
      "outputs": [
        {
          "internalType": "bytes32",
          "name": "",
          "type": "bytes32"
        }
      ],
      "stateMutability": "view",
      "type": "function"
    },
    {
      "inputs": [],
      "name": "TWEAK_EXPIRATION",
      "outputs": [
        {
          "internalType": "uint40",
          "name": "",
          "type": "uint40"
        }
      ],
      "stateMutability": "view",
      "type": "function"
    },
    {
      "inputs": [
        {
          "internalType": "address",
          "name": "borrower",
          "type": "address"
        }
      ],
      "name": "addBorrower",
      "outputs": [],
      "stateMutability": "nonpayable",
      "type": "function"
    },
    {
      "inputs": [
        {
          "internalType": "address",
          "name": "owner",
          "type": "address"
        },
        {
          "internalType": "address",
          "name": "spender",
          "type": "address"
        }
      ],
      "name": "allowance",
      "outputs": [
        {
          "internalType": "uint256",
          "name": "",
          "type": "uint256"
        }
      ],
      "stateMutability": "view",
      "type": "function"
    },
    {
      "inputs": [
        {
          "internalType": "address",
          "name": "spender",
          "type": "address"
        },
        {
          "internalType": "uint256",
          "name": "amount",
          "type": "uint256"
        }
      ],
      "name": "approve",
      "outputs": [
        {
          "internalType": "bool",
          "name": "",
          "type": "bool"
        }
      ],
      "stateMutability": "nonpayable",
      "type": "function"
    },
    {
      "inputs": [],
      "name": "assetManager",
      "outputs": [
        {
          "internalType": "contract IAssetManager",
          "name": "",
          "type": "address"
        }
      ],
      "stateMutability": "view",
      "type": "function"
    },
    {
      "inputs": [
        {
          "internalType": "address",
          "name": "account",
          "type": "address"
        }
      ],
      "name": "balanceOf",
      "outputs": [
        {
          "internalType": "uint256",
          "name": "",
          "type": "uint256"
        }
      ],
      "stateMutability": "view",
      "type": "function"
    },
    {
      "inputs": [],
      "name": "checkpoint",
      "outputs": [],
      "stateMutability": "nonpayable",
      "type": "function"
    },
    {
      "inputs": [],
      "name": "currency",
      "outputs": [
        {
          "internalType": "contract IERC20Metadata",
          "name": "",
          "type": "address"
        }
      ],
      "stateMutability": "view",
      "type": "function"
    },
    {
      "inputs": [],
      "name": "decimals",
      "outputs": [
        {
          "internalType": "uint8",
          "name": "",
          "type": "uint8"
        }
      ],
      "stateMutability": "view",
      "type": "function"
    },
    {
      "inputs": [
        {
          "internalType": "address",
          "name": "spender",
          "type": "address"
        },
        {
          "internalType": "uint256",
          "name": "subtractedValue",
          "type": "uint256"
        }
      ],
      "name": "decreaseAllowance",
      "outputs": [
        {
          "internalType": "bool",
          "name": "",
          "type": "bool"
        }
      ],
      "stateMutability": "nonpayable",
      "type": "function"
    },
    {
      "inputs": [
        {
          "internalType": "address",
          "name": "provider",
          "type": "address"
        },
        {
          "internalType": "uint256",
          "name": "amount",
          "type": "uint256"
        }
      ],
      "name": "deposit",
      "outputs": [
        {
          "internalType": "uint256",
          "name": "",
          "type": "uint256"
        }
      ],
      "stateMutability": "nonpayable",
      "type": "function"
    },
    {
      "inputs": [
        {
          "internalType": "bytes",
          "name": "functionCall",
          "type": "bytes"
        }
      ],
      "name": "forwardToAssetManager",
      "outputs": [
        {
          "internalType": "bytes",
          "name": "",
          "type": "bytes"
        }
      ],
      "stateMutability": "nonpayable",
      "type": "function"
    },
    {
      "inputs": [],
      "name": "fundsAvailable",
      "outputs": [
        {
          "internalType": "uint256",
          "name": "",
          "type": "uint256"
        }
      ],
      "stateMutability": "view",
      "type": "function"
    },
    {
      "inputs": [],
      "name": "fundsAvailableToLock",
      "outputs": [
        {
          "internalType": "uint256",
          "name": "",
          "type": "uint256"
        }
      ],
      "stateMutability": "view",
      "type": "function"
    },
    {
      "inputs": [
        {
          "internalType": "bool",
          "name": "updated",
          "type": "bool"
        }
      ],
      "name": "getCurrentScale",
      "outputs": [
        {
          "internalType": "uint256",
          "name": "",
          "type": "uint256"
        }
      ],
      "stateMutability": "view",
      "type": "function"
    },
    {
      "inputs": [
        {
          "internalType": "address",
          "name": "borrower",
          "type": "address"
        }
      ],
      "name": "getLoan",
      "outputs": [
        {
          "internalType": "uint256",
          "name": "",
          "type": "uint256"
        }
      ],
      "stateMutability": "view",
      "type": "function"
    },
    {
      "inputs": [
        {
          "internalType": "address",
          "name": "spender",
          "type": "address"
        },
        {
          "internalType": "uint256",
          "name": "addedValue",
          "type": "uint256"
        }
      ],
      "name": "increaseAllowance",
      "outputs": [
        {
          "internalType": "bool",
          "name": "",
          "type": "bool"
        }
      ],
      "stateMutability": "nonpayable",
      "type": "function"
    },
    {
      "inputs": [
        {
          "internalType": "string",
          "name": "name_",
          "type": "string"
        },
        {
          "internalType": "string",
          "name": "symbol_",
          "type": "string"
        },
        {
          "internalType": "uint256",
          "name": "maxUtilizationRate_",
          "type": "uint256"
        },
        {
          "internalType": "uint256",
          "name": "internalLoanInterestRate_",
          "type": "uint256"
        }
      ],
      "name": "initialize",
      "outputs": [],
      "stateMutability": "nonpayable",
      "type": "function"
    },
    {
      "inputs": [
        {
          "internalType": "uint256",
          "name": "amount",
          "type": "uint256"
        },
        {
          "internalType": "address",
          "name": "receiver",
          "type": "address"
        },
        {
          "internalType": "bool",
          "name": "fromAvailable",
          "type": "bool"
        }
      ],
      "name": "internalLoan",
      "outputs": [
        {
          "internalType": "uint256",
          "name": "",
          "type": "uint256"
        }
      ],
      "stateMutability": "nonpayable",
      "type": "function"
    },
    {
      "inputs": [],
      "name": "internalLoanInterestRate",
      "outputs": [
        {
          "internalType": "uint256",
          "name": "",
          "type": "uint256"
        }
      ],
      "stateMutability": "view",
      "type": "function"
    },
    {
      "inputs": [],
      "name": "lastTweak",
      "outputs": [
        {
          "internalType": "uint40",
          "name": "",
          "type": "uint40"
        },
        {
          "internalType": "uint56",
          "name": "",
          "type": "uint56"
        }
      ],
      "stateMutability": "view",
      "type": "function"
    },
    {
      "inputs": [],
      "name": "liquidityRequirement",
      "outputs": [
        {
          "internalType": "uint256",
          "name": "",
          "type": "uint256"
        }
      ],
      "stateMutability": "view",
      "type": "function"
    },
    {
      "inputs": [
        {
          "internalType": "uint256",
          "name": "scrAmount",
          "type": "uint256"
        },
        {
          "internalType": "uint256",
          "name": "policyInterestRate",
          "type": "uint256"
        }
      ],
      "name": "lockScr",
      "outputs": [],
      "stateMutability": "nonpayable",
      "type": "function"
    },
    {
      "inputs": [],
      "name": "maxUtilizationRate",
      "outputs": [
        {
          "internalType": "uint256",
          "name": "",
          "type": "uint256"
        }
      ],
      "stateMutability": "view",
      "type": "function"
    },
    {
      "inputs": [],
      "name": "minUtilizationRate",
      "outputs": [
        {
          "internalType": "uint256",
          "name": "",
          "type": "uint256"
        }
      ],
      "stateMutability": "view",
      "type": "function"
    },
    {
      "inputs": [],
      "name": "name",
      "outputs": [
        {
          "internalType": "string",
          "name": "",
          "type": "string"
        }
      ],
      "stateMutability": "view",
      "type": "function"
    },
    {
      "inputs": [],
      "name": "pause",
      "outputs": [],
      "stateMutability": "nonpayable",
      "type": "function"
    },
    {
      "inputs": [],
      "name": "paused",
      "outputs": [
        {
          "internalType": "bool",
          "name": "",
          "type": "bool"
        }
      ],
      "stateMutability": "view",
      "type": "function"
    },
    {
      "inputs": [],
      "name": "policyPool",
      "outputs": [
        {
          "internalType": "contract IPolicyPool",
          "name": "",
          "type": "address"
        }
      ],
      "stateMutability": "view",
      "type": "function"
    },
    {
      "inputs": [],
      "name": "proxiableUUID",
      "outputs": [
        {
          "internalType": "bytes32",
          "name": "",
          "type": "bytes32"
        }
      ],
      "stateMutability": "view",
      "type": "function"
    },
    {
      "inputs": [],
      "name": "rebalance",
      "outputs": [],
      "stateMutability": "nonpayable",
      "type": "function"
    },
    {
      "inputs": [],
      "name": "recordEarnings",
      "outputs": [],
      "stateMutability": "nonpayable",
      "type": "function"
    },
    {
      "inputs": [
        {
          "internalType": "address",
          "name": "borrower",
          "type": "address"
        }
      ],
      "name": "removeBorrower",
      "outputs": [],
      "stateMutability": "nonpayable",
      "type": "function"
    },
    {
      "inputs": [
        {
          "internalType": "uint256",
          "name": "amount",
          "type": "uint256"
        },
        {
          "internalType": "address",
          "name": "onBehalfOf",
          "type": "address"
        }
      ],
      "name": "repayLoan",
      "outputs": [],
      "stateMutability": "nonpayable",
      "type": "function"
    },
    {
      "inputs": [],
      "name": "scr",
      "outputs": [
        {
          "internalType": "uint256",
          "name": "",
          "type": "uint256"
        }
      ],
      "stateMutability": "view",
      "type": "function"
    },
    {
      "inputs": [],
      "name": "scrInterestRate",
      "outputs": [
        {
          "internalType": "uint256",
          "name": "",
          "type": "uint256"
        }
      ],
      "stateMutability": "view",
      "type": "function"
    },
    {
      "inputs": [
        {
          "internalType": "contract IAssetManager",
          "name": "newAM",
          "type": "address"
        },
        {
          "internalType": "bool",
          "name": "force",
          "type": "bool"
        }
      ],
      "name": "setAssetManager",
      "outputs": [],
      "stateMutability": "nonpayable",
      "type": "function"
    },
    {
      "inputs": [
        {
          "internalType": "enum IEToken.Parameter",
          "name": "param",
          "type": "uint8"
        },
        {
          "internalType": "uint256",
          "name": "newValue",
          "type": "uint256"
        }
      ],
      "name": "setParam",
      "outputs": [],
      "stateMutability": "nonpayable",
      "type": "function"
    },
    {
      "inputs": [
        {
          "internalType": "contract ILPWhitelist",
          "name": "lpWhitelist_",
          "type": "address"
        }
      ],
      "name": "setWhitelist",
      "outputs": [],
      "stateMutability": "nonpayable",
      "type": "function"
    },
    {
      "inputs": [],
      "name": "symbol",
      "outputs": [
        {
          "internalType": "string",
          "name": "",
          "type": "string"
        }
      ],
      "stateMutability": "view",
      "type": "function"
    },
    {
      "inputs": [],
      "name": "tokenInterestRate",
      "outputs": [
        {
          "internalType": "uint256",
          "name": "",
          "type": "uint256"
        }
      ],
      "stateMutability": "view",
      "type": "function"
    },
    {
      "inputs": [],
      "name": "totalSupply",
      "outputs": [
        {
          "internalType": "uint256",
          "name": "",
          "type": "uint256"
        }
      ],
      "stateMutability": "view",
      "type": "function"
    },
    {
      "inputs": [],
      "name": "totalWithdrawable",
      "outputs": [
        {
          "internalType": "uint256",
          "name": "",
          "type": "uint256"
        }
      ],
      "stateMutability": "view",
      "type": "function"
    },
    {
      "inputs": [
        {
          "internalType": "address",
          "name": "recipient",
          "type": "address"
        },
        {
          "internalType": "uint256",
          "name": "amount",
          "type": "uint256"
        }
      ],
      "name": "transfer",
      "outputs": [
        {
          "internalType": "bool",
          "name": "",
          "type": "bool"
        }
      ],
      "stateMutability": "nonpayable",
      "type": "function"
    },
    {
      "inputs": [
        {
          "internalType": "address",
          "name": "sender",
          "type": "address"
        },
        {
          "internalType": "address",
          "name": "recipient",
          "type": "address"
        },
        {
          "internalType": "uint256",
          "name": "amount",
          "type": "uint256"
        }
      ],
      "name": "transferFrom",
      "outputs": [
        {
          "internalType": "bool",
          "name": "",
          "type": "bool"
        }
      ],
      "stateMutability": "nonpayable",
      "type": "function"
    },
    {
      "inputs": [
        {
          "internalType": "uint256",
          "name": "scrAmount",
          "type": "uint256"
        },
        {
          "internalType": "uint256",
          "name": "policyInterestRate",
          "type": "uint256"
        },
        {
          "internalType": "int256",
          "name": "adjustment",
          "type": "int256"
        }
      ],
      "name": "unlockScr",
      "outputs": [],
      "stateMutability": "nonpayable",
      "type": "function"
    },
    {
      "inputs": [],
      "name": "unpause",
      "outputs": [],
      "stateMutability": "nonpayable",
      "type": "function"
    },
    {
      "inputs": [
        {
          "internalType": "address",
          "name": "newImplementation",
          "type": "address"
        }
      ],
      "name": "upgradeTo",
      "outputs": [],
      "stateMutability": "nonpayable",
      "type": "function"
    },
    {
      "inputs": [
        {
          "internalType": "address",
          "name": "newImplementation",
          "type": "address"
        },
        {
          "internalType": "bytes",
          "name": "data",
          "type": "bytes"
        }
      ],
      "name": "upgradeToAndCall",
      "outputs": [],
      "stateMutability": "payable",
      "type": "function"
    },
    {
      "inputs": [],
      "name": "utilizationRate",
      "outputs": [
        {
          "internalType": "uint256",
          "name": "",
          "type": "uint256"
        }
      ],
      "stateMutability": "view",
      "type": "function"
    },
    {
      "inputs": [],
      "name": "whitelist",
      "outputs": [
        {
          "internalType": "contract ILPWhitelist",
          "name": "",
          "type": "address"
        }
      ],
      "stateMutability": "view",
      "type": "function"
    },
    {
      "inputs": [
        {
          "internalType": "address",
          "name": "provider",
          "type": "address"
        },
        {
          "internalType": "uint256",
          "name": "amount",
          "type": "uint256"
        }
      ],
      "name": "withdraw",
      "outputs": [
        {
          "internalType": "uint256",
          "name": "",
          "type": "uint256"
        }
      ],
      "stateMutability": "nonpayable",
      "type": "function"
    }
  ],
  "bytecode": "0x60e0604052306080523480156200001557600080fd5b5060405162005df238038062005df283398101604081905262000038916200015e565b8080806001600160a01b031660a0816001600160a01b031681525050506002816001600160a01b031663e5a6b10f6040518163ffffffff1660e01b8152600401602060405180830381865afa15801562000096573d6000803e3d6000fd5b505050506040513d601f19601f82011682018060405250810190620000bc91906200015e565b6001600160a01b031663313ce5676040518163ffffffff1660e01b8152600401602060405180830381865afa158015620000fa573d6000803e3d6000fd5b505050506040513d601f19601f8201168201806040525081019062000120919062000185565b6200012c9190620001c0565b6200013990600a620002f0565b60c05250620003019050565b6001600160a01b03811681146200015b57600080fd5b50565b6000602082840312156200017157600080fd5b81516200017e8162000145565b9392505050565b6000602082840312156200019857600080fd5b815160ff811681146200017e57600080fd5b634e487b7160e01b600052601160045260246000fd5b600060ff831680620001e257634e487b7160e01b600052601260045260246000fd5b8060ff84160491505092915050565b600181815b8085111562000232578160001904821115620002165762000216620001aa565b808516156200022457918102915b93841c9390800290620001f6565b509250929050565b6000826200024b57506001620002ea565b816200025a57506000620002ea565b81600181146200027357600281146200027e576200029e565b6001915050620002ea565b60ff841115620002925762000292620001aa565b50506001821b620002ea565b5060208310610133831016604e8410600b8410161715620002c3575081810a620002ea565b620002cf8383620001f1565b8060001904821115620002e657620002e6620001aa565b0290505b92915050565b60006200017e60ff8416836200023a565b60805160a05160c051615a35620003bd600039600061380401526000818161059f01528181610b9201528181610d5f01528181610fa0015281816110950152818161179e01528181611b5001528181611c5a01528181611d51015281816122dc015281816127a401528181612ad001528181612b9a01528181612c38015281816130940152818161317a0152613f3b015260008181610e7401528181610eb4015281816112cb0152818161130b015261154c0152615a356000f3fe60806040526004361061036b5760003560e01c806376c7fc55116101c6578063a9059cbb116100f7578063dd62ed3e11610095578063e5a6b10f1161006f578063e5a6b10f146109eb578063ee01a18314610a00578063f3fef3a314610a15578063f67b2bad14610a3557600080fd5b8063dd62ed3e14610970578063dfcb48bd146109b6578063e3a8e29c146109cb57600080fd5b8063c1cca2b3116100d1578063c1cca2b314610906578063c2c4c5c114610926578063cda4bcc21461093b578063d80359f11461095057600080fd5b8063a9059cbb146108b1578063b1081ccf146108d1578063ba4e8df5146108f157600080fd5b8063918344d31161016457806395d89b411161013e57806395d89b41146108425780639d90724d14610857578063a08f22031461087c578063a457c2d71461089157600080fd5b8063918344d3146107df57806393e59dc1146107ff57806394217ad11461082457600080fd5b80637ed5acfa116101a05780637ed5acfa1461075d578063837c83a31461078a5780638456cb59146107aa578063854cff2f146107bf57600080fd5b806376c7fc551461070857806379d989fb146107285780637d7c2a1c1461074857600080fd5b806347e7ef24116102a057806352d1902d1161023e5780636c321c8a116102185780636c321c8a146106955780636c6f4542146106aa5780636fe0e395146106c857806370a08231146106e857600080fd5b806352d1902d146106345780635b494dd5146106495780635c975abb1461067d57600080fd5b80634eb978a41161027a5780634eb978a4146105d75780634f1ef286146105ec5780634fe0bd1e146105ff57806351dcfd311461061457600080fd5b806347e7ef241461054e5780634a47a3e01461056e5780634d15eb031461059057600080fd5b806324ea54f41161030d5780633659cfe6116102e75780633659cfe6146104bd57806339509351146104df5780633f4ba83a146104ff578063468a8c9f1461051457600080fd5b806324ea54f414610454578063313ce5671461047657806333481fc91461049d57600080fd5b8063159ec2df11610349578063159ec2df146103ea57806318160ddd146103ff5780631e9c46581461041457806323b872dd1461043457600080fd5b80630600a8651461037057806306fdde0314610398578063095ea7b3146103ba575b600080fd5b34801561037c57600080fd5b50610385610a57565b6040519081526020015b60405180910390f35b3480156103a457600080fd5b506103ad610aa6565b60405161038f9190615024565b3480156103c657600080fd5b506103da6103d536600461504c565b610b38565b604051901515815260200161038f565b3480156103f657600080fd5b50610385610b4f565b34801561040b57600080fd5b50610385610b65565b34801561042057600080fd5b506103ad61042f36600461511a565b610b7f565b34801561044057600080fd5b506103da61044f36600461514e565b610ca2565b34801561046057600080fd5b506103856000805160206159e083398151915281565b34801561048257600080fd5b5061048b610d5b565b60405160ff909116815260200161038f565b3480156104a957600080fd5b506103856104b836600461518f565b610e40565b3480156104c957600080fd5b506104dd6104d836600461518f565b610e6a565b005b3480156104eb57600080fd5b506103da6104fa36600461504c565b610f49565b34801561050b57600080fd5b506104dd610f80565b34801561052057600080fd5b5060c9546040805164ffffffffff83168152600160281b90920466ffffffffffffff1660208301520161038f565b34801561055a57600080fd5b5061038561056936600461504c565b611090565b34801561057a57600080fd5b506103856000805160206159c083398151915281565b34801561059c57600080fd5b507f00000000000000000000000000000000000000000000000000000000000000005b6040516001600160a01b03909116815260200161038f565b3480156105e357600080fd5b506104dd611259565b6104dd6105fa3660046151ac565b6112c1565b34801561060b57600080fd5b5061038561138d565b34801561062057600080fd5b5061038561062f366004615209565b61142c565b34801561064057600080fd5b5061038561153f565b34801561065557600080fd5b506103857f5ec196419322369c6bac572d883f4d990ae5ec82f7d93cdf89b85dbb05b63c2781565b34801561068957600080fd5b5060975460ff166103da565b3480156106a157600080fd5b506103856115f2565b3480156106b657600080fd5b5060cf546001600160801b0316610385565b3480156106d457600080fd5b506104dd6106e336600461524b565b61166b565b3480156106f457600080fd5b5061038561070336600461518f565b611745565b34801561071457600080fd5b506104dd61072336600461518f565b61179b565b34801561073457600080fd5b506103856107433660046152be565b61184b565b34801561075457600080fd5b506104dd611874565b34801561076957600080fd5b506107746201518081565b60405164ffffffffff909116815260200161038f565b34801561079657600080fd5b506104dd6107a53660046152db565b6118bb565b3480156107b657600080fd5b506104dd611b3f565b3480156107cb57600080fd5b506104dd6107da36600461518f565b611c3a565b3480156107eb57600080fd5b506104dd6107fa3660046152fd565b611e76565b34801561080b57600080fd5b5060d154600160401b90046001600160a01b03166105bf565b34801561083057600080fd5b5060d2546001600160a01b03166105bf565b34801561084e57600080fd5b506103ad611f70565b34801561086357600080fd5b5060cf54600160801b90046001600160401b0316610385565b34801561088857600080fd5b50610385611f7f565b34801561089d57600080fd5b506103da6108ac36600461504c565b612021565b3480156108bd57600080fd5b506103da6108cc36600461504c565b6120bd565b3480156108dd57600080fd5b506104dd6108ec36600461532d565b6120ca565b3480156108fd57600080fd5b50610385612297565b34801561091257600080fd5b506104dd610921366004615359565b6122aa565b34801561093257600080fd5b506104dd612750565b34801561094757600080fd5b5061038561276a565b34801561095c57600080fd5b506104dd61096b36600461537b565b612784565b34801561097c57600080fd5b5061038561098b3660046153a9565b6001600160a01b03918216600090815260cb6020908152604080832093909416825291909152205490565b3480156109c257600080fd5b50610385612ab2565b3480156109d757600080fd5b506104dd6109e636600461518f565b612acd565b3480156109f757600080fd5b506105bf612b96565b348015610a0c57600080fd5b50610385612c1a565b348015610a2157600080fd5b50610385610a3036600461504c565b612c33565b348015610a4157600080fd5b5061038560008051602061597983398151915281565b600080610a77610a65612297565b60cf546001600160801b031690612cc3565b90506000610a83610b65565b9050818110610a9d57610a9682826153ed565b9250505090565b60009250505090565b606060cc8054610ab590615400565b80601f0160208091040260200160405190810160405280929190818152602001828054610ae190615400565b8015610b2e5780601f10610b0357610100808354040283529160200191610b2e565b820191906000526020600020905b815481529060010190602001808311610b1157829003601f168201915b5050505050905090565b6000610b45338484612cfb565b5060015b92915050565b60cf54600160c01b90046001600160401b031690565b6000610b7a610b72610b4f565b60ce90612e23565b905090565b60606000805160206159c08339815191527f00000000000000000000000000000000000000000000000000000000000000006001600160a01b03166371907f176040518163ffffffff1660e01b8152600401602060405180830381865afa158015610bee573d6000803e3d6000fd5b505050506040513d601f19601f82011682018060405250810190610c129190615434565b6001600160a01b0316635ff57d2030833360016040518563ffffffff1660e01b8152600401610c449493929190615451565b60006040518083038186803b158015610c5c57600080fd5b505afa158015610c70573d6000803e3d6000fd5b50505050610c9983610c8a60d2546001600160a01b031690565b6001600160a01b031690612e50565b91505b50919050565b6000610caf848484612e75565b6001600160a01b038416600090815260cb6020908152604080832033845290915290205482811015610d3a5760405162461bcd60e51b815260206004820152602960248201527f45546f6b656e3a207472616e7366657220616d6f756e74206578636565647320604482015268616c6c6f77616e636560b81b60648201526084015b60405180910390fd5b610d4e8533610d4986856153ed565b612cfb565b60019150505b9392505050565b60007f00000000000000000000000000000000000000000000000000000000000000006001600160a01b031663e5a6b10f6040518163ffffffff1660e01b8152600401602060405180830381865afa158015610dbb573d6000803e3d6000fd5b505050506040513d601f19601f82011682018060405250810190610ddf9190615434565b6001600160a01b031663313ce5676040518163ffffffff1660e01b8152600401602060405180830381865afa158015610e1c573d6000803e3d6000fd5b505050506040513d601f19601f82011682018060405250810190610b7a919061547b565b6001600160a01b038116600090815260d060205260408120610c99610e6361276a565b8290612e23565b6001600160a01b037f0000000000000000000000000000000000000000000000000000000000000000163003610eb25760405162461bcd60e51b8152600401610d319061549e565b7f00000000000000000000000000000000000000000000000000000000000000006001600160a01b0316610efb600080516020615959833981519152546001600160a01b031690565b6001600160a01b031614610f215760405162461bcd60e51b8152600401610d31906154ea565b610f2a81613074565b60408051600080825260208201909252610f4691839190613269565b50565b33600081815260cb602090815260408083206001600160a01b03871684529091528120549091610b45918590610d49908690615536565b6000805160206159e08339815191526000805160206159798339815191527f00000000000000000000000000000000000000000000000000000000000000006001600160a01b03166371907f176040518163ffffffff1660e01b8152600401602060405180830381865afa158015610ffc573d6000803e3d6000fd5b505050506040513d601f19601f820116820180604052508101906110209190615434565b6001600160a01b0316632b1cff1f3084843360016040518663ffffffff1660e01b8152600401611054959493929190615549565b60006040518083038186803b15801561106c57600080fd5b505afa158015611080573d6000803e3d6000fd5b5050505061108c6133d4565b5050565b6000337f00000000000000000000000000000000000000000000000000000000000000006001600160a01b0316146110da5760405162461bcd60e51b8152600401610d319061557c565b60d154600160401b90046001600160a01b03161580611177575060d1546040516337ee20dd60e01b81523060048201526001600160a01b03858116602483015260448201859052600160401b909204909116906337ee20dd90606401602060405180830381865afa158015611153573d6000803e3d6000fd5b505050506040513d601f19601f8201168201806040525081019061117791906155bd565b6111ce5760405162461bcd60e51b815260206004820152602260248201527f4c69717569646974792050726f7669646572206e6f742077686974656c697374604482015261195960f21b6064820152608401610d31565b6111d88383613426565b6111e061350f565b6111e8612c1a565b6111f06115f2565b10156112505760405162461bcd60e51b815260206004820152602960248201527f4465706f7369742072656a6563746564202d205574696c697a6174696f6e205260448201526830ba32901e1036b4b760b91b6064820152608401610d31565b610d5483611745565b6112616135e9565b6040805160048152602481019091526020810180516001600160e01b03166313ae5e2960e21b1790526000906112a390610c8a60d2546001600160a01b031690565b9050610f46818060200190518101906112bc91906155da565b61362f565b6001600160a01b037f00000000000000000000000000000000000000000000000000000000000000001630036113095760405162461bcd60e51b8152600401610d319061549e565b7f00000000000000000000000000000000000000000000000000000000000000006001600160a01b0316611352600080516020615959833981519152546001600160a01b031690565b6001600160a01b0316146113785760405162461bcd60e51b8152600401610d31906154ea565b61138182613074565b61108c82826001613269565b600080306001600160a01b03166318160ddd6040518163ffffffff1660e01b8152600401602060405180830381865afa1580156113ce573d6000803e3d6000fd5b505050506040513d601f19601f820116820180604052508101906113f291906155da565b60cf549091506001600160801b03168111156114245760cf5461141e906001600160801b0316826153ed565b91505090565b600091505090565b33600090815260d060205260408120546001600160701b031681036114635760405162461bcd60e51b8152600401610d31906155f3565b61146b6135e9565b836114a061148d828561148557611480610b65565b613638565b61148061138d565b611480611498610b4f565b60ce9061364e565b9450846000036114b1579050610d54565b33600090815260d0602052604090206114d4866114cc61276a565b8391906136be565b506114e66114e18761562a565b61373e565b6114f0858761375b565b604080518781526020810184905233917f98697a4799dbd9db66c7168304c43cba77a27a50d2785625e09072e0d91fdd53910160405180910390a261153586836153ed565b9695505050505050565b6000306001600160a01b037f000000000000000000000000000000000000000000000000000000000000000016146115df5760405162461bcd60e51b815260206004820152603860248201527f555550535570677261646561626c653a206d757374206e6f742062652063616c60448201527f6c6564207468726f7567682064656c656761746563616c6c00000000000000006064820152608401610d31565b5060008051602061595983398151915290565b6000610b7a306001600160a01b03166318160ddd6040518163ffffffff1660e01b8152600401602060405180830381865afa158015611635573d6000803e3d6000fd5b505050506040513d601f19601f8201168201806040525081019061165991906155da565b60cf546001600160801b031690613854565b600054610100900460ff161580801561168b5750600054600160ff909116105b806116a55750303b1580156116a5575060005460ff166001145b6116c15760405162461bcd60e51b8152600401610d3190615646565b6000805460ff1916600117905580156116e4576000805461ff0019166101001790555b6116ec61388b565b6116f88585858561395c565b801561173e576000805461ff0019169055604051600181527f7f26b83ff96e1f2b6a682f133852f6798a09c465da95921460cefb38474024989060200160405180910390a15b5050505050565b6001600160a01b038116600090815260ca602052604081205480820361176e5750600092915050565b610c9961179661177d83613ae5565b611790611788610b4f565b60ce90613afb565b90613ba4565b613be7565b337f00000000000000000000000000000000000000000000000000000000000000006001600160a01b0316146117e35760405162461bcd60e51b8152600401610d319061557c565b60006117ee82610e40565b6001600160a01b038316600081815260d060205260408082209190915551919250907fe2ebfbed0df9004eae018a4ae91b24baa0cd1d83f495fab6dde3a1493f9dc6c69061183f9084815260200190565b60405180910390a25050565b6000811561185e57610b49611788610b4f565b505060ce546001600160701b031690565b919050565b61187c6135e9565b6040805160048152602481019091526020810180516001600160e01b0316631f5f0a8760e21b179052610f4690610c8a60d2546001600160a01b031690565b33600090815260d060205260408120546001600160701b031690036118f25760405162461bcd60e51b8152600401610d31906155f3565b6118fa6135e9565b306001600160a01b031663a08f22036040518163ffffffff1660e01b8152600401602060405180830381865afa158015611938573d6000803e3d6000fd5b505050506040513d601f19601f8201168201806040525081019061195c91906155da565b8211156119c05760405162461bcd60e51b815260206004820152602c60248201527f4e6f7420656e6f756768742066756e647320617661696c61626c6520746f206360448201526b37bb32b9103a34329029a1a960a11b6064820152608401610d31565b6119d36119cb610b4f565b60ce90613c06565b60cf546001600160801b0316600003611a49576119ef82613ca3565b60cf80546001600160801b0319166001600160801b0392909216919091179055611a1881613d10565b60cf80546001600160401b0392909216600160801b0267ffffffffffffffff60801b19909216919091179055611afe565b60cf546001600160801b03166000611a618483615536565b9050611aa6611aa182611a748688612cc3565b60cf54611a9190600160801b90046001600160401b031687612cc3565b611a9b9190615536565b90613854565b613d10565b60cf80546001600160401b0392909216600160801b0267ffffffffffffffff60801b19909216919091179055611adb81613ca3565b60cf80546001600160801b0319166001600160801b039290921691909117905550505b60408051828152602081018490527f333478c2835efe2f226b0d334f71bdf18c977621845f20d21fff75321fc8ab27910160405180910390a161108c61350f565b6000805160206159e08339815191527f00000000000000000000000000000000000000000000000000000000000000006001600160a01b03166371907f176040518163ffffffff1660e01b8152600401602060405180830381865afa158015611bac573d6000803e3d6000fd5b505050506040513d601f19601f82011682018060405250810190611bd09190615434565b6001600160a01b0316635ff57d2030833360016040518563ffffffff1660e01b8152600401611c029493929190615451565b60006040518083038186803b158015611c1a57600080fd5b505afa158015611c2e573d6000803e3d6000fd5b50505050610f46613d78565b6000805160206159e08339815191526000805160206159798339815191527f00000000000000000000000000000000000000000000000000000000000000006001600160a01b03166371907f176040518163ffffffff1660e01b8152600401602060405180830381865afa158015611cb6573d6000803e3d6000fd5b505050506040513d601f19601f82011682018060405250810190611cda9190615434565b6001600160a01b0316632b1cff1f3084843360016040518663ffffffff1660e01b8152600401611d0e959493929190615549565b60006040518083038186803b158015611d2657600080fd5b505afa158015611d3a573d6000803e3d6000fd5b505050506001600160a01b0383161580611de657507f00000000000000000000000000000000000000000000000000000000000000006001600160a01b0316836001600160a01b0316634d15eb036040518163ffffffff1660e01b8152600401602060405180830381865afa158015611db7573d6000803e3d6000fd5b505050506040513d601f19601f82011682018060405250810190611ddb9190615434565b6001600160a01b0316145b611e425760405162461bcd60e51b815260206004820152602760248201527f436f6d706f6e656e74206e6f74206c696e6b656420746f207468697320506f6c6044820152661a58de541bdbdb60ca1b6064820152608401610d31565b60d18054600160401b600160e01b031916600160401b6001600160a01b03861602179055611e71601784613db5565b505050565b611e95333084611e84612b96565b6001600160a01b0316929190613e08565b6001600160a01b038116600090815260d060205260408120805490916001600160701b039091169003611f0a5760405162461bcd60e51b815260206004820152601960248201527f4e6f742061207265676973746572656420626f72726f776572000000000000006044820152606401610d31565b611f1e83611f1661276a565b839190613e79565b50611f288361373e565b816001600160a01b03167fa1aeb41f04a9a2aa1450e8edd0fa1a0a7971ff65c7bbb7b2ca0379b9327edbaf84604051611f6391815260200190565b60405180910390a2505050565b606060cd8054610ab590615400565b600080306001600160a01b03166318160ddd6040518163ffffffff1660e01b8152600401602060405180830381865afa158015611fc0573d6000803e3d6000fd5b505050506040513d601f19601f82011682018060405250810190611fe491906155da565b60cf549091506001600160801b03168111156114245761141e612005612ab2565b60cf5461201b906001600160801b0316846153ed565b90612cc3565b33600090815260cb602090815260408083206001600160a01b0386168452909152812054828110156120a45760405162461bcd60e51b815260206004820152602660248201527f45546f6b656e3a2064656372656173656420616c6c6f77616e63652062656c6f60448201526577207a65726f60d01b6064820152608401610d31565b6120b33385610d4986856153ed565b5060019392505050565b6000610b45338484612e75565b33600090815260d060205260408120546001600160701b031690036121015760405162461bcd60e51b8152600401610d31906155f3565b60cf546001600160801b03168311156121785760405162461bcd60e51b815260206004820152603360248201527f43757272656e7420534352206c657373207468616e2074686520616d6f756e7460448201527220796f752077616e7420746f20756e6c6f636b60681b6064820152608401610d31565b6121836119cb610b4f565b60cf546001600160801b03168390036121ab5760cf80546001600160c01b0319169055612255565b60cf546001600160801b031660006121c385836153ed565b90506121fd611aa1826121d68789612cc3565b60cf546121f390600160801b90046001600160401b031687612cc3565b611a9b91906153ed565b60cf80546001600160401b0392909216600160801b0267ffffffffffffffff60801b1990921691909117905561223281613ca3565b60cf80546001600160801b0319166001600160801b039290921691909117905550505b60408051838152602081018590527f7b9d63ccbb37347ce0fe73e3663c640d22364d8c733839777f1729e59af1967f910160405180910390a1611e718161373e565b60d154600090610b7a9061ffff16613f21565b6000805160206159c08339815191527f5ec196419322369c6bac572d883f4d990ae5ec82f7d93cdf89b85dbb05b63c277f00000000000000000000000000000000000000000000000000000000000000006001600160a01b03166371907f176040518163ffffffff1660e01b8152600401602060405180830381865afa158015612338573d6000803e3d6000fd5b505050506040513d601f19601f8201168201806040525081019061235c9190615434565b6001600160a01b0316632b1cff1f3084843360016040518663ffffffff1660e01b8152600401612390959493929190615549565b60006040518083038186803b1580156123a857600080fd5b505afa1580156123bc573d6000803e3d6000fd5b5050505060006123d96000805160206159c0833981519152613f37565b15905060008560038111156123f0576123f0615694565b036124ad578015806124175750612417612408612297565b8567016345785d8a000061402e565b6124895760405162461bcd60e51b815260206004820152603a60248201527f547765616b2065786365656465643a206c69717569646974795265717569726560448201527f6d656e7420747765616b73206f6e6c7920757020746f203130250000000000006064820152608401610d31565b612492846140b5565b60d1805461ffff191661ffff92909216919091179055612718565b60018560038111156124c1576124c1615694565b03612582578015806124e857506124e86124d9612c1a565b85670429d069189e000061402e565b6125555760405162461bcd60e51b815260206004820152603860248201527f547765616b2065786365656465643a206d696e5574696c697a6174696f6e5261604482015277746520747765616b73206f6e6c7920757020746f2033302560401b6064820152608401610d31565b61255e846140b5565b60d1805461ffff92909216620100000263ffff000019909216919091179055612718565b600285600381111561259657612596615694565b0361264c578015806125ae57506125ae6124d9612ab2565b61261b5760405162461bcd60e51b815260206004820152603860248201527f547765616b2065786365656465643a206d61785574696c697a6174696f6e5261604482015277746520747765616b73206f6e6c7920757020746f2033302560401b6064820152608401610d31565b612624846140b5565b60d1805461ffff929092166401000000000265ffff0000000019909216919091179055612718565b600385600381111561266057612660615694565b036127185780158061267857506126786124d961276a565b6126ea5760405162461bcd60e51b815260206004820152603e60248201527f547765616b2065786365656465643a20696e7465726e616c4c6f616e496e746560448201527f726573745261746520747765616b73206f6e6c7920757020746f2033302500006064820152608401610d31565b6126f3846140b5565b60d1805461ffff92909216600160301b0267ffff000000000000199092169190911790555b61173e85600381111561272d5761272d615694565b612738906018615536565b602d81111561274957612749615694565b85836140cf565b6127586135e9565b612760611259565b612768611874565b565b60d154600090610b7a90600160301b900461ffff16613f21565b6000805160206159e08339815191526000805160206159798339815191527f00000000000000000000000000000000000000000000000000000000000000006001600160a01b03166371907f176040518163ffffffff1660e01b8152600401602060405180830381865afa158015612800573d6000803e3d6000fd5b505050506040513d601f19601f820116820180604052508101906128249190615434565b6001600160a01b0316632b1cff1f3084843360016040518663ffffffff1660e01b8152600401612858959493929190615549565b60006040518083038186803b15801561287057600080fd5b505afa158015612884573d6000803e3d6000fd5b505050506001600160a01b03841615806128a757506001600160a01b0384163b15155b6128ff5760405162461bcd60e51b815260206004820152602360248201527f5468652061737365744d616e61676572206973206e6f74206120636f6e74726160448201526263742160e81b6064820152608401610d31565b600061291360d2546001600160a01b031690565b905060026001600160a01b03821615612a3b5784156129e05760408051600481526024810182526020810180516001600160e01b031663cec16f3f60e01b179052905160009182916001600160a01b0386169161296f916156aa565b600060405180830381855af49150503d80600081146129aa576040519150601f19603f3d011682016040523d82523d6000602084013e6129af565b606091505b5091509150816129c257600392506129d9565b6129d9818060200190518101906112bc91906155da565b5050612a3b565b6040805160048152602481019091526020810180516001600160e01b031663cec16f3f60e01b179052600090612a20906001600160a01b03851690612e50565b9050612a39818060200190518101906112bc91906155da565b505b60d280546001600160a01b0319166001600160a01b03881690811790915591508115612aa0576040805160048152602481019091526020810180516001600160e01b031663948cb71960e01b179052612a9e906001600160a01b03841690612e50565b505b612aaa8187613db5565b505050505050565b60d154600090610b7a90640100000000900461ffff16613f21565b337f00000000000000000000000000000000000000000000000000000000000000006001600160a01b031614612b155760405162461bcd60e51b8152600401610d319061557c565b6001600160a01b038116600090815260d060205260408120805490916001600160701b03909116900361108c57676765c793fa10079d601b1b600160e01b4263ffffffff16021781556040516001600160a01b038316907f66c0f28249c4fc4db79872a4405be78a93f19c65ac9ef2f173867a149065bcf290600090a25050565b60007f00000000000000000000000000000000000000000000000000000000000000006001600160a01b031663e5a6b10f6040518163ffffffff1660e01b8152600401602060405180830381865afa158015612bf6573d6000803e3d6000fd5b505050506040513d601f19601f82011682018060405250810190610b7a9190615434565b60d154600090610b7a9062010000900461ffff16613f21565b6000337f00000000000000000000000000000000000000000000000000000000000000006001600160a01b031614612c7d5760405162461bcd60e51b8152600401610d319061557c565b612c9582611480612c8d86611745565b611480610a57565b915081600003612ca757506000610b49565b612cb18383614128565b612cb961350f565b610c9c838361375b565b600081156706f05b59d3b200001983900484111517612ce157600080fd5b50670de0b6b3a764000091026706f05b59d3b20000010490565b6001600160a01b038316612d5f5760405162461bcd60e51b815260206004820152602560248201527f45546f6b656e3a20617070726f76652066726f6d20746865207a65726f206164604482015264647265737360d81b6064820152608401610d31565b6001600160a01b038216612dc15760405162461bcd60e51b815260206004820152602360248201527f45546f6b656e3a20617070726f766520746f20746865207a65726f206164647260448201526265737360e81b6064820152608401610d31565b6001600160a01b03838116600081815260cb602090815260408083209487168084529482529182902085905590518481527f8c5be1e5ebec7d5bd14f71427d1e84f3dd0314c0f7b2291e5b200ac8c7c3b92591015b60405180910390a3505050565b6000610d54611796612e358585613afb565b855461179090600160701b90046001600160701b0316613ae5565b6060610d5483836040518060600160405280602781526020016159996027913961428a565b6001600160a01b038316612eda5760405162461bcd60e51b815260206004820152602660248201527f45546f6b656e3a207472616e736665722066726f6d20746865207a65726f206160448201526564647265737360d01b6064820152608401610d31565b6001600160a01b038216612f3c5760405162461bcd60e51b8152602060048201526024808201527f45546f6b656e3a207472616e7366657220746f20746865207a65726f206164646044820152637265737360e01b6064820152608401610d31565b612f4783838361431e565b6000612f5d612f54610b4f565b60ce9084614461565b6001600160a01b038516600090815260ca602052604090205490915081811015612fd95760405162461bcd60e51b815260206004820152602760248201527f45546f6b656e3a207472616e7366657220616d6f756e7420657863656564732060448201526662616c616e636560c81b6064820152608401610d31565b612fe382826153ed565b6001600160a01b03808716600090815260ca60205260408082209390935590861681529081208054849290613019908490615536565b92505081905550836001600160a01b0316856001600160a01b03167fddf252ad1be2c89b69c2b068fc378daa952ba7f163c4a11628f55a4df523b3ef8560405161306591815260200190565b60405180910390a35050505050565b6000805160206159e08339815191526000805160206159798339815191527f00000000000000000000000000000000000000000000000000000000000000006001600160a01b03166371907f176040518163ffffffff1660e01b8152600401602060405180830381865afa1580156130f0573d6000803e3d6000fd5b505050506040513d601f19601f820116820180604052508101906131149190615434565b6001600160a01b0316632b1cff1f3084843360016040518663ffffffff1660e01b8152600401613148959493929190615549565b60006040518083038186803b15801561316057600080fd5b505afa158015613174573d6000803e3d6000fd5b505050507f00000000000000000000000000000000000000000000000000000000000000006001600160a01b0316836001600160a01b0316634d15eb036040518163ffffffff1660e01b8152600401602060405180830381865afa1580156131e0573d6000803e3d6000fd5b505050506040513d601f19601f820116820180604052508101906132049190615434565b6001600160a01b031614611e715760405162461bcd60e51b815260206004820152602660248201527f43616e27742075706772616465206368616e67696e672074686520506f6c696360448201526579506f6f6c2160d01b6064820152608401610d31565b7f4910fdfa16fed3260ed0e7147f7cc6da11a60208b5b9406d12a635614ffd91435460ff161561329c57611e7183614482565b826001600160a01b03166352d1902d6040518163ffffffff1660e01b8152600401602060405180830381865afa9250505080156132f6575060408051601f3d908101601f191682019092526132f3918101906155da565b60015b6133595760405162461bcd60e51b815260206004820152602e60248201527f45524331393637557067726164653a206e657720696d706c656d656e7461746960448201526d6f6e206973206e6f74205555505360901b6064820152608401610d31565b60008051602061595983398151915281146133c85760405162461bcd60e51b815260206004820152602960248201527f45524331393637557067726164653a20756e737570706f727465642070726f786044820152681a58589b195555525160ba1b6064820152608401610d31565b50611e7183838361451e565b6133dc614543565b6097805460ff191690557f5db9ee0a495bf2e6ff9c91a7834c1ba4fdd244a5e8aa4e537bd38aeae4b073aa335b6040516001600160a01b03909116815260200160405180910390a1565b6001600160a01b03821661347c5760405162461bcd60e51b815260206004820181905260248201527f45546f6b656e3a206d696e7420746f20746865207a65726f20616464726573736044820152606401610d31565b6134886000838361431e565b600061349f82613496610b4f565b60ce91906136be565b6001600160a01b038416600090815260ca60205260408120805492935083929091906134cc908490615536565b90915550506040518281526001600160a01b038416906000907fddf252ad1be2c89b69c2b068fc378daa952ba7f163c4a11628f55a4df523b3ef90602001612e16565b6000306001600160a01b03166318160ddd6040518163ffffffff1660e01b8152600401602060405180830381865afa15801561354f573d6000803e3d6000fd5b505050506040513d601f19601f8201168201806040525081019061357391906155da565b90508060000361358f5760cf80546001600160c01b0316905550565b60cf546135bf90611aa1908390611a9b906001600160401b03600160801b820416906001600160801b0316612cc3565b60cf80546001600160401b0392909216600160c01b026001600160c01b0390921691909117905550565b60975460ff16156127685760405162461bcd60e51b815260206004820152601060248201526f14185d5cd8589b194e881c185d5cd95960821b6044820152606401610d31565b610f468161373e565b60008183106136475781610d54565b5090919050565b60008061365b8484612e23565b845490915060009061368e906117969067016345785d8a00009061179090600160701b90046001600160701b0316613ae5565b9050808211156136ab576136a281836153ed565b92505050610b49565b600092505050610b49565b505092915050565b60006136ca8483613c06565b60006136d6858561458c565b90506136e1816145ab565b6001600160601b031685600001600e8282829054906101000a90046001600160701b031661370f91906156c6565b92506101000a8154816001600160701b0302191690836001600160701b03160217905550809150509392505050565b6137538161374a610b4f565b60ce9190614613565b610f4661350f565b80600003613767575050565b6000613771612b96565b6040516370a0823160e01b81523060048201526001600160a01b0391909116906370a0823190602401602060405180830381865afa1580156137b7573d6000803e3d6000fd5b505050506040513d601f19601f820116820180604052508101906137db91906155da565b905081811015613837576137ee826146ec565b6137f89082615536565b905080821115613837577f000000000000000000000000000000000000000000000000000000000000000061382d82846153ed565b1015613837578091505b611e718383613844612b96565b6001600160a01b031691906147c1565b60008115670de0b6b3a76400006002840419048411171561387457600080fd5b50670de0b6b3a76400009190910260028204010490565b600054610100900460ff16158080156138ab5750600054600160ff909116105b806138c55750303b1580156138c5575060005460ff166001145b6138e15760405162461bcd60e51b8152600401610d3190615646565b6000805460ff191660011790558015613904576000805461ff0019166101001790555b61390c6147f1565b613914614818565b8015610f46576000805461ff0019169055604051600181527f7f26b83ff96e1f2b6a682f133852f6798a09c465da95921460cefb38474024989060200160405180910390a150565b600054610100900460ff161580801561397c5750600054600160ff909116105b806139965750303b158015613996575060005460ff166001145b6139b25760405162461bcd60e51b8152600401610d3190615646565b6000805460ff1916600117905580156139d5576000805461ff0019166101001790555b60cc6139e18682615733565b5060cd6139ee8582615733565b50676765c793fa10079d601b1b600160e01b4263ffffffff16021760ce556040805160a081018252612710815260006020820152908101613a2e856140b5565b61ffff168152602001613a40846140b5565b61ffff90811682526000602092830152825160d1805493850151604086015160608701516080909701516001600160a01b0316600160401b02600160401b600160e01b0319978616600160301b0267ffff00000000000019928716640100000000029290921667ffffffff0000000019938716620100000263ffffffff19909816959096169490941795909517169290921792909217929092161790556116f8614847565b633b9aca00818102908104821461186f57600080fd5b8154600090429063ffffffff808316600160e01b9092041610613b2a57505081546001600160701b0316610b49565b8354600090613b4690600160e01b900463ffffffff16836157f2565b63ffffffff169050613b9b676765c793fa10079d601b1b6301e1338083613b6c88613ae5565b613b76919061580f565b613b80919061582e565b613b8a9190615536565b86546001600160701b031690613ba4565b95945050505050565b600081156b019d971e4fe8401e740000001983900484111517613bc657600080fd5b50676765c793fa10079d601b1b91026b019d971e4fe8401e74000000010490565b633b9aca00808204908206631dcd65008110610c9c5750600101919050565b815463ffffffff428116600160e01b9092041610613c22575050565b8154600160701b90046001600160701b0316600003613c59575080546001600160e01b0316600160e01b4263ffffffff1602179055565b613c6b613c668383613afb565b614a5a565b82546001600160701b03919091166dffffffffffffffffffffffffffff60701b90911617600160e01b4263ffffffff16021790915550565b60006001600160801b03821115613d0c5760405162461bcd60e51b815260206004820152602760248201527f53616665436173743a2076616c756520646f65736e27742066697420696e20316044820152663238206269747360c81b6064820152608401610d31565b5090565b60006001600160401b03821115613d0c5760405162461bcd60e51b815260206004820152602660248201527f53616665436173743a2076616c756520646f65736e27742066697420696e203660448201526534206269747360d01b6064820152608401610d31565b613d806135e9565b6097805460ff191660011790557f62e78cea01bee320cd4e420270b5ea74000d11b0c9f74754ebdbfc544b05a2586134093390565b613dbd614847565b81602d811115613dcf57613dcf615694565b6040516001600160a01b03831681527fb6bdbd44472629fc24a00b6f4ee3348b72c9eff333d0e9c16d78c49da1323c8f9060200161183f565b6040516001600160a01b0380851660248301528316604482015260648101829052613e739085906323b872dd60e01b906084015b60408051601f198184030181529190526020810180516001600160e01b03166001600160e01b031990931692909217909152614ac3565b50505050565b6000613e858483613c06565b6000613e91858561458c565b9050613e9c816145ab565b6001600160601b031685600001600e8282829054906101000a90046001600160701b0316613eca9190615850565b82546101009290920a6001600160701b038181021990931691831602179091558654600160701b9004166000039050613f195784546001600160701b031916676765c793fa10079d601b1b1785555b949350505050565b6000610b4961ffff8316655af3107a400061580f565b60007f00000000000000000000000000000000000000000000000000000000000000006001600160a01b03166371907f176040518163ffffffff1660e01b8152600401602060405180830381865afa158015613f97573d6000803e3d6000fd5b505050506040513d601f19601f82011682018060405250810190613fbb9190615434565b6001600160a01b031663b3efcbd230843360016040518563ffffffff1660e01b8152600401613fed9493929190615451565b602060405180830381865afa15801561400a573d6000803e3d6000fd5b505050506040513d601f19601f82011682018060405250810190610b4991906155bd565b600082840361403f57506001610d54565b836000036140595750670de0b6b3a7640000811015610d54565b8260000361406957506000610d54565b828410156140985781670de0b6b3a76400006140858587613854565b61408f91906153ed565b11159050610d54565b816140a38486613854565b61408f90670de0b6b3a76400006153ed565b6000610b496140ca655af3107a40008461582e565b614b95565b6140d7614847565b80156140e6576140e683614bf8565b82602d8111156140f8576140f8615694565b6040518381527f7bc647fe5043209e2019aa3503b79c1b0dd83eb61c56013d373a7584ff6bfb1390602001611f63565b6001600160a01b0382166141895760405162461bcd60e51b815260206004820152602260248201527f45546f6b656e3a206275726e2066726f6d20746865207a65726f206164647265604482015261737360f01b6064820152608401610d31565b6141958260008361431e565b60006141ac826141a3610b4f565b60ce9190613e79565b6001600160a01b038416600090815260ca6020526040902054909150818110156142245760405162461bcd60e51b815260206004820152602360248201527f45546f6b656e3a206275726e20616d6f756e7420657863656564732062616c616044820152626e636560e81b6064820152608401610d31565b61422e82826153ed565b6001600160a01b038516600081815260ca60205260408082209390935591517fddf252ad1be2c89b69c2b068fc378daa952ba7f163c4a11628f55a4df523b3ef9061427c9087815260200190565b60405180910390a350505050565b60606001600160a01b0384163b6142b35760405162461bcd60e51b8152600401610d3190615870565b600080856001600160a01b0316856040516142ce91906156aa565b600060405180830381855af49150503d8060008114614309576040519150601f19603f3d011682016040523d82523d6000602084013e61430e565b606091505b5091509150611535828286614d64565b6143266135e9565b6001600160a01b038316158061434357506001600160a01b038216155b8061435e575060d154600160401b90046001600160a01b0316155b806143ef575060d154604051635fcdca3760e01b81523060048201526001600160a01b038581166024830152848116604483015260648201849052600160401b90920490911690635fcdca3790608401602060405180830381865afa1580156143cb573d6000803e3d6000fd5b505050506040513d601f19601f820116820180604052508101906143ef91906155bd565b611e715760405162461bcd60e51b815260206004820152603960248201527f5472616e73666572206e6f7420616c6c6f776564202d204c697175696469747960448201527f2050726f7669646572206e6f742077686974656c6973746564000000000000006064820152608401610d31565b6000613f196117966144738686613afb565b61447c85613ae5565b90614d9d565b6001600160a01b0381163b6144ef5760405162461bcd60e51b815260206004820152602d60248201527f455243313936373a206e657720696d706c656d656e746174696f6e206973206e60448201526c1bdd08184818dbdb9d1c9858dd609a1b6064820152608401610d31565b60008051602061595983398151915280546001600160a01b0319166001600160a01b0392909216919091179055565b61452783614dda565b6000825111806145345750805b15611e7157613e738383614e1a565b60975460ff166127685760405162461bcd60e51b815260206004820152601460248201527314185d5cd8589b194e881b9bdd081c185d5cd95960621b6044820152606401610d31565b8154600090610d5490611796906001600160701b031661447c85613ae5565b60006001600160601b03821115613d0c5760405162461bcd60e51b815260206004820152602660248201527f53616665436173743a2076616c756520646f65736e27742066697420696e203960448201526536206269747360d01b6064820152608401610d31565b61461d8382613c06565b60008261462a8584612e23565b61463491906158b6565b845490915061466390613c669061465a90600160701b90046001600160701b0316613ae5565b61447c84613ae5565b84546001600160701b0319166001600160701b0391909116908117855567016345785d8a00001115613e735760405162461bcd60e51b815260206004820152602c60248201527f5363616c6520746f6f20736d616c6c2c2063616e206c65616420746f20726f7560448201526b6e64696e67206572726f727360a01b6064820152608401610d31565b60008061470160d2546001600160a01b031690565b90506001600160a01b038116156147b85760006147a2631014a0c260e01b8560405160240161473291815260200190565b60408051601f19818403018152918152602080830180516001600160e01b03166001600160e01b03199095169490941790935280518082019091526016815275115c9c9bdc881c99599a5b1b1a5b99c81dd85b1b195d60521b928101929092526001600160a01b0385169161428a565b905080806020019051810190613f1991906155da565b50600092915050565b6040516001600160a01b038316602482015260448101829052611e7190849063a9059cbb60e01b90606401613e3c565b600054610100900460ff166127685760405162461bcd60e51b8152600401610d31906158d6565b600054610100900460ff1661483f5760405162461bcd60e51b8152600401610d31906158d6565b612768614ec6565b60d154611f4061ffff9091161080159061486b575060d1546132c861ffff90911611155b6148d35760405162461bcd60e51b815260206004820152603360248201527f56616c69646174696f6e3a206c6971756964697479526571756972656d656e74604482015272206d757374206265205b302e382c20312e335d60681b6064820152608401610d31565b60d15461138864010000000090910461ffff1610801590614905575060d15461271064010000000090910461ffff1611155b6149695760405162461bcd60e51b815260206004820152602f60248201527f56616c69646174696f6e3a206d61785574696c697a6174696f6e52617465206d60448201526e757374206265205b302e352c20315d60881b6064820152608401610d31565b60d1546127106201000090910461ffff1611156149de5760405162461bcd60e51b815260206004820152602d60248201527f56616c69646174696f6e3a206d696e5574696c697a6174696f6e52617465206d60448201526c757374206265205b302c20315d60981b6064820152608401610d31565b60d154611388600160301b90910461ffff1611156127685760405162461bcd60e51b815260206004820152603360248201527f56616c69646174696f6e3a20696e7465726e616c4c6f616e496e74657265737460448201527252617465206d757374206265203c3d2035302560681b6064820152608401610d31565b60006001600160701b03821115613d0c5760405162461bcd60e51b815260206004820152602760248201527f53616665436173743a2076616c756520646f65736e27742066697420696e20316044820152663132206269747360c81b6064820152608401610d31565b6000614b18826040518060400160405280602081526020017f5361666545524332303a206c6f772d6c6576656c2063616c6c206661696c6564815250856001600160a01b0316614ef99092919063ffffffff16565b805190915015611e715780806020019051810190614b3691906155bd565b611e715760405162461bcd60e51b815260206004820152602a60248201527f5361666545524332303a204552433230206f7065726174696f6e20646964206e6044820152691bdd081cdd58d8d9595960b21b6064820152608401610d31565b600061ffff821115613d0c5760405162461bcd60e51b815260206004820152602660248201527f53616665436173743a2076616c756520646f65736e27742066697420696e203160448201526536206269747360d01b6064820152608401610d31565b6000600182602d811115614c0e57614c0e615694565b614c189190615921565b60c954600160ff929092169190911b91506201518090614c3f9064ffffffffff164261593a565b64ffffffffff161115614c815760c9805466ffffffffffffff8316600160281b026bffffffffffffffffffffffff1990911664ffffffffff4216171790555050565b60c954600160281b9004811666ffffffffffffff16600003614ce65760c9805464ffffffffff421664ffffffffff1966ffffffffffffff808616600160281b808604929092161702166bffffffffffffffffffffffff19909216919091171790555050565b60405162461bcd60e51b815260206004820152604760248201527f596f7520616c726561647920747765616b6564207468697320706172616d657460448201527f657220726563656e746c792e2057616974206265666f726520747765616b696e606482015266339030b3b0b4b760c91b608482015260a401610d31565b60608315614d73575081610d54565b825115614d835782518084602001fd5b8160405162461bcd60e51b8152600401610d319190615024565b60008115676765c793fa10079d601b1b60028404190484111715614dc057600080fd5b50676765c793fa10079d601b1b9190910260028204010490565b614de381614482565b6040516001600160a01b038216907fbc7cd75a20ee27fd9adebab32041f755214dbc6bffa90cc0225b39da2e5c2d3b90600090a250565b60606001600160a01b0383163b614e435760405162461bcd60e51b8152600401610d3190615870565b600080846001600160a01b031684604051614e5e91906156aa565b600060405180830381855af49150503d8060008114614e99576040519150601f19603f3d011682016040523d82523d6000602084013e614e9e565b606091505b5091509150613b9b828260405180606001604052806027815260200161599960279139614d64565b600054610100900460ff16614eed5760405162461bcd60e51b8152600401610d31906158d6565b6097805460ff19169055565b6060613f198484600085856001600160a01b0385163b614f5b5760405162461bcd60e51b815260206004820152601d60248201527f416464726573733a2063616c6c20746f206e6f6e2d636f6e74726163740000006044820152606401610d31565b600080866001600160a01b03168587604051614f7791906156aa565b60006040518083038185875af1925050503d8060008114614fb4576040519150601f19603f3d011682016040523d82523d6000602084013e614fb9565b606091505b5091509150614fc9828286614d64565b979650505050505050565b60005b83811015614fef578181015183820152602001614fd7565b50506000910152565b60008151808452615010816020860160208601614fd4565b601f01601f19169290920160200192915050565b602081526000610d546020830184614ff8565b6001600160a01b0381168114610f4657600080fd5b6000806040838503121561505f57600080fd5b823561506a81615037565b946020939093013593505050565b634e487b7160e01b600052604160045260246000fd5b600082601f83011261509f57600080fd5b81356001600160401b03808211156150b9576150b9615078565b604051601f8301601f19908116603f011681019082821181831017156150e1576150e1615078565b816040528381528660208588010111156150fa57600080fd5b836020870160208301376000602085830101528094505050505092915050565b60006020828403121561512c57600080fd5b81356001600160401b0381111561514257600080fd5b613f198482850161508e565b60008060006060848603121561516357600080fd5b833561516e81615037565b9250602084013561517e81615037565b929592945050506040919091013590565b6000602082840312156151a157600080fd5b8135610d5481615037565b600080604083850312156151bf57600080fd5b82356151ca81615037565b915060208301356001600160401b038111156151e557600080fd5b6151f18582860161508e565b9150509250929050565b8015158114610f4657600080fd5b60008060006060848603121561521e57600080fd5b83359250602084013561523081615037565b91506040840135615240816151fb565b809150509250925092565b6000806000806080858703121561526157600080fd5b84356001600160401b038082111561527857600080fd5b6152848883890161508e565b9550602087013591508082111561529a57600080fd5b506152a78782880161508e565b949794965050505060408301359260600135919050565b6000602082840312156152d057600080fd5b8135610d54816151fb565b600080604083850312156152ee57600080fd5b50508035926020909101359150565b6000806040838503121561531057600080fd5b82359150602083013561532281615037565b809150509250929050565b60008060006060848603121561534257600080fd5b505081359360208301359350604090920135919050565b6000806040838503121561536c57600080fd5b82356004811061506a57600080fd5b6000806040838503121561538e57600080fd5b823561539981615037565b91506020830135615322816151fb565b600080604083850312156153bc57600080fd5b82356153c781615037565b9150602083013561532281615037565b634e487b7160e01b600052601160045260246000fd5b81810381811115610b4957610b496153d7565b600181811c9082168061541457607f821691505b602082108103610c9c57634e487b7160e01b600052602260045260246000fd5b60006020828403121561544657600080fd5b8151610d5481615037565b6001600160a01b039485168152602081019390935292166040820152901515606082015260800190565b60006020828403121561548d57600080fd5b815160ff81168114610d5457600080fd5b6020808252602c908201527f46756e6374696f6e206d7573742062652063616c6c6564207468726f7567682060408201526b19195b1959d85d1958d85b1b60a21b606082015260800190565b6020808252602c908201527f46756e6374696f6e206d7573742062652063616c6c6564207468726f7567682060408201526b6163746976652070726f787960a01b606082015260800190565b80820180821115610b4957610b496153d7565b6001600160a01b039586168152602081019490945260408401929092529092166060820152901515608082015260a00190565b60208082526021908201527f5468652063616c6c6572206d7573742062652074686520506f6c696379506f6f6040820152601b60fa1b606082015260800190565b6000602082840312156155cf57600080fd5b8151610d54816151fb565b6000602082840312156155ec57600080fd5b5051919050565b6020808252601d908201527f5468652063616c6c6572206d757374206265206120626f72726f776572000000604082015260600190565b6000600160ff1b820161563f5761563f6153d7565b5060000390565b6020808252602e908201527f496e697469616c697a61626c653a20636f6e747261637420697320616c72656160408201526d191e481a5b9a5d1a585b1a5e995960921b606082015260800190565b634e487b7160e01b600052602160045260246000fd5b600082516156bc818460208701614fd4565b9190910192915050565b6001600160701b038181168382160190808211156156e6576156e66153d7565b5092915050565b601f821115611e7157600081815260208120601f850160051c810160208610156157145750805b601f850160051c820191505b81811015612aaa57828155600101615720565b81516001600160401b0381111561574c5761574c615078565b6157608161575a8454615400565b846156ed565b602080601f831160018114615795576000841561577d5750858301515b600019600386901b1c1916600185901b178555612aaa565b600085815260208120601f198616915b828110156157c4578886015182559484019460019091019084016157a5565b50858210156157e25787850151600019600388901b60f8161c191681555b5050505050600190811b01905550565b63ffffffff8281168282160390808211156156e6576156e66153d7565b6000816000190483118215151615615829576158296153d7565b500290565b60008261584b57634e487b7160e01b600052601260045260246000fd5b500490565b6001600160701b038281168282160390808211156156e6576156e66153d7565b60208082526026908201527f416464726573733a2064656c65676174652063616c6c20746f206e6f6e2d636f6040820152651b9d1c9858dd60d21b606082015260800190565b80820182811260008312801582168215821617156136b6576136b66153d7565b6020808252602b908201527f496e697469616c697a61626c653a20636f6e7472616374206973206e6f74206960408201526a6e697469616c697a696e6760a81b606082015260800190565b60ff8281168282160390811115610b4957610b496153d7565b64ffffffffff8281168282160390808211156156e6576156e66153d756fe360894a13ba1a3210667c828492db98dca3e2076cc3735a920a3ca505d382bbcbf372ca3ebecfe59ac256f17697941bbe63302aced610e8b0e3646f743c7beb2416464726573733a206c6f772d6c6576656c2064656c65676174652063616c6c206661696c6564a82e22387fca439f316d78ca566f383218ab8ae1b3e830178c9c82cbd16749c055435dd261a4b9b3364963f7738a7a662ad9c84396d64be3365284bb7f0a5041a2646970667358221220ef4274c38989cf6aeec2739ffb1a91b6e8feb4ca3bf1c64fcccb78ea2dd15e1364736f6c63430008100033",
  "linkReferences": {},
  "deployedLinkReferences": {}
}