{
  "_format": "hh-sol-artifact-1",
  "contractName": "PolicyPool",
  "sourceName": "contracts/PolicyPool.sol",
  "abi": [
    {
      "inputs": [
        {
          "internalType": "contract IAccessManager",
          "name": "access_",
          "type": "address"
        },
        {
          "internalType": "contract IERC20Metadata",
          "name": "currency_",
          "type": "address"
        }
      ],
      "stateMutability": "nonpayable",
      "type": "constructor"
    },
    {
      "anonymous": false,
      "inputs": [
        {
          "indexed": false,
          "internalType": "address",
          "name": "previousAdmin",
          "type": "address"
        },
        {
          "indexed": false,
          "internalType": "address",
          "name": "newAdmin",
          "type": "address"
        }
      ],
      "name": "AdminChanged",
      "type": "event"
    },
    {
      "anonymous": false,
      "inputs": [
        {
          "indexed": true,
          "internalType": "address",
          "name": "owner",
          "type": "address"
        },
        {
          "indexed": true,
          "internalType": "address",
          "name": "approved",
          "type": "address"
        },
        {
          "indexed": true,
          "internalType": "uint256",
          "name": "tokenId",
          "type": "uint256"
        }
      ],
      "name": "Approval",
      "type": "event"
    },
    {
      "anonymous": false,
      "inputs": [
        {
          "indexed": true,
          "internalType": "address",
          "name": "owner",
          "type": "address"
        },
        {
          "indexed": true,
          "internalType": "address",
          "name": "operator",
          "type": "address"
        },
        {
          "indexed": false,
          "internalType": "bool",
          "name": "approved",
          "type": "bool"
        }
      ],
      "name": "ApprovalForAll",
      "type": "event"
    },
    {
      "anonymous": false,
      "inputs": [
        {
          "indexed": true,
          "internalType": "address",
          "name": "beacon",
          "type": "address"
        }
      ],
      "name": "BeaconUpgraded",
      "type": "event"
    },
    {
      "anonymous": false,
      "inputs": [
        {
          "indexed": true,
          "internalType": "enum IAccessManager.GovernanceActions",
          "name": "action",
          "type": "uint8"
        },
        {
          "indexed": false,
          "internalType": "address",
          "name": "value",
          "type": "address"
        }
      ],
      "name": "ComponentChanged",
      "type": "event"
    },
    {
      "anonymous": false,
      "inputs": [
        {
          "indexed": true,
          "internalType": "contract IPolicyPoolComponent",
          "name": "component",
          "type": "address"
        },
        {
          "indexed": false,
          "internalType": "enum PolicyPool.ComponentKind",
          "name": "kind",
          "type": "uint8"
        },
        {
          "indexed": false,
          "internalType": "enum PolicyPool.ComponentStatus",
          "name": "newStatus",
          "type": "uint8"
        }
      ],
      "name": "ComponentStatusChanged",
      "type": "event"
    },
    {
      "anonymous": false,
      "inputs": [
        {
          "indexed": false,
          "internalType": "uint8",
          "name": "version",
          "type": "uint8"
        }
      ],
      "name": "Initialized",
      "type": "event"
    },
    {
      "anonymous": false,
      "inputs": [
        {
          "indexed": true,
          "internalType": "contract IRiskModule",
          "name": "riskModule",
          "type": "address"
        },
        {
          "components": [
            {
              "internalType": "uint256",
              "name": "id",
              "type": "uint256"
            },
            {
              "internalType": "uint256",
              "name": "payout",
              "type": "uint256"
            },
            {
              "internalType": "uint256",
              "name": "premium",
              "type": "uint256"
            },
            {
              "internalType": "uint256",
              "name": "jrScr",
              "type": "uint256"
            },
            {
              "internalType": "uint256",
              "name": "srScr",
              "type": "uint256"
            },
            {
              "internalType": "uint256",
              "name": "lossProb",
              "type": "uint256"
            },
            {
              "internalType": "uint256",
              "name": "purePremium",
              "type": "uint256"
            },
            {
              "internalType": "uint256",
              "name": "ensuroCommission",
              "type": "uint256"
            },
            {
              "internalType": "uint256",
              "name": "partnerCommission",
              "type": "uint256"
            },
            {
              "internalType": "uint256",
              "name": "jrCoc",
              "type": "uint256"
            },
            {
              "internalType": "uint256",
              "name": "srCoc",
              "type": "uint256"
            },
            {
              "internalType": "contract IRiskModule",
              "name": "riskModule",
              "type": "address"
            },
            {
              "internalType": "uint40",
              "name": "start",
              "type": "uint40"
            },
            {
              "internalType": "uint40",
              "name": "expiration",
              "type": "uint40"
            }
          ],
          "indexed": false,
          "internalType": "struct Policy.PolicyData",
          "name": "policy",
          "type": "tuple"
        }
      ],
      "name": "NewPolicy",
      "type": "event"
    },
    {
      "anonymous": false,
      "inputs": [
        {
          "indexed": false,
          "internalType": "address",
          "name": "account",
          "type": "address"
        }
      ],
      "name": "Paused",
      "type": "event"
    },
    {
      "anonymous": false,
      "inputs": [
        {
          "indexed": true,
          "internalType": "contract IRiskModule",
          "name": "riskModule",
          "type": "address"
        },
        {
          "indexed": true,
          "internalType": "uint256",
          "name": "policyId",
          "type": "uint256"
        },
        {
          "indexed": false,
          "internalType": "uint256",
          "name": "payout",
          "type": "uint256"
        }
      ],
      "name": "PolicyResolved",
      "type": "event"
    },
    {
      "anonymous": false,
      "inputs": [
        {
          "indexed": true,
          "internalType": "address",
          "name": "from",
          "type": "address"
        },
        {
          "indexed": true,
          "internalType": "address",
          "name": "to",
          "type": "address"
        },
        {
          "indexed": true,
          "internalType": "uint256",
          "name": "tokenId",
          "type": "uint256"
        }
      ],
      "name": "Transfer",
      "type": "event"
    },
    {
      "anonymous": false,
      "inputs": [
        {
          "indexed": false,
          "internalType": "address",
          "name": "account",
          "type": "address"
        }
      ],
      "name": "Unpaused",
      "type": "event"
    },
    {
      "anonymous": false,
      "inputs": [
        {
          "indexed": true,
          "internalType": "address",
          "name": "implementation",
          "type": "address"
        }
      ],
      "name": "Upgraded",
      "type": "event"
    },
    {
      "inputs": [],
      "name": "GUARDIAN_ROLE",
      "outputs": [
        {
          "internalType": "bytes32",
          "name": "",
          "type": "bytes32"
        }
      ],
      "stateMutability": "view",
      "type": "function"
    },
    {
      "inputs": [],
      "name": "LEVEL1_ROLE",
      "outputs": [
        {
          "internalType": "bytes32",
          "name": "",
          "type": "bytes32"
        }
      ],
      "stateMutability": "view",
      "type": "function"
    },
    {
      "inputs": [],
      "name": "LEVEL2_ROLE",
      "outputs": [
        {
          "internalType": "bytes32",
          "name": "",
          "type": "bytes32"
        }
      ],
      "stateMutability": "view",
      "type": "function"
    },
    {
      "inputs": [],
      "name": "LEVEL3_ROLE",
      "outputs": [
        {
          "internalType": "bytes32",
          "name": "",
          "type": "bytes32"
        }
      ],
      "stateMutability": "view",
      "type": "function"
    },
    {
      "inputs": [],
      "name": "access",
      "outputs": [
        {
          "internalType": "contract IAccessManager",
          "name": "",
          "type": "address"
        }
      ],
      "stateMutability": "view",
      "type": "function"
    },
    {
      "inputs": [
        {
          "internalType": "contract IPolicyPoolComponent",
          "name": "component",
          "type": "address"
        },
        {
          "internalType": "enum PolicyPool.ComponentKind",
          "name": "kind",
          "type": "uint8"
        }
      ],
      "name": "addComponent",
      "outputs": [],
      "stateMutability": "nonpayable",
      "type": "function"
    },
    {
      "inputs": [
        {
          "internalType": "address",
          "name": "to",
          "type": "address"
        },
        {
          "internalType": "uint256",
          "name": "tokenId",
          "type": "uint256"
        }
      ],
      "name": "approve",
      "outputs": [],
      "stateMutability": "nonpayable",
      "type": "function"
    },
    {
      "inputs": [
        {
          "internalType": "address",
          "name": "owner",
          "type": "address"
        }
      ],
      "name": "balanceOf",
      "outputs": [
        {
          "internalType": "uint256",
          "name": "",
          "type": "uint256"
        }
      ],
      "stateMutability": "view",
      "type": "function"
    },
    {
      "inputs": [
        {
          "internalType": "contract IPolicyPoolComponent",
          "name": "component",
          "type": "address"
        },
        {
          "internalType": "enum PolicyPool.ComponentStatus",
          "name": "newStatus",
          "type": "uint8"
        }
      ],
      "name": "changeComponentStatus",
      "outputs": [],
      "stateMutability": "nonpayable",
      "type": "function"
    },
    {
      "inputs": [],
      "name": "currency",
      "outputs": [
        {
          "internalType": "contract IERC20Metadata",
          "name": "",
          "type": "address"
        }
      ],
      "stateMutability": "view",
      "type": "function"
    },
    {
      "inputs": [
        {
          "internalType": "contract IEToken",
          "name": "eToken",
          "type": "address"
        },
        {
          "internalType": "uint256",
          "name": "amount",
          "type": "uint256"
        }
      ],
      "name": "deposit",
      "outputs": [],
      "stateMutability": "nonpayable",
      "type": "function"
    },
    {
      "inputs": [
        {
          "components": [
            {
              "internalType": "uint256",
              "name": "id",
              "type": "uint256"
            },
            {
              "internalType": "uint256",
              "name": "payout",
              "type": "uint256"
            },
            {
              "internalType": "uint256",
              "name": "premium",
              "type": "uint256"
            },
            {
              "internalType": "uint256",
              "name": "jrScr",
              "type": "uint256"
            },
            {
              "internalType": "uint256",
              "name": "srScr",
              "type": "uint256"
            },
            {
              "internalType": "uint256",
              "name": "lossProb",
              "type": "uint256"
            },
            {
              "internalType": "uint256",
              "name": "purePremium",
              "type": "uint256"
            },
            {
              "internalType": "uint256",
              "name": "ensuroCommission",
              "type": "uint256"
            },
            {
              "internalType": "uint256",
              "name": "partnerCommission",
              "type": "uint256"
            },
            {
              "internalType": "uint256",
              "name": "jrCoc",
              "type": "uint256"
            },
            {
              "internalType": "uint256",
              "name": "srCoc",
              "type": "uint256"
            },
            {
              "internalType": "contract IRiskModule",
              "name": "riskModule",
              "type": "address"
            },
            {
              "internalType": "uint40",
              "name": "start",
              "type": "uint40"
            },
            {
              "internalType": "uint40",
              "name": "expiration",
              "type": "uint40"
            }
          ],
          "internalType": "struct Policy.PolicyData",
          "name": "policy",
          "type": "tuple"
        }
      ],
      "name": "expirePolicy",
      "outputs": [],
      "stateMutability": "nonpayable",
      "type": "function"
    },
    {
      "inputs": [
        {
          "internalType": "uint256",
          "name": "tokenId",
          "type": "uint256"
        }
      ],
      "name": "getApproved",
      "outputs": [
        {
          "internalType": "address",
          "name": "",
          "type": "address"
        }
      ],
      "stateMutability": "view",
      "type": "function"
    },
    {
      "inputs": [
        {
          "internalType": "contract IPolicyPoolComponent",
          "name": "component",
          "type": "address"
        }
      ],
      "name": "getComponentStatus",
      "outputs": [
        {
          "internalType": "enum PolicyPool.ComponentStatus",
          "name": "",
          "type": "uint8"
        }
      ],
      "stateMutability": "view",
      "type": "function"
    },
    {
      "inputs": [
        {
          "internalType": "string",
          "name": "name_",
          "type": "string"
        },
        {
          "internalType": "string",
          "name": "symbol_",
          "type": "string"
        },
        {
          "internalType": "address",
          "name": "treasury_",
          "type": "address"
        }
      ],
      "name": "initialize",
      "outputs": [],
      "stateMutability": "nonpayable",
      "type": "function"
    },
    {
      "inputs": [
        {
          "internalType": "uint256",
          "name": "policyId",
          "type": "uint256"
        }
      ],
      "name": "isActive",
      "outputs": [
        {
          "internalType": "bool",
          "name": "",
          "type": "bool"
        }
      ],
      "stateMutability": "view",
      "type": "function"
    },
    {
      "inputs": [
        {
          "internalType": "address",
          "name": "owner",
          "type": "address"
        },
        {
          "internalType": "address",
          "name": "operator",
          "type": "address"
        }
      ],
      "name": "isApprovedForAll",
      "outputs": [
        {
          "internalType": "bool",
          "name": "",
          "type": "bool"
        }
      ],
      "stateMutability": "view",
      "type": "function"
    },
    {
      "inputs": [],
      "name": "name",
      "outputs": [
        {
          "internalType": "string",
          "name": "",
          "type": "string"
        }
      ],
      "stateMutability": "view",
      "type": "function"
    },
    {
      "inputs": [
        {
          "components": [
            {
              "internalType": "uint256",
              "name": "id",
              "type": "uint256"
            },
            {
              "internalType": "uint256",
              "name": "payout",
              "type": "uint256"
            },
            {
              "internalType": "uint256",
              "name": "premium",
              "type": "uint256"
            },
            {
              "internalType": "uint256",
              "name": "jrScr",
              "type": "uint256"
            },
            {
              "internalType": "uint256",
              "name": "srScr",
              "type": "uint256"
            },
            {
              "internalType": "uint256",
              "name": "lossProb",
              "type": "uint256"
            },
            {
              "internalType": "uint256",
              "name": "purePremium",
              "type": "uint256"
            },
            {
              "internalType": "uint256",
              "name": "ensuroCommission",
              "type": "uint256"
            },
            {
              "internalType": "uint256",
              "name": "partnerCommission",
              "type": "uint256"
            },
            {
              "internalType": "uint256",
              "name": "jrCoc",
              "type": "uint256"
            },
            {
              "internalType": "uint256",
              "name": "srCoc",
              "type": "uint256"
            },
            {
              "internalType": "contract IRiskModule",
              "name": "riskModule",
              "type": "address"
            },
            {
              "internalType": "uint40",
              "name": "start",
              "type": "uint40"
            },
            {
              "internalType": "uint40",
              "name": "expiration",
              "type": "uint40"
            }
          ],
          "internalType": "struct Policy.PolicyData",
          "name": "policy",
          "type": "tuple"
        },
        {
          "internalType": "address",
          "name": "payer",
          "type": "address"
        },
        {
          "internalType": "address",
          "name": "policyHolder",
          "type": "address"
        },
        {
          "internalType": "uint96",
          "name": "internalId",
          "type": "uint96"
        }
      ],
      "name": "newPolicy",
      "outputs": [
        {
          "internalType": "uint256",
          "name": "",
          "type": "uint256"
        }
      ],
      "stateMutability": "nonpayable",
      "type": "function"
    },
    {
      "inputs": [
        {
          "internalType": "uint256",
          "name": "tokenId",
          "type": "uint256"
        }
      ],
      "name": "ownerOf",
      "outputs": [
        {
          "internalType": "address",
          "name": "",
          "type": "address"
        }
      ],
      "stateMutability": "view",
      "type": "function"
    },
    {
      "inputs": [],
      "name": "pause",
      "outputs": [],
      "stateMutability": "nonpayable",
      "type": "function"
    },
    {
      "inputs": [],
      "name": "paused",
      "outputs": [
        {
          "internalType": "bool",
          "name": "",
          "type": "bool"
        }
      ],
      "stateMutability": "view",
      "type": "function"
    },
    {
      "inputs": [],
      "name": "proxiableUUID",
      "outputs": [
        {
          "internalType": "bytes32",
          "name": "",
          "type": "bytes32"
        }
      ],
      "stateMutability": "view",
      "type": "function"
    },
    {
      "inputs": [
        {
          "internalType": "contract IPolicyPoolComponent",
          "name": "component",
          "type": "address"
        }
      ],
      "name": "removeComponent",
      "outputs": [],
      "stateMutability": "nonpayable",
      "type": "function"
    },
    {
      "inputs": [
        {
          "components": [
            {
              "internalType": "uint256",
              "name": "id",
              "type": "uint256"
            },
            {
              "internalType": "uint256",
              "name": "payout",
              "type": "uint256"
            },
            {
              "internalType": "uint256",
              "name": "premium",
              "type": "uint256"
            },
            {
              "internalType": "uint256",
              "name": "jrScr",
              "type": "uint256"
            },
            {
              "internalType": "uint256",
              "name": "srScr",
              "type": "uint256"
            },
            {
              "internalType": "uint256",
              "name": "lossProb",
              "type": "uint256"
            },
            {
              "internalType": "uint256",
              "name": "purePremium",
              "type": "uint256"
            },
            {
              "internalType": "uint256",
              "name": "ensuroCommission",
              "type": "uint256"
            },
            {
              "internalType": "uint256",
              "name": "partnerCommission",
              "type": "uint256"
            },
            {
              "internalType": "uint256",
              "name": "jrCoc",
              "type": "uint256"
            },
            {
              "internalType": "uint256",
              "name": "srCoc",
              "type": "uint256"
            },
            {
              "internalType": "contract IRiskModule",
              "name": "riskModule",
              "type": "address"
            },
            {
              "internalType": "uint40",
              "name": "start",
              "type": "uint40"
            },
            {
              "internalType": "uint40",
              "name": "expiration",
              "type": "uint40"
            }
          ],
          "internalType": "struct Policy.PolicyData",
          "name": "policy",
          "type": "tuple"
        },
        {
          "internalType": "uint256",
          "name": "payout",
          "type": "uint256"
        }
      ],
      "name": "resolvePolicy",
      "outputs": [],
      "stateMutability": "nonpayable",
      "type": "function"
    },
    {
      "inputs": [
        {
          "components": [
            {
              "internalType": "uint256",
              "name": "id",
              "type": "uint256"
            },
            {
              "internalType": "uint256",
              "name": "payout",
              "type": "uint256"
            },
            {
              "internalType": "uint256",
              "name": "premium",
              "type": "uint256"
            },
            {
              "internalType": "uint256",
              "name": "jrScr",
              "type": "uint256"
            },
            {
              "internalType": "uint256",
              "name": "srScr",
              "type": "uint256"
            },
            {
              "internalType": "uint256",
              "name": "lossProb",
              "type": "uint256"
            },
            {
              "internalType": "uint256",
              "name": "purePremium",
              "type": "uint256"
            },
            {
              "internalType": "uint256",
              "name": "ensuroCommission",
              "type": "uint256"
            },
            {
              "internalType": "uint256",
              "name": "partnerCommission",
              "type": "uint256"
            },
            {
              "internalType": "uint256",
              "name": "jrCoc",
              "type": "uint256"
            },
            {
              "internalType": "uint256",
              "name": "srCoc",
              "type": "uint256"
            },
            {
              "internalType": "contract IRiskModule",
              "name": "riskModule",
              "type": "address"
            },
            {
              "internalType": "uint40",
              "name": "start",
              "type": "uint40"
            },
            {
              "internalType": "uint40",
              "name": "expiration",
              "type": "uint40"
            }
          ],
          "internalType": "struct Policy.PolicyData",
          "name": "policy",
          "type": "tuple"
        },
        {
          "internalType": "bool",
          "name": "customerWon",
          "type": "bool"
        }
      ],
      "name": "resolvePolicyFullPayout",
      "outputs": [],
      "stateMutability": "nonpayable",
      "type": "function"
    },
    {
      "inputs": [
        {
          "internalType": "address",
          "name": "from",
          "type": "address"
        },
        {
          "internalType": "address",
          "name": "to",
          "type": "address"
        },
        {
          "internalType": "uint256",
          "name": "tokenId",
          "type": "uint256"
        }
      ],
      "name": "safeTransferFrom",
      "outputs": [],
      "stateMutability": "nonpayable",
      "type": "function"
    },
    {
      "inputs": [
        {
          "internalType": "address",
          "name": "from",
          "type": "address"
        },
        {
          "internalType": "address",
          "name": "to",
          "type": "address"
        },
        {
          "internalType": "uint256",
          "name": "tokenId",
          "type": "uint256"
        },
        {
          "internalType": "bytes",
          "name": "data",
          "type": "bytes"
        }
      ],
      "name": "safeTransferFrom",
      "outputs": [],
      "stateMutability": "nonpayable",
      "type": "function"
    },
    {
      "inputs": [
        {
          "internalType": "address",
          "name": "operator",
          "type": "address"
        },
        {
          "internalType": "bool",
          "name": "approved",
          "type": "bool"
        }
      ],
      "name": "setApprovalForAll",
      "outputs": [],
      "stateMutability": "nonpayable",
      "type": "function"
    },
    {
      "inputs": [
        {
          "internalType": "address",
          "name": "treasury_",
          "type": "address"
        }
      ],
      "name": "setTreasury",
      "outputs": [],
      "stateMutability": "nonpayable",
      "type": "function"
    },
    {
      "inputs": [
        {
          "internalType": "bytes4",
          "name": "interfaceId",
          "type": "bytes4"
        }
      ],
      "name": "supportsInterface",
      "outputs": [
        {
          "internalType": "bool",
          "name": "",
          "type": "bool"
        }
      ],
      "stateMutability": "view",
      "type": "function"
    },
    {
      "inputs": [],
      "name": "symbol",
      "outputs": [
        {
          "internalType": "string",
          "name": "",
          "type": "string"
        }
      ],
      "stateMutability": "view",
      "type": "function"
    },
    {
      "inputs": [
        {
          "internalType": "uint256",
          "name": "tokenId",
          "type": "uint256"
        }
      ],
      "name": "tokenURI",
      "outputs": [
        {
          "internalType": "string",
          "name": "",
          "type": "string"
        }
      ],
      "stateMutability": "view",
      "type": "function"
    },
    {
      "inputs": [
        {
          "internalType": "address",
          "name": "from",
          "type": "address"
        },
        {
          "internalType": "address",
          "name": "to",
          "type": "address"
        },
        {
          "internalType": "uint256",
          "name": "tokenId",
          "type": "uint256"
        }
      ],
      "name": "transferFrom",
      "outputs": [],
      "stateMutability": "nonpayable",
      "type": "function"
    },
    {
      "inputs": [],
      "name": "treasury",
      "outputs": [
        {
          "internalType": "address",
          "name": "",
          "type": "address"
        }
      ],
      "stateMutability": "view",
      "type": "function"
    },
    {
      "inputs": [],
      "name": "unpause",
      "outputs": [],
      "stateMutability": "nonpayable",
      "type": "function"
    },
    {
      "inputs": [
        {
          "internalType": "address",
          "name": "newImplementation",
          "type": "address"
        }
      ],
      "name": "upgradeTo",
      "outputs": [],
      "stateMutability": "nonpayable",
      "type": "function"
    },
    {
      "inputs": [
        {
          "internalType": "address",
          "name": "newImplementation",
          "type": "address"
        },
        {
          "internalType": "bytes",
          "name": "data",
          "type": "bytes"
        }
      ],
      "name": "upgradeToAndCall",
      "outputs": [],
      "stateMutability": "payable",
      "type": "function"
    },
    {
      "inputs": [
        {
          "internalType": "contract IEToken",
          "name": "eToken",
          "type": "address"
        },
        {
          "internalType": "uint256",
          "name": "amount",
          "type": "uint256"
        }
      ],
      "name": "withdraw",
      "outputs": [
        {
          "internalType": "uint256",
          "name": "",
          "type": "uint256"
        }
      ],
      "stateMutability": "nonpayable",
      "type": "function"
    }
  ],
  "bytecode": "0x60e0604052306080523480156200001557600080fd5b506040516200516038038062005160833981016040819052620000389162000069565b6001600160a01b0391821660a0521660c052620000a8565b6001600160a01b03811681146200006657600080fd5b50565b600080604083850312156200007d57600080fd5b82516200008a8162000050565b60208401519092506200009d8162000050565b809150509250929050565b60805160a05160c051614ffc62000164600039600081816106d501528181610d05015281816116b501528181611760015281816118090152818161184801526119790152600081816105c801528181610be401528181610f5d01528181611083015281816111520152818161122101528181611a8e01528181611eb201528181612540015281816126d40152612d6f015260008181610ae701528181610b2701528181610dc001528181610e000152610e8f0152614ffc6000f3fe6080604052600436106102305760003560e01c80636352211e1161012e57806395d89b41116100ab578063e985e9c51161006f578063e985e9c5146106f9578063f0f4426014610719578063f3fef3a314610739578063f67b2bad14610759578063ffa600e31461077b57600080fd5b806395d89b4114610651578063a22cb46514610666578063b88d4fde14610686578063c87b56dd146106a6578063e5a6b10f146106c657600080fd5b806370a08231116100f257806370a082311461059957806371907f17146105b95780637a702b3c146105ec57806382afd23b1461060c5780638456cb591461063c57600080fd5b80636352211e146104f95780636769a76f146105195780636af6f1ef146105395780636b8734e7146105595780636f86c8971461057957600080fd5b80633f4ba83a116101bc57806352d1902d1161018057806352d1902d146104595780635b494dd51461046e5780635c975abb146104a25780635fcbf445146104ba57806361d027b3146104da57600080fd5b80633f4ba83a146103bd57806342842e0e146103d257806347e7ef24146103f25780634a47a3e0146104125780634f1ef2861461044657600080fd5b8063095ea7b311610203578063095ea7b3146102e657806323b872dd1461030657806324ea54f41461032657806333d6157a146103565780633659cfe61461039d57600080fd5b806301ffc9a71461023557806306fdde031461026a578063077f224a1461028c578063081812fc146102ae575b600080fd5b34801561024157600080fd5b5061025561025036600461431b565b61079b565b60405190151581526020015b60405180910390f35b34801561027657600080fd5b5061027f6107ed565b6040516102619190614388565b34801561029857600080fd5b506102ac6102a736600461447d565b61087f565b005b3480156102ba57600080fd5b506102ce6102c93660046144f5565b610970565b6040516001600160a01b039091168152602001610261565b3480156102f257600080fd5b506102ac61030136600461450e565b610997565b34801561031257600080fd5b506102ac61032136600461453a565b610aac565b34801561033257600080fd5b50610348600080516020614fa783398151915281565b604051908152602001610261565b34801561036257600080fd5b5061039061037136600461457b565b6001600160a01b0316600090815261012e602052604090205460ff1690565b60405161026191906145cc565b3480156103a957600080fd5b506102ac6103b836600461457b565b610add565b3480156103c957600080fd5b506102ac610bbc565b3480156103de57600080fd5b506102ac6103ed36600461453a565b610c7d565b3480156103fe57600080fd5b506102ac61040d36600461450e565b610c98565b34801561041e57600080fd5b506103487fa82e22387fca439f316d78ca566f383218ab8ae1b3e830178c9c82cbd16749c081565b6102ac6104543660046145df565b610db6565b34801561046557600080fd5b50610348610e82565b34801561047a57600080fd5b506103487f5ec196419322369c6bac572d883f4d990ae5ec82f7d93cdf89b85dbb05b63c2781565b3480156104ae57600080fd5b5060335460ff16610255565b3480156104c657600080fd5b506102ac6104d536600461463c565b610f35565b3480156104e657600080fd5b5061012d546001600160a01b03166102ce565b34801561050557600080fd5b506102ce6105143660046144f5565b6113ae565b34801561052557600080fd5b50610348610534366004614761565b61140e565b34801561054557600080fd5b506102ac6105543660046147ea565b6119f1565b34801561056557600080fd5b506102ac61057436600461463c565b611a75565b34801561058557600080fd5b506102ac61059436600461457b565b611e99565b3480156105a557600080fd5b506103486105b436600461457b565b61247f565b3480156105c557600080fd5b507f00000000000000000000000000000000000000000000000000000000000000006102ce565b3480156105f857600080fd5b506102ac610607366004614807565b612505565b34801561061857600080fd5b506102556106273660046144f5565b600090815261012f6020526040902054151590565b34801561064857600080fd5b506102ac612527565b34801561065d57600080fd5b5061027f6125cc565b34801561067257600080fd5b506102ac610681366004614842565b6125db565b34801561069257600080fd5b506102ac6106a1366004614870565b6125e6565b3480156106b257600080fd5b5061027f6106c13660046144f5565b612618565b3480156106d257600080fd5b507f00000000000000000000000000000000000000000000000000000000000000006102ce565b34801561070557600080fd5b506102556107143660046148dc565b61268c565b34801561072557600080fd5b506102ac61073436600461457b565b6126bb565b34801561074557600080fd5b5061034861075436600461450e565b6127b2565b34801561076557600080fd5b50610348600080516020614f6083398151915281565b34801561078757600080fd5b506102ac61079636600461490a565b6128db565b60006001600160e01b031982166380ac58cd60e01b14806107cc57506001600160e01b03198216635b5e139f60e01b145b806107e757506301ffc9a760e01b6001600160e01b03198316145b92915050565b606060fb80546107fc90614939565b80601f016020809104026020016040519081016040528092919081815260200182805461082890614939565b80156108755780601f1061084a57610100808354040283529160200191610875565b820191906000526020600020905b81548152906001019060200180831161085857829003601f168201915b5050505050905090565b600054610100900460ff161580801561089f5750600054600160ff909116105b806108b95750303b1580156108b9575060005460ff166001145b6108de5760405162461bcd60e51b81526004016108d59061496d565b60405180910390fd5b6000805460ff191660011790558015610901576000805461ff0019166101001790555b61090961290e565b6109138484612937565b61091b612968565b61092482612997565b801561096a576000805461ff0019169055604051600181527f7f26b83ff96e1f2b6a682f133852f6798a09c465da95921460cefb38474024989060200160405180910390a15b50505050565b600061097b82612a75565b50600090815260ff60205260409020546001600160a01b031690565b60006109a2826113ae565b9050806001600160a01b0316836001600160a01b031603610a0f5760405162461bcd60e51b815260206004820152602160248201527f4552433732313a20617070726f76616c20746f2063757272656e74206f776e656044820152603960f91b60648201526084016108d5565b336001600160a01b0382161480610a2b5750610a2b813361268c565b610a9d5760405162461bcd60e51b815260206004820152603e60248201527f4552433732313a20617070726f76652063616c6c6572206973206e6f7420746f60448201527f6b656e206f776e6572206e6f7220617070726f76656420666f7220616c6c000060648201526084016108d5565b610aa78383612ad4565b505050565b610ab63382612b42565b610ad25760405162461bcd60e51b81526004016108d5906149bb565b610aa7838383612ba0565b6001600160a01b037f0000000000000000000000000000000000000000000000000000000000000000163003610b255760405162461bcd60e51b81526004016108d590614a09565b7f00000000000000000000000000000000000000000000000000000000000000006001600160a01b0316610b6e600080516020614f40833981519152546001600160a01b031690565b6001600160a01b031614610b945760405162461bcd60e51b81526004016108d590614a55565b610b9d81612d47565b60408051600080825260208201909252610bb991839190612e01565b50565b600080516020614fa7833981519152600080516020614f608339815191526001600160a01b037f00000000000000000000000000000000000000000000000000000000000000001663c5b8f5cf8383336040516001600160e01b031960e086901b168152600481019390935260248301919091526001600160a01b0316604482015260640160006040518083038186803b158015610c5957600080fd5b505afa158015610c6d573d6000803e3d6000fd5b50505050610c79612f6c565b5050565b610aa7838383604051806020016040528060008152506125e6565b610ca0612fbe565b6001610cab83613004565b6003811115610cbc57610cbc614598565b14610d005760405162461bcd60e51b815260206004820152601460248201527365546f6b656e206973206e6f742061637469766560601b60448201526064016108d5565b610d357f00000000000000000000000000000000000000000000000000000000000000006001600160a01b0316338484613091565b6001600160a01b0382166347e7ef24336040516001600160e01b031960e084901b1681526001600160a01b039091166004820152602481018490526044016020604051808303816000875af1158015610d92573d6000803e3d6000fd5b505050506040513d601f19601f82011682018060405250810190610aa79190614aa1565b6001600160a01b037f0000000000000000000000000000000000000000000000000000000000000000163003610dfe5760405162461bcd60e51b81526004016108d590614a09565b7f00000000000000000000000000000000000000000000000000000000000000006001600160a01b0316610e47600080516020614f40833981519152546001600160a01b031690565b6001600160a01b031614610e6d5760405162461bcd60e51b81526004016108d590614a55565b610e7682612d47565b610c7982826001612e01565b6000306001600160a01b037f00000000000000000000000000000000000000000000000000000000000000001614610f225760405162461bcd60e51b815260206004820152603860248201527f555550535570677261646561626c653a206d757374206e6f742062652063616c60448201527f6c6564207468726f7567682064656c656761746563616c6c000000000000000060648201526084016108d5565b50600080516020614f4083398151915290565b600080516020614fa7833981519152600080516020614f608339815191526001600160a01b037f00000000000000000000000000000000000000000000000000000000000000001663c5b8f5cf8383336040516001600160e01b031960e086901b168152600481019390935260248301919091526001600160a01b0316604482015260640160006040518083038186803b158015610fd257600080fd5b505afa158015610fe6573d6000803e3d6000fd5b5050506001600160a01b038516600090815261012e602052604081209150815460ff16600381111561101a5761101a614598565b0361105d5760405162461bcd60e51b815260206004820152601360248201527210dbdb5c1bdb995b9d081b9bdd08199bdd5b99606a1b60448201526064016108d5565b600184600381111561107157611071614598565b14801561112657506001600160a01b037f0000000000000000000000000000000000000000000000000000000000000000166391d14854600080516020614f60833981519152336040516001600160e01b031960e085901b16815260048101929092526001600160a01b03166024820152604401602060405180830381865afa158015611102573d6000803e3d6000fd5b505050506040513d601f19601f820116820180604052508101906111269190614aba565b806111f55750600384600381111561114057611140614598565b1480156111f557506001600160a01b037f0000000000000000000000000000000000000000000000000000000000000000166391d14854600080516020614fa7833981519152336040516001600160e01b031960e085901b16815260048101929092526001600160a01b03166024820152604401602060405180830381865afa1580156111d1573d6000803e3d6000fd5b505050506040513d601f19601f820116820180604052508101906111f59190614aba565b806112c45750600284600381111561120f5761120f614598565b1480156112c457506001600160a01b037f0000000000000000000000000000000000000000000000000000000000000000166391d14854600080516020614f60833981519152336040516001600160e01b031960e085901b16815260048101929092526001600160a01b03166024820152604401602060405180830381865afa1580156112a0573d6000803e3d6000fd5b505050506040513d601f19601f820116820180604052508101906112c49190614aba565b6113365760405162461bcd60e51b815260206004820152603e60248201527f4f6e6c7920475541524449414e2063616e2073757370656e64202f204f6e6c7960448201527f204c4556454c312063616e2061637469766174652f646570726563617465000060648201526084016108d5565b80548490829060ff1916600183600381111561135457611354614598565b021790555080546040516001600160a01b038716917ffe4c6998a06520b63340a48710b374432cb395da90e4e5360e1ec7aeefebecef9161139f91610100900460ff16908890614ad7565b60405180910390a25050505050565b600081815260fd60205260408120546001600160a01b0316806107e75760405162461bcd60e51b8152602060048201526018602482015277115490cdcc8c4e881a5b9d985b1a59081d1bdad95b88125160421b60448201526064016108d5565b6000611418612fbe565b6101608501516001600160a01b03811633146114825760405162461bcd60e51b815260206004820152602360248201527f4f6e6c792074686520524d2063616e20637265617465206e657720706f6c696360448201526269657360e81b60648201526084016108d5565b600161148d826130eb565b600381111561149e5761149e614598565b146114f55760405162461bcd60e51b815260206004820152602160248201527f524d206d6f64756c65206e6f7420666f756e64206f72206e6f742061637469766044820152606560f81b60648201526084016108d5565b6115206bffffffffffffffffffffffff84166bffffffffffffffffffffffff19606084901b16614b13565b865261152b8661316e565b61012f600088600001518152602001908152602001600020819055506000816001600160a01b03166373a952e86040518163ffffffff1660e01b8152600401602060405180830381865afa158015611587573d6000803e3d6000fd5b505050506040513d601f19601f820116820180604052508101906115ab9190614b26565b905060016115b88261319e565b60038111156115c9576115c9614598565b146116265760405162461bcd60e51b815260206004820152602760248201527f5072656d69756d734163636f756e74206e6f7420666f756e64206f72206e6f746044820152662061637469766560c81b60648201526084016108d5565b60405163e3638ea360e01b81526001600160a01b0382169063e3638ea390611652908a90600401614bfb565b600060405180830381600087803b15801561166c57600080fd5b505af1158015611680573d6000803e3d6000fd5b505050506116a28588600001516040518060200160405280600081525061322c565b60c08701516116df906001600160a01b037f0000000000000000000000000000000000000000000000000000000000000000169088908490613091565b610140870151156117885761178886826001600160a01b0316637b83037b6040518163ffffffff1660e01b8152600401602060405180830381865afa15801561172c573d6000803e3d6000fd5b505050506040513d601f19601f820116820180604052508101906117509190614b26565b6101408a01516001600160a01b037f000000000000000000000000000000000000000000000000000000000000000016929190613091565b610120870151156118315761183186826001600160a01b031663536ebbfc6040518163ffffffff1660e01b8152600401602060405180830381865afa1580156117d5573d6000803e3d6000fd5b505050506040513d601f19601f820116820180604052508101906117f99190614b26565b6101208a01516001600160a01b037f000000000000000000000000000000000000000000000000000000000000000016929190613091565b61012d5460e0880151611876916001600160a01b037f00000000000000000000000000000000000000000000000000000000000000008116928a929190911690613091565b60008761010001511180156118fe5750816001600160a01b031663521eb2736040518163ffffffff1660e01b8152600401602060405180830381865afa1580156118c4573d6000803e3d6000fd5b505050506040513d601f19601f820116820180604052508101906118e89190614b26565b6001600160a01b0316866001600160a01b031614155b156119a1576119a186836001600160a01b031663521eb2736040518163ffffffff1660e01b8152600401602060405180830381865afa158015611945573d6000803e3d6000fd5b505050506040513d601f19601f820116820180604052508101906119699190614b26565b6101008a01516001600160a01b037f000000000000000000000000000000000000000000000000000000000000000016929190613091565b816001600160a01b03167f38f420e3792044ba61536a1f83956eefc878b3fb09a7d4a28790f05b6a3eaf3b886040516119da9190614bfb565b60405180910390a25050845190505b949350505050565b6119f9612fbe565b42611a0c6101c083016101a08401614c0a565b64ffffffffff161115611a5a5760405162461bcd60e51b8152602060048201526016602482015275141bdb1a58de481b9bdd08195e1c1a5c9959081e595d60521b60448201526064016108d5565b610bb9611a6c36839003830183614c25565b6000600161325f565b600080516020614f608339815191526001600160a01b037f0000000000000000000000000000000000000000000000000000000000000000166312d9a6ad82336040516001600160e01b031960e085901b16815260048101929092526001600160a01b0316602482015260440160006040518083038186803b158015611afa57600080fd5b505afa158015611b0e573d6000803e3d6000fd5b5050506001600160a01b038416600090815261012e602052604081209150815460ff166003811115611b4257611b42614598565b14611b8f5760405162461bcd60e51b815260206004820152601d60248201527f436f6d706f6e656e7420616c726561647920696e2074686520706f6f6c00000060448201526064016108d5565b306001600160a01b0316846001600160a01b0316634d15eb036040518163ffffffff1660e01b8152600401602060405180830381865afa158015611bd7573d6000803e3d6000fd5b505050506040513d601f19601f82011682018060405250810190611bfb9190614b26565b6001600160a01b031614611c5b5760405162461bcd60e51b815260206004820152602160248201527f436f6d706f6e656e74206e6f74206c696e6b656420746f207468697320706f6f6044820152601b60fa1b60648201526084016108d5565b8054600160ff198216811783558491839161ffff1990911617610100836003811115611c8957611c89614598565b02179055506003836003811115611ca257611ca2614598565b03611e4f5760008490506000816001600160a01b031663536ebbfc6040518163ffffffff1660e01b8152600401602060405180830381865afa158015611cec573d6000803e3d6000fd5b505050506040513d601f19601f82011682018060405250810190611d109190614b26565b90506001600160a01b03811615611d7d576040516338ea38a760e21b81526001600160a01b03838116600483015282169063e3a8e29c90602401600060405180830381600087803b158015611d6457600080fd5b505af1158015611d78573d6000803e3d6000fd5b505050505b816001600160a01b0316637b83037b6040518163ffffffff1660e01b8152600401602060405180830381865afa158015611dbb573d6000803e3d6000fd5b505050506040513d601f19601f82011682018060405250810190611ddf9190614b26565b90506001600160a01b03811615611e4c576040516338ea38a760e21b81526001600160a01b03838116600483015282169063e3a8e29c90602401600060405180830381600087803b158015611e3357600080fd5b505af1158015611e47573d6000803e3d6000fd5b505050505b50505b836001600160a01b03167ffe4c6998a06520b63340a48710b374432cb395da90e4e5360e1ec7aeefebecef846001604051611e8b929190614ad7565b60405180910390a250505050565b600080516020614f608339815191526001600160a01b037f0000000000000000000000000000000000000000000000000000000000000000166312d9a6ad82336040516001600160e01b031960e085901b16815260048101929092526001600160a01b0316602482015260440160006040518083038186803b158015611f1e57600080fd5b505afa158015611f32573d6000803e3d6000fd5b505050506001600160a01b038216600090815261012e602052604090206002815460ff166003811115611f6757611f67614598565b14611fb45760405162461bcd60e51b815260206004820152601860248201527f436f6d706f6e656e74206e6f742064657072656361746564000000000000000060448201526064016108d5565b60018154610100900460ff166003811115611fd157611fd1614598565b0361209957826001600160a01b03166318160ddd6040518163ffffffff1660e01b8152600401602060405180830381865afa158015612014573d6000803e3d6000fd5b505050506040513d601f19601f820116820180604052508101906120389190614aa1565b156120945760405162461bcd60e51b815260206004820152602660248201527f45546f6b656e20686173206c69717569646974792c2063616e27742062652072604482015265195b5bdd995960d21b60648201526084016108d5565b61240b565b60028154610100900460ff1660038111156120b6576120b6614598565b0361217d57826001600160a01b0316637ff8bf256040518163ffffffff1660e01b8152600401602060405180830381865afa1580156120f9573d6000803e3d6000fd5b505050506040513d601f19601f8201168201806040525081019061211d9190614aa1565b156120945760405162461bcd60e51b815260206004820152602a60248201527f43616e27742072656d6f76652061206d6f64756c6520776974682061637469766044820152696520706f6c696369657360b01b60648201526084016108d5565b60038154610100900460ff16600381111561219a5761219a614598565b0361240b576000839050806001600160a01b03166326ccbd226040518163ffffffff1660e01b8152600401602060405180830381865afa1580156121e2573d6000803e3d6000fd5b505050506040513d601f19601f820116820180604052508101906122069190614aa1565b156122685760405162461bcd60e51b815260206004820152602c60248201527f43616e27742072656d6f76652061205072656d69756d734163636f756e74207760448201526b697468207072656d69756d7360a01b60648201526084016108d5565b6000816001600160a01b031663536ebbfc6040518163ffffffff1660e01b8152600401602060405180830381865afa1580156122a8573d6000803e3d6000fd5b505050506040513d601f19601f820116820180604052508101906122cc9190614b26565b90506001600160a01b03811615612339576040516376c7fc5560e01b81526001600160a01b0383811660048301528216906376c7fc5590602401600060405180830381600087803b15801561232057600080fd5b505af1158015612334573d6000803e3d6000fd5b505050505b816001600160a01b0316637b83037b6040518163ffffffff1660e01b8152600401602060405180830381865afa158015612377573d6000803e3d6000fd5b505050506040513d601f19601f8201168201806040525081019061239b9190614b26565b90506001600160a01b03811615612408576040516376c7fc5560e01b81526001600160a01b0383811660048301528216906376c7fc5590602401600060405180830381600087803b1580156123ef57600080fd5b505af1158015612403573d6000803e3d6000fd5b505050505b50505b80546040516001600160a01b038516917ffe4c6998a06520b63340a48710b374432cb395da90e4e5360e1ec7aeefebecef9161245291610100900460ff1690600090614ad7565b60405180910390a250506001600160a01b0316600090815261012e60205260409020805461ffff19169055565b60006001600160a01b0382166124e95760405162461bcd60e51b815260206004820152602960248201527f4552433732313a2061646472657373207a65726f206973206e6f7420612076616044820152683634b21037bbb732b960b91b60648201526084016108d5565b506001600160a01b0316600090815260fe602052604090205490565b61250d612fbe565b610c7961251f36849003840184614c25565b82600061325f565b600080516020614fa78339815191526001600160a01b037f0000000000000000000000000000000000000000000000000000000000000000166312d9a6ad82336040516001600160e01b031960e085901b16815260048101929092526001600160a01b0316602482015260440160006040518083038186803b1580156125ac57600080fd5b505afa1580156125c0573d6000803e3d6000fd5b50505050610bb9613716565b606060fc80546107fc90614939565b610c79338383613753565b6125f03383612b42565b61260c5760405162461bcd60e51b81526004016108d5906149bb565b61096a84848484613822565b606061262382612a75565b600061263a60408051602081019091526000815290565b9050600081511161265a5760405180602001604052806000815250612685565b8061266484613855565b604051602001612675929190614c42565b6040516020818303038152906040525b9392505050565b6001600160a01b0391821660009081526101006020908152604080832093909416825291909152205460ff1690565b600080516020614f608339815191526001600160a01b037f0000000000000000000000000000000000000000000000000000000000000000166312d9a6ad82336040516001600160e01b031960e085901b16815260048101929092526001600160a01b0316602482015260440160006040518083038186803b15801561274057600080fd5b505afa158015612754573d6000803e3d6000fd5b505061012d80546001600160a01b0386166001600160a01b03199091168117909155604051908152600192507fb6bdbd44472629fc24a00b6f4ee3348b72c9eff333d0e9c16d78c49da1323c8f915060200160405180910390a25050565b60006127bc612fbe565b60006127c784613004565b905060018160038111156127dd576127dd614598565b14806127fa575060028160038111156127f8576127f8614598565b145b6128585760405162461bcd60e51b815260206004820152602960248201527f65546f6b656e206e6f7420666f756e64206f7220776974686472617773206e6f6044820152681d08185b1b1bddd95960ba1b60648201526084016108d5565b60003360405163f3fef3a360e01b81526001600160a01b038083166004830152602482018790529192509086169063f3fef3a3906044016020604051808303816000875af11580156128ae573d6000803e3d6000fd5b505050506040513d601f19601f820116820180604052508101906128d29190614aa1565b95945050505050565b6128e3612fbe565b610c796128f536849003840184614c25565b82612901576000612907565b83602001355b600061325f565b600054610100900460ff166129355760405162461bcd60e51b81526004016108d590614c71565b565b600054610100900460ff1661295e5760405162461bcd60e51b81526004016108d590614c71565b610c798282613956565b600054610100900460ff1661298f5760405162461bcd60e51b81526004016108d590614c71565b612935613996565b600054610100900460ff16158080156129b75750600054600160ff909116105b806129d15750303b1580156129d1575060005460ff166001145b6129ed5760405162461bcd60e51b81526004016108d59061496d565b6000805460ff191660011790558015612a10576000805461ff0019166101001790555b61012d80546001600160a01b0319166001600160a01b0384161790558015610c79576000805461ff0019169055604051600181527f7f26b83ff96e1f2b6a682f133852f6798a09c465da95921460cefb38474024989060200160405180910390a15050565b600081815260fd60205260409020546001600160a01b0316610bb95760405162461bcd60e51b8152602060048201526018602482015277115490cdcc8c4e881a5b9d985b1a59081d1bdad95b88125160421b60448201526064016108d5565b600081815260ff6020526040902080546001600160a01b0319166001600160a01b0384169081179091558190612b09826113ae565b6001600160a01b03167f8c5be1e5ebec7d5bd14f71427d1e84f3dd0314c0f7b2291e5b200ac8c7c3b92560405160405180910390a45050565b600080612b4e836113ae565b9050806001600160a01b0316846001600160a01b03161480612b755750612b75818561268c565b806119e95750836001600160a01b0316612b8e84610970565b6001600160a01b031614949350505050565b826001600160a01b0316612bb3826113ae565b6001600160a01b031614612c175760405162461bcd60e51b815260206004820152602560248201527f4552433732313a207472616e736665722066726f6d20696e636f72726563742060448201526437bbb732b960d91b60648201526084016108d5565b6001600160a01b038216612c795760405162461bcd60e51b8152602060048201526024808201527f4552433732313a207472616e7366657220746f20746865207a65726f206164646044820152637265737360e01b60648201526084016108d5565b612c848383836139c9565b612c8f600082612ad4565b6001600160a01b038316600090815260fe60205260408120805460019290612cb8908490614cbc565b90915550506001600160a01b038216600090815260fe60205260408120805460019290612ce6908490614b13565b9091555050600081815260fd602052604080822080546001600160a01b0319166001600160a01b0386811691821790925591518493918716917fddf252ad1be2c89b69c2b068fc378daa952ba7f163c4a11628f55a4df523b3ef91a4505050565b600080516020614fa7833981519152600080516020614f608339815191526001600160a01b037f00000000000000000000000000000000000000000000000000000000000000001663c5b8f5cf8383336040516001600160e01b031960e086901b168152600481019390935260248301919091526001600160a01b0316604482015260640160006040518083038186803b158015612de457600080fd5b505afa158015612df8573d6000803e3d6000fd5b50505050505050565b7f4910fdfa16fed3260ed0e7147f7cc6da11a60208b5b9406d12a635614ffd91435460ff1615612e3457610aa7836139d1565b826001600160a01b03166352d1902d6040518163ffffffff1660e01b8152600401602060405180830381865afa925050508015612e8e575060408051601f3d908101601f19168201909252612e8b91810190614aa1565b60015b612ef15760405162461bcd60e51b815260206004820152602e60248201527f45524331393637557067726164653a206e657720696d706c656d656e7461746960448201526d6f6e206973206e6f74205555505360901b60648201526084016108d5565b600080516020614f408339815191528114612f605760405162461bcd60e51b815260206004820152602960248201527f45524331393637557067726164653a20756e737570706f727465642070726f786044820152681a58589b195555525160ba1b60648201526084016108d5565b50610aa7838383613a6d565b612f74613a92565b6033805460ff191690557f5db9ee0a495bf2e6ff9c91a7834c1ba4fdd244a5e8aa4e537bd38aeae4b073aa335b6040516001600160a01b03909116815260200160405180910390a1565b60335460ff16156129355760405162461bcd60e51b815260206004820152601060248201526f14185d5cd8589b194e881c185d5cd95960821b60448201526064016108d5565b6001600160a01b038116600090815261012e6020526040812060018154610100900460ff16600381111561303a5761303a614598565b146130875760405162461bcd60e51b815260206004820152601a60248201527f436f6d706f6e656e74206973206e6f7420616e2065546f6b656e00000000000060448201526064016108d5565b5460ff1692915050565b604080516001600160a01b0385811660248301528416604482015260648082018490528251808303909101815260849091019091526020810180516001600160e01b03166323b872dd60e01b17905261096a908590613adb565b6001600160a01b038116600090815261012e6020526040812060028154610100900460ff16600381111561312157613121614598565b146130875760405162461bcd60e51b815260206004820152601d60248201527f436f6d706f6e656e74206973206e6f742061205269736b4d6f64756c6500000060448201526064016108d5565b6000816040516020016131819190614bfb565b604051602081830303815290604052805190602001209050919050565b6001600160a01b038116600090815261012e6020526040812060038154610100900460ff1660038111156131d4576131d4614598565b146130875760405162461bcd60e51b815260206004820152602260248201527f436f6d706f6e656e74206973206e6f742061205072656d69756d734163636f756044820152611b9d60f21b60648201526084016108d5565b6132368383613bad565b6132436000848484613cfb565b610aa75760405162461bcd60e51b81526004016108d590614ccf565b61326883613df9565b610160830151818061328257506001600160a01b03811633145b6132ce5760405162461bcd60e51b815260206004820181905260248201527f4f6e6c792074686520524d2063616e207265736f6c766520706f6c696369657360448201526064016108d5565b8215806132e6575042846101a0015164ffffffffff16115b6133325760405162461bcd60e51b815260206004820152601860248201527f43616e277420706179206578706972656420706f6c696379000000000000000060448201526064016108d5565b600061333d826130eb565b9050600181600381111561335357613353614598565b14806133705750600281600381111561336e5761336e614598565b145b6133e25760405162461bcd60e51b815260206004820152603a60248201527f4d6f64756c65206d75737420626520616374697665206f72206465707265636160448201527f74656420746f2070726f63657373207265736f6c7574696f6e7300000000000060648201526084016108d5565b846020015184111561342f5760405162461bcd60e51b81526020600482015260166024820152751c185e5bdd5d080f881c1bdb1a58de4b9c185e5bdd5d60521b60448201526064016108d5565b600080851190506000836001600160a01b03166373a952e86040518163ffffffff1660e01b8152600401602060405180830381865afa158015613476573d6000803e3d6000fd5b505050506040513d601f19601f8201168201806040525081019061349a9190614b26565b90506134a58161319e565b925060018360038111156134bb576134bb614598565b14806134d8575060028360038111156134d6576134d6614598565b145b6135565760405162461bcd60e51b815260206004820152604360248201527f5072656d69756d734163636f756e74206d75737420626520616374697665206f60448201527f72206465707265636174656420746f2070726f63657373207265736f6c7574696064820152626f6e7360e81b608482015260a4016108d5565b81156135d657600061356b88600001516113ae565b604051639d8c5ee760e01b81529091506001600160a01b03831690639d8c5ee79061359e9084908c908c90600401614d21565b600060405180830381600087803b1580156135b857600080fd5b505af11580156135cc573d6000803e3d6000fd5b5050505050613635565b60405163c7a9c70d60e01b81526001600160a01b0382169063c7a9c70d90613602908a90600401614bfb565b600060405180830381600087803b15801561361c57600080fd5b505af1158015613630573d6000803e3d6000fd5b505050505b6020870151604051636a448ef160e01b815260048101919091526001600160a01b03851690636a448ef190602401600060405180830381600087803b15801561367d57600080fd5b505af1158015613691573d6000803e3d6000fd5b5050505086600001518761016001516001600160a01b03167f54f4a270ea08f88dc23b2520d6b063fecb24d956c4496f447926d736338f545e886040516136da91815260200190565b60405180910390a38651600090815261012f6020526040812055851561370b5786516137069087613e60565b612df8565b8651612df890613fba565b61371e612fbe565b6033805460ff191660011790557f62e78cea01bee320cd4e420270b5ea74000d11b0c9f74754ebdbfc544b05a258612fa13390565b816001600160a01b0316836001600160a01b0316036137b45760405162461bcd60e51b815260206004820152601960248201527f4552433732313a20617070726f766520746f2063616c6c65720000000000000060448201526064016108d5565b6001600160a01b0383811660008181526101006020908152604080832094871680845294825291829020805460ff191686151590811790915591519182527f17307eab39ab6107e8899845ad3d59bd9653f200f220920489ca2b5937696c31910160405180910390a3505050565b61382d848484612ba0565b61383984848484613cfb565b61096a5760405162461bcd60e51b81526004016108d590614ccf565b60608160000361387c5750506040805180820190915260018152600360fc1b602082015290565b8160005b81156138a6578061389081614d4e565b915061389f9050600a83614d7d565b9150613880565b60008167ffffffffffffffff8111156138c1576138c161439b565b6040519080825280601f01601f1916602001820160405280156138eb576020820181803683370190505b5090505b84156119e957613900600183614cbc565b915061390d600a86614d91565b613918906030614b13565b60f81b81838151811061392d5761392d614da5565b60200101906001600160f81b031916908160001a90535061394f600a86614d7d565b94506138ef565b600054610100900460ff1661397d5760405162461bcd60e51b81526004016108d590614c71565b60fb6139898382614e09565b5060fc610aa78282614e09565b600054610100900460ff166139bd5760405162461bcd60e51b81526004016108d590614c71565b6033805460ff19169055565b610aa7612fbe565b6001600160a01b0381163b613a3e5760405162461bcd60e51b815260206004820152602d60248201527f455243313936373a206e657720696d706c656d656e746174696f6e206973206e60448201526c1bdd08184818dbdb9d1c9858dd609a1b60648201526084016108d5565b600080516020614f4083398151915280546001600160a01b0319166001600160a01b0392909216919091179055565b613a7683614061565b600082511180613a835750805b15610aa75761096a83836140a1565b60335460ff166129355760405162461bcd60e51b815260206004820152601460248201527314185d5cd8589b194e881b9bdd081c185d5cd95960621b60448201526064016108d5565b6000613b30826040518060400160405280602081526020017f5361666545524332303a206c6f772d6c6576656c2063616c6c206661696c6564815250856001600160a01b031661418c9092919063ffffffff16565b805190915015610aa75780806020019051810190613b4e9190614aba565b610aa75760405162461bcd60e51b815260206004820152602a60248201527f5361666545524332303a204552433230206f7065726174696f6e20646964206e6044820152691bdd081cdd58d8d9595960b21b60648201526084016108d5565b6001600160a01b038216613c035760405162461bcd60e51b815260206004820181905260248201527f4552433732313a206d696e7420746f20746865207a65726f206164647265737360448201526064016108d5565b600081815260fd60205260409020546001600160a01b031615613c685760405162461bcd60e51b815260206004820152601c60248201527f4552433732313a20746f6b656e20616c7265616479206d696e7465640000000060448201526064016108d5565b613c74600083836139c9565b6001600160a01b038216600090815260fe60205260408120805460019290613c9d908490614b13565b9091555050600081815260fd602052604080822080546001600160a01b0319166001600160a01b03861690811790915590518392907fddf252ad1be2c89b69c2b068fc378daa952ba7f163c4a11628f55a4df523b3ef908290a45050565b60006001600160a01b0384163b15613df157604051630a85bd0160e11b81526001600160a01b0385169063150b7a0290613d3f903390899088908890600401614ec9565b6020604051808303816000875af1925050508015613d7a575060408051601f3d908101601f19168201909252613d7791810190614f06565b60015b613dd7573d808015613da8576040519150601f19603f3d011682016040523d82523d6000602084013e613dad565b606091505b508051600003613dcf5760405162461bcd60e51b81526004016108d590614ccf565b805181602001fd5b6001600160e01b031916630a85bd0160e11b1490506119e9565b5060016119e9565b805115801590613e2157508051600090815261012f6020526040902054613e1f8261316e565b145b610bb95760405162461bcd60e51b815260206004820152601060248201526f141bdb1a58de481b9bdd08199bdd5b9960821b60448201526064016108d5565b6000613e6b836113ae565b90506001600160a01b0381163b613e8157505050565b6001600160a01b03811663d6281d3e336040516001600160e01b031960e084901b1681526001600160a01b03909116600482015230602482015260448101869052606481018590526084016020604051808303816000875af1925050508015613f07575060408051601f3d908101601f19168201909252613f0491810190614f06565b60015b613f4a573d808015613f35576040519150601f19603f3d011682016040523d82523d6000602084013e613f3a565b606091505b508051600003613dcf5750505050565b6001600160e01b03198116636b140e9f60e11b1461096a5760405162461bcd60e51b815260206004820152602760248201527f496e76616c69642072657475726e2076616c75652066726f6d20506f6c696379604482015266102437b63232b960c91b60648201526084016108d5565b6000613fc5826113ae565b90506001600160a01b0381163b613fda575050565b6001600160a01b03811663e8e617b7336040516001600160e01b031960e084901b1681526001600160a01b039091166004820152306024820152604481018590526064016020604051808303816000875af1925050508015614059575060408051601f3d908101601f1916820190925261405691810190614f06565b60015b610aa7575050565b61406a816139d1565b6040516001600160a01b038216907fbc7cd75a20ee27fd9adebab32041f755214dbc6bffa90cc0225b39da2e5c2d3b90600090a250565b60606001600160a01b0383163b6141095760405162461bcd60e51b815260206004820152602660248201527f416464726573733a2064656c65676174652063616c6c20746f206e6f6e2d636f6044820152651b9d1c9858dd60d21b60648201526084016108d5565b600080846001600160a01b0316846040516141249190614f23565b600060405180830381855af49150503d806000811461415f576040519150601f19603f3d011682016040523d82523d6000602084013e614164565b606091505b50915091506128d28282604051806060016040528060278152602001614f806027913961419b565b60606119e984846000856141d4565b606083156141aa575081612685565b8251156141ba5782518084602001fd5b8160405162461bcd60e51b81526004016108d59190614388565b6060824710156142355760405162461bcd60e51b815260206004820152602660248201527f416464726573733a20696e73756666696369656e742062616c616e636520666f6044820152651c8818d85b1b60d21b60648201526084016108d5565b6001600160a01b0385163b61428c5760405162461bcd60e51b815260206004820152601d60248201527f416464726573733a2063616c6c20746f206e6f6e2d636f6e747261637400000060448201526064016108d5565b600080866001600160a01b031685876040516142a89190614f23565b60006040518083038185875af1925050503d80600081146142e5576040519150601f19603f3d011682016040523d82523d6000602084013e6142ea565b606091505b50915091506142fa82828661419b565b979650505050505050565b6001600160e01b031981168114610bb957600080fd5b60006020828403121561432d57600080fd5b813561268581614305565b60005b8381101561435357818101518382015260200161433b565b50506000910152565b60008151808452614374816020860160208601614338565b601f01601f19169290920160200192915050565b602081526000612685602083018461435c565b634e487b7160e01b600052604160045260246000fd5b6040516101c0810167ffffffffffffffff811182821017156143d5576143d561439b565b60405290565b600082601f8301126143ec57600080fd5b813567ffffffffffffffff808211156144075761440761439b565b604051601f8301601f19908116603f0116810190828211818310171561442f5761442f61439b565b8160405283815286602085880101111561444857600080fd5b836020870160208301376000602085830101528094505050505092915050565b6001600160a01b0381168114610bb957600080fd5b60008060006060848603121561449257600080fd5b833567ffffffffffffffff808211156144aa57600080fd5b6144b6878388016143db565b945060208601359150808211156144cc57600080fd5b506144d9868287016143db565b92505060408401356144ea81614468565b809150509250925092565b60006020828403121561450757600080fd5b5035919050565b6000806040838503121561452157600080fd5b823561452c81614468565b946020939093013593505050565b60008060006060848603121561454f57600080fd5b833561455a81614468565b9250602084013561456a81614468565b929592945050506040919091013590565b60006020828403121561458d57600080fd5b813561268581614468565b634e487b7160e01b600052602160045260246000fd5b60048110610bb957634e487b7160e01b600052602160045260246000fd5b602081016145d9836145ae565b91905290565b600080604083850312156145f257600080fd5b82356145fd81614468565b9150602083013567ffffffffffffffff81111561461957600080fd5b614625858286016143db565b9150509250929050565b60048110610bb957600080fd5b6000806040838503121561464f57600080fd5b823561465a81614468565b9150602083013561466a8161462f565b809150509250929050565b803561468081614468565b919050565b803564ffffffffff8116811461468057600080fd5b60006101c082840312156146ad57600080fd5b6146b56143b1565b9050813581526020820135602082015260408201356040820152606082013560608201526080820135608082015260a082013560a082015260c082013560c082015260e082013560e0820152610100808301358183015250610120808301358183015250610140808301358183015250610160614733818401614675565b90820152610180614745838201614685565b908201526101a0614757838201614685565b9082015292915050565b600080600080610220858703121561477857600080fd5b614782868661469a565b93506101c085013561479381614468565b92506101e08501356147a481614468565b91506102008501356bffffffffffffffffffffffff811681146147c657600080fd5b939692955090935050565b60006101c082840312156147e457600080fd5b50919050565b60006101c082840312156147fd57600080fd5b61268583836147d1565b6000806101e0838503121561481b57600080fd5b61482584846147d1565b946101c0939093013593505050565b8015158114610bb957600080fd5b6000806040838503121561485557600080fd5b823561486081614468565b9150602083013561466a81614834565b6000806000806080858703121561488657600080fd5b843561489181614468565b935060208501356148a181614468565b925060408501359150606085013567ffffffffffffffff8111156148c457600080fd5b6148d0878288016143db565b91505092959194509250565b600080604083850312156148ef57600080fd5b82356148fa81614468565b9150602083013561466a81614468565b6000806101e0838503121561491e57600080fd5b61492884846147d1565b91506101c083013561466a81614834565b600181811c9082168061494d57607f821691505b6020821081036147e457634e487b7160e01b600052602260045260246000fd5b6020808252602e908201527f496e697469616c697a61626c653a20636f6e747261637420697320616c72656160408201526d191e481a5b9a5d1a585b1a5e995960921b606082015260800190565b6020808252602e908201527f4552433732313a2063616c6c6572206973206e6f7420746f6b656e206f776e6560408201526d1c881b9bdc88185c1c1c9bdd995960921b606082015260800190565b6020808252602c908201527f46756e6374696f6e206d7573742062652063616c6c6564207468726f7567682060408201526b19195b1959d85d1958d85b1b60a21b606082015260800190565b6020808252602c908201527f46756e6374696f6e206d7573742062652063616c6c6564207468726f7567682060408201526b6163746976652070726f787960a01b606082015260800190565b600060208284031215614ab357600080fd5b5051919050565b600060208284031215614acc57600080fd5b815161268581614834565b60408101614ae4846145ae565b838252614af0836145ae565b8260208301529392505050565b634e487b7160e01b600052601160045260246000fd5b808201808211156107e7576107e7614afd565b600060208284031215614b3857600080fd5b815161268581614468565b805182526020810151602083015260408101516040830152606081015160608301526080810151608083015260a081015160a083015260c081015160c083015260e081015160e083015261010080820151818401525061012080820151818401525061014080820151818401525061016080820151614bcc828501826001600160a01b03169052565b50506101808181015164ffffffffff81168483015250506101a08181015164ffffffffff81168483015261096a565b6101c081016107e78284614b43565b600060208284031215614c1c57600080fd5b61268582614685565b60006101c08284031215614c3857600080fd5b612685838361469a565b60008351614c54818460208801614338565b835190830190614c68818360208801614338565b01949350505050565b6020808252602b908201527f496e697469616c697a61626c653a20636f6e7472616374206973206e6f74206960408201526a6e697469616c697a696e6760a81b606082015260800190565b818103818111156107e7576107e7614afd565b60208082526032908201527f4552433732313a207472616e7366657220746f206e6f6e20455243373231526560408201527131b2b4bb32b91034b6b83632b6b2b73a32b960711b606082015260800190565b6001600160a01b03841681526102008101614d3f6020830185614b43565b826101e0830152949350505050565b600060018201614d6057614d60614afd565b5060010190565b634e487b7160e01b600052601260045260246000fd5b600082614d8c57614d8c614d67565b500490565b600082614da057614da0614d67565b500690565b634e487b7160e01b600052603260045260246000fd5b601f821115610aa757600081815260208120601f850160051c81016020861015614de25750805b601f850160051c820191505b81811015614e0157828155600101614dee565b505050505050565b815167ffffffffffffffff811115614e2357614e2361439b565b614e3781614e318454614939565b84614dbb565b602080601f831160018114614e6c5760008415614e545750858301515b600019600386901b1c1916600185901b178555614e01565b600085815260208120601f198616915b82811015614e9b57888601518255948401946001909101908401614e7c565b5085821015614eb95787850151600019600388901b60f8161c191681555b5050505050600190811b01905550565b6001600160a01b0385811682528416602082015260408101839052608060608201819052600090614efc9083018461435c565b9695505050505050565b600060208284031215614f1857600080fd5b815161268581614305565b60008251614f35818460208701614338565b919091019291505056fe360894a13ba1a3210667c828492db98dca3e2076cc3735a920a3ca505d382bbcbf372ca3ebecfe59ac256f17697941bbe63302aced610e8b0e3646f743c7beb2416464726573733a206c6f772d6c6576656c2064656c65676174652063616c6c206661696c656455435dd261a4b9b3364963f7738a7a662ad9c84396d64be3365284bb7f0a5041a26469706673582212201e3a01964b43e0c765f3a1ca835c522b291b2fc8ae4bd887ba9c05aa9490273764736f6c63430008100033",
  "linkReferences": {},
  "deployedLinkReferences": {}
}