{
  "_format": "hh-sol-artifact-1",
  "contractName": "LPManualWhitelist",
  "sourceName": "contracts/LPManualWhitelist.sol",
  "abi": [
    {
      "inputs": [
        {
          "internalType": "contract IPolicyPool",
          "name": "policyPool_",
          "type": "address"
        }
      ],
      "stateMutability": "nonpayable",
      "type": "constructor"
    },
    {
      "anonymous": false,
      "inputs": [
        {
          "indexed": false,
          "internalType": "address",
          "name": "previousAdmin",
          "type": "address"
        },
        {
          "indexed": false,
          "internalType": "address",
          "name": "newAdmin",
          "type": "address"
        }
      ],
      "name": "AdminChanged",
      "type": "event"
    },
    {
      "anonymous": false,
      "inputs": [
        {
          "indexed": true,
          "internalType": "address",
          "name": "beacon",
          "type": "address"
        }
      ],
      "name": "BeaconUpgraded",
      "type": "event"
    },
    {
      "anonymous": false,
      "inputs": [
        {
          "indexed": true,
          "internalType": "enum IAccessManager.GovernanceActions",
          "name": "action",
          "type": "uint8"
        },
        {
          "indexed": false,
          "internalType": "address",
          "name": "value",
          "type": "address"
        }
      ],
      "name": "ComponentChanged",
      "type": "event"
    },
    {
      "anonymous": false,
      "inputs": [
        {
          "indexed": true,
          "internalType": "enum IAccessManager.GovernanceActions",
          "name": "action",
          "type": "uint8"
        },
        {
          "indexed": false,
          "internalType": "uint256",
          "name": "value",
          "type": "uint256"
        }
      ],
      "name": "GovernanceAction",
      "type": "event"
    },
    {
      "anonymous": false,
      "inputs": [
        {
          "indexed": false,
          "internalType": "uint8",
          "name": "version",
          "type": "uint8"
        }
      ],
      "name": "Initialized",
      "type": "event"
    },
    {
      "anonymous": false,
      "inputs": [
        {
          "indexed": false,
          "internalType": "address",
          "name": "provider",
          "type": "address"
        },
        {
          "indexed": false,
          "internalType": "bool",
          "name": "whitelisted",
          "type": "bool"
        }
      ],
      "name": "LPWhitelisted",
      "type": "event"
    },
    {
      "anonymous": false,
      "inputs": [
        {
          "indexed": false,
          "internalType": "address",
          "name": "account",
          "type": "address"
        }
      ],
      "name": "Paused",
      "type": "event"
    },
    {
      "anonymous": false,
      "inputs": [
        {
          "indexed": false,
          "internalType": "address",
          "name": "account",
          "type": "address"
        }
      ],
      "name": "Unpaused",
      "type": "event"
    },
    {
      "anonymous": false,
      "inputs": [
        {
          "indexed": true,
          "internalType": "address",
          "name": "implementation",
          "type": "address"
        }
      ],
      "name": "Upgraded",
      "type": "event"
    },
    {
      "inputs": [],
      "name": "GUARDIAN_ROLE",
      "outputs": [
        {
          "internalType": "bytes32",
          "name": "",
          "type": "bytes32"
        }
      ],
      "stateMutability": "view",
      "type": "function"
    },
    {
      "inputs": [],
      "name": "LEVEL1_ROLE",
      "outputs": [
        {
          "internalType": "bytes32",
          "name": "",
          "type": "bytes32"
        }
      ],
      "stateMutability": "view",
      "type": "function"
    },
    {
      "inputs": [],
      "name": "LEVEL2_ROLE",
      "outputs": [
        {
          "internalType": "bytes32",
          "name": "",
          "type": "bytes32"
        }
      ],
      "stateMutability": "view",
      "type": "function"
    },
    {
      "inputs": [],
      "name": "LEVEL3_ROLE",
      "outputs": [
        {
          "internalType": "bytes32",
          "name": "",
          "type": "bytes32"
        }
      ],
      "stateMutability": "view",
      "type": "function"
    },
    {
      "inputs": [],
      "name": "LP_WHITELIST_ROLE",
      "outputs": [
        {
          "internalType": "bytes32",
          "name": "",
          "type": "bytes32"
        }
      ],
      "stateMutability": "view",
      "type": "function"
    },
    {
      "inputs": [],
      "name": "TWEAK_EXPIRATION",
      "outputs": [
        {
          "internalType": "uint40",
          "name": "",
          "type": "uint40"
        }
      ],
      "stateMutability": "view",
      "type": "function"
    },
    {
      "inputs": [
        {
          "internalType": "contract IEToken",
          "name": "",
          "type": "address"
        },
        {
          "internalType": "address",
          "name": "provider",
          "type": "address"
        },
        {
          "internalType": "uint256",
          "name": "",
          "type": "uint256"
        }
      ],
      "name": "acceptsDeposit",
      "outputs": [
        {
          "internalType": "bool",
          "name": "",
          "type": "bool"
        }
      ],
      "stateMutability": "view",
      "type": "function"
    },
    {
      "inputs": [
        {
          "internalType": "contract IEToken",
          "name": "",
          "type": "address"
        },
        {
          "internalType": "address",
          "name": "",
          "type": "address"
        },
        {
          "internalType": "address",
          "name": "providerTo",
          "type": "address"
        },
        {
          "internalType": "uint256",
          "name": "",
          "type": "uint256"
        }
      ],
      "name": "acceptsTransfer",
      "outputs": [
        {
          "internalType": "bool",
          "name": "",
          "type": "bool"
        }
      ],
      "stateMutability": "view",
      "type": "function"
    },
    {
      "inputs": [],
      "name": "currency",
      "outputs": [
        {
          "internalType": "contract IERC20Metadata",
          "name": "",
          "type": "address"
        }
      ],
      "stateMutability": "view",
      "type": "function"
    },
    {
      "inputs": [],
      "name": "initialize",
      "outputs": [],
      "stateMutability": "nonpayable",
      "type": "function"
    },
    {
      "inputs": [],
      "name": "lastTweak",
      "outputs": [
        {
          "internalType": "uint40",
          "name": "",
          "type": "uint40"
        },
        {
          "internalType": "uint56",
          "name": "",
          "type": "uint56"
        }
      ],
      "stateMutability": "view",
      "type": "function"
    },
    {
      "inputs": [],
      "name": "pause",
      "outputs": [],
      "stateMutability": "nonpayable",
      "type": "function"
    },
    {
      "inputs": [],
      "name": "paused",
      "outputs": [
        {
          "internalType": "bool",
          "name": "",
          "type": "bool"
        }
      ],
      "stateMutability": "view",
      "type": "function"
    },
    {
      "inputs": [],
      "name": "policyPool",
      "outputs": [
        {
          "internalType": "contract IPolicyPool",
          "name": "",
          "type": "address"
        }
      ],
      "stateMutability": "view",
      "type": "function"
    },
    {
      "inputs": [],
      "name": "proxiableUUID",
      "outputs": [
        {
          "internalType": "bytes32",
          "name": "",
          "type": "bytes32"
        }
      ],
      "stateMutability": "view",
      "type": "function"
    },
    {
      "inputs": [],
      "name": "unpause",
      "outputs": [],
      "stateMutability": "nonpayable",
      "type": "function"
    },
    {
      "inputs": [
        {
          "internalType": "address",
          "name": "newImplementation",
          "type": "address"
        }
      ],
      "name": "upgradeTo",
      "outputs": [],
      "stateMutability": "nonpayable",
      "type": "function"
    },
    {
      "inputs": [
        {
          "internalType": "address",
          "name": "newImplementation",
          "type": "address"
        },
        {
          "internalType": "bytes",
          "name": "data",
          "type": "bytes"
        }
      ],
      "name": "upgradeToAndCall",
      "outputs": [],
      "stateMutability": "payable",
      "type": "function"
    },
    {
      "inputs": [
        {
          "internalType": "address",
          "name": "provider",
          "type": "address"
        },
        {
          "internalType": "bool",
          "name": "whitelisted",
          "type": "bool"
        }
      ],
      "name": "whitelistAddress",
      "outputs": [],
      "stateMutability": "nonpayable",
      "type": "function"
    }
  ],
  "bytecode": "0x60c06040523060805234801561001457600080fd5b506040516118ed3803806118ed83398101604081905261003391610044565b6001600160a01b031660a052610074565b60006020828403121561005657600080fd5b81516001600160a01b038116811461006d57600080fd5b9392505050565b60805160a05161180e6100df600039600081816102340152818161054f015281816108b0015281816109da01528181610b4101528181610bf80152610cf601526000818161041b0152818161046401528181610661015281816106a10152610730015261180e6000f3fe6080604052600436106101145760003560e01c80635b494dd5116100a05780638456cb59116100645780638456cb591461035f578063aad4148c14610374578063b9a45aac146103a8578063e5a6b10f146103c8578063f67b2bad146103dd57600080fd5b80635b494dd5146102945780635c975abb146102c85780635fcdca37146102e05780637ed5acfa1461031d5780638129fc1c1461034a57600080fd5b8063468a8c9f116100e7578063468a8c9f146101b55780634a47a3e0146101f15780634d15eb03146102255780634f1ef2861461026c57806352d1902d1461027f57600080fd5b806324ea54f4146101195780633659cfe61461014e57806337ee20dd146101705780633f4ba83a146101a0575b600080fd5b34801561012557600080fd5b5061013b6000805160206117b983398151915281565b6040519081526020015b60405180910390f35b34801561015a57600080fd5b5061016e6101693660046113d0565b610411565b005b34801561017c57600080fd5b5061019061018b3660046113ed565b6104f9565b6040519015158152602001610145565b3480156101ac57600080fd5b5061016e61051d565b3480156101c157600080fd5b5060c9546040805164ffffffffff831681526501000000000090920466ffffffffffffff16602083015201610145565b3480156101fd57600080fd5b5061013b7fa82e22387fca439f316d78ca566f383218ab8ae1b3e830178c9c82cbd16749c081565b34801561023157600080fd5b507f00000000000000000000000000000000000000000000000000000000000000005b6040516001600160a01b039091168152602001610145565b61016e61027a366004611444565b610657565b34801561028b57600080fd5b5061013b610723565b3480156102a057600080fd5b5061013b7f5ec196419322369c6bac572d883f4d990ae5ec82f7d93cdf89b85dbb05b63c2781565b3480156102d457600080fd5b5060975460ff16610190565b3480156102ec57600080fd5b506101906102fb366004611508565b506001600160a01b0316600090815260ca602052604090205460ff1692915050565b34801561032957600080fd5b506103346201518081565b60405164ffffffffff9091168152602001610145565b34801561035657600080fd5b5061016e6107d6565b34801561036b57600080fd5b5061016e61089f565b34801561038057600080fd5b5061013b7fb494869573b0a0ce9caac5394e1d0d255d146ec7e2d30d643a4e1d78980f323581565b3480156103b457600080fd5b5061016e6103c3366004611559565b6109b7565b3480156103d457600080fd5b50610254610b3d565b3480156103e957600080fd5b5061013b7fbf372ca3ebecfe59ac256f17697941bbe63302aced610e8b0e3646f743c7beb281565b6001600160a01b037f00000000000000000000000000000000000000000000000000000000000000001630036104625760405162461bcd60e51b815260040161045990611597565b60405180910390fd5b7f00000000000000000000000000000000000000000000000000000000000000006001600160a01b03166104ab600080516020611772833981519152546001600160a01b031690565b6001600160a01b0316146104d15760405162461bcd60e51b8152600401610459906115e3565b6104da81610bc6565b604080516000808252602082019092526104f691839190610dea565b50565b6001600160a01b038216600090815260ca602052604090205460ff165b9392505050565b6000805160206117b98339815191527fbf372ca3ebecfe59ac256f17697941bbe63302aced610e8b0e3646f743c7beb27f00000000000000000000000000000000000000000000000000000000000000006001600160a01b03166371907f176040518163ffffffff1660e01b8152600401602060405180830381865afa1580156105ab573d6000803e3d6000fd5b505050506040513d601f19601f820116820180604052508101906105cf919061162f565b60408051632b1cff1f60e01b815230600482015260248101859052604481018490523360648201526001608482015290516001600160a01b039290921691632b1cff1f9160a480820192600092909190829003018186803b15801561063357600080fd5b505afa158015610647573d6000803e3d6000fd5b50505050610653610f55565b5050565b6001600160a01b037f000000000000000000000000000000000000000000000000000000000000000016300361069f5760405162461bcd60e51b815260040161045990611597565b7f00000000000000000000000000000000000000000000000000000000000000006001600160a01b03166106e8600080516020611772833981519152546001600160a01b031690565b6001600160a01b03161461070e5760405162461bcd60e51b8152600401610459906115e3565b61071782610bc6565b61065382826001610dea565b6000306001600160a01b037f000000000000000000000000000000000000000000000000000000000000000016146107c35760405162461bcd60e51b815260206004820152603860248201527f555550535570677261646561626c653a206d757374206e6f742062652063616c60448201527f6c6564207468726f7567682064656c656761746563616c6c00000000000000006064820152608401610459565b5060008051602061177283398151915290565b600054610100900460ff16158080156107f65750600054600160ff909116105b806108105750303b158015610810575060005460ff166001145b61082c5760405162461bcd60e51b81526004016104599061164c565b6000805460ff19166001179055801561084f576000805461ff0019166101001790555b610857610fa7565b80156104f6576000805461ff0019169055604051600181527f7f26b83ff96e1f2b6a682f133852f6798a09c465da95921460cefb38474024989060200160405180910390a150565b6000805160206117b98339815191527f00000000000000000000000000000000000000000000000000000000000000006001600160a01b03166371907f176040518163ffffffff1660e01b8152600401602060405180830381865afa15801561090c573d6000803e3d6000fd5b505050506040513d601f19601f82011682018060405250810190610930919061162f565b6001600160a01b0316635ff57d2030833360405160e085901b6001600160e01b03191681526001600160a01b039384166004820152602481019290925290911660448201526001606482015260840160006040518083038186803b15801561099757600080fd5b505afa1580156109ab573d6000803e3d6000fd5b505050506104f6611030565b7fb494869573b0a0ce9caac5394e1d0d255d146ec7e2d30d643a4e1d78980f32357f00000000000000000000000000000000000000000000000000000000000000006001600160a01b03166371907f176040518163ffffffff1660e01b8152600401602060405180830381865afa158015610a36573d6000803e3d6000fd5b505050506040513d601f19601f82011682018060405250810190610a5a919061162f565b6001600160a01b0316635ff57d2030833360405160e085901b6001600160e01b03191681526001600160a01b039384166004820152602481019290925290911660448201526000606482015260840160006040518083038186803b158015610ac157600080fd5b505afa158015610ad5573d6000803e3d6000fd5b505050506001600160a01b038316600081815260ca6020908152604091829020805460ff19168615159081179091558251938452908301527f8ef34cf5cfaa6ce2f80f1ba2912749c912a8b07c4fb8e9949e928e7cb592918f910160405180910390a1505050565b60007f00000000000000000000000000000000000000000000000000000000000000006001600160a01b031663e5a6b10f6040518163ffffffff1660e01b8152600401602060405180830381865afa158015610b9d573d6000803e3d6000fd5b505050506040513d601f19601f82011682018060405250810190610bc1919061162f565b905090565b6000805160206117b98339815191527fbf372ca3ebecfe59ac256f17697941bbe63302aced610e8b0e3646f743c7beb27f00000000000000000000000000000000000000000000000000000000000000006001600160a01b03166371907f176040518163ffffffff1660e01b8152600401602060405180830381865afa158015610c54573d6000803e3d6000fd5b505050506040513d601f19601f82011682018060405250810190610c78919061162f565b60408051632b1cff1f60e01b815230600482015260248101859052604481018490523360648201526001608482015290516001600160a01b039290921691632b1cff1f9160a480820192600092909190829003018186803b158015610cdc57600080fd5b505afa158015610cf0573d6000803e3d6000fd5b505050507f00000000000000000000000000000000000000000000000000000000000000006001600160a01b0316836001600160a01b0316634d15eb036040518163ffffffff1660e01b8152600401602060405180830381865afa158015610d5c573d6000803e3d6000fd5b505050506040513d601f19601f82011682018060405250810190610d80919061162f565b6001600160a01b031614610de55760405162461bcd60e51b815260206004820152602660248201527f43616e27742075706772616465206368616e67696e672074686520506f6c696360448201526579506f6f6c2160d01b6064820152608401610459565b505050565b7f4910fdfa16fed3260ed0e7147f7cc6da11a60208b5b9406d12a635614ffd91435460ff1615610e1d57610de58361106d565b826001600160a01b03166352d1902d6040518163ffffffff1660e01b8152600401602060405180830381865afa925050508015610e77575060408051601f3d908101601f19168201909252610e749181019061169a565b60015b610eda5760405162461bcd60e51b815260206004820152602e60248201527f45524331393637557067726164653a206e657720696d706c656d656e7461746960448201526d6f6e206973206e6f74205555505360901b6064820152608401610459565b6000805160206117728339815191528114610f495760405162461bcd60e51b815260206004820152602960248201527f45524331393637557067726164653a20756e737570706f727465642070726f786044820152681a58589b195555525160ba1b6064820152608401610459565b50610de5838383611109565b610f5d611134565b6097805460ff191690557f5db9ee0a495bf2e6ff9c91a7834c1ba4fdd244a5e8aa4e537bd38aeae4b073aa335b6040516001600160a01b03909116815260200160405180910390a1565b600054610100900460ff1615808015610fc75750600054600160ff909116105b80610fe15750303b158015610fe1575060005460ff166001145b610ffd5760405162461bcd60e51b81526004016104599061164c565b6000805460ff191660011790558015611020576000805461ff0019166101001790555b61102861117f565b6108576111a6565b6110386111d5565b6097805460ff191660011790557f62e78cea01bee320cd4e420270b5ea74000d11b0c9f74754ebdbfc544b05a258610f8a3390565b6001600160a01b0381163b6110da5760405162461bcd60e51b815260206004820152602d60248201527f455243313936373a206e657720696d706c656d656e746174696f6e206973206e60448201526c1bdd08184818dbdb9d1c9858dd609a1b6064820152608401610459565b60008051602061177283398151915280546001600160a01b0319166001600160a01b0392909216919091179055565b6111128361121b565b60008251118061111f5750805b15610de55761112e838361125b565b50505050565b60975460ff1661117d5760405162461bcd60e51b815260206004820152601460248201527314185d5cd8589b194e881b9bdd081c185d5cd95960621b6044820152606401610459565b565b600054610100900460ff1661117d5760405162461bcd60e51b8152600401610459906116b3565b600054610100900460ff166111cd5760405162461bcd60e51b8152600401610459906116b3565b61117d61134f565b60975460ff161561117d5760405162461bcd60e51b815260206004820152601060248201526f14185d5cd8589b194e881c185d5cd95960821b6044820152606401610459565b6112248161106d565b6040516001600160a01b038216907fbc7cd75a20ee27fd9adebab32041f755214dbc6bffa90cc0225b39da2e5c2d3b90600090a250565b60606001600160a01b0383163b6112c35760405162461bcd60e51b815260206004820152602660248201527f416464726573733a2064656c65676174652063616c6c20746f206e6f6e2d636f6044820152651b9d1c9858dd60d21b6064820152608401610459565b600080846001600160a01b0316846040516112de9190611722565b600060405180830381855af49150503d8060008114611319576040519150601f19603f3d011682016040523d82523d6000602084013e61131e565b606091505b5091509150611346828260405180606001604052806027815260200161179260279139611382565b95945050505050565b600054610100900460ff166113765760405162461bcd60e51b8152600401610459906116b3565b6097805460ff19169055565b60608315611391575081610516565b8251156113a15782518084602001fd5b8160405162461bcd60e51b8152600401610459919061173e565b6001600160a01b03811681146104f657600080fd5b6000602082840312156113e257600080fd5b8135610516816113bb565b60008060006060848603121561140257600080fd5b833561140d816113bb565b9250602084013561141d816113bb565b929592945050506040919091013590565b634e487b7160e01b600052604160045260246000fd5b6000806040838503121561145757600080fd5b8235611462816113bb565b9150602083013567ffffffffffffffff8082111561147f57600080fd5b818501915085601f83011261149357600080fd5b8135818111156114a5576114a561142e565b604051601f8201601f19908116603f011681019083821181831017156114cd576114cd61142e565b816040528281528860208487010111156114e657600080fd5b8260208601602083013760006020848301015280955050505050509250929050565b6000806000806080858703121561151e57600080fd5b8435611529816113bb565b93506020850135611539816113bb565b92506040850135611549816113bb565b9396929550929360600135925050565b6000806040838503121561156c57600080fd5b8235611577816113bb565b91506020830135801515811461158c57600080fd5b809150509250929050565b6020808252602c908201527f46756e6374696f6e206d7573742062652063616c6c6564207468726f7567682060408201526b19195b1959d85d1958d85b1b60a21b606082015260800190565b6020808252602c908201527f46756e6374696f6e206d7573742062652063616c6c6564207468726f7567682060408201526b6163746976652070726f787960a01b606082015260800190565b60006020828403121561164157600080fd5b8151610516816113bb565b6020808252602e908201527f496e697469616c697a61626c653a20636f6e747261637420697320616c72656160408201526d191e481a5b9a5d1a585b1a5e995960921b606082015260800190565b6000602082840312156116ac57600080fd5b5051919050565b6020808252602b908201527f496e697469616c697a61626c653a20636f6e7472616374206973206e6f74206960408201526a6e697469616c697a696e6760a81b606082015260800190565b60005b83811015611719578181015183820152602001611701565b50506000910152565b600082516117348184602087016116fe565b9190910192915050565b602081526000825180602084015261175d8160408501602087016116fe565b601f01601f1916919091016040019291505056fe360894a13ba1a3210667c828492db98dca3e2076cc3735a920a3ca505d382bbc416464726573733a206c6f772d6c6576656c2064656c65676174652063616c6c206661696c656455435dd261a4b9b3364963f7738a7a662ad9c84396d64be3365284bb7f0a5041a26469706673582212206c8e6d04062c80ea3821068402e8d9938113d9275197f270b05d7d1b1b50441b64736f6c63430008100033",
  "linkReferences": {},
  "deployedLinkReferences": {}
}