{
  "_format": "hh-sol-artifact-1",
  "contractName": "PremiumsAccount",
  "sourceName": "contracts/PremiumsAccount.sol",
  "abi": [
    {
      "inputs": [
        {
          "internalType": "contract IPolicyPool",
          "name": "policyPool_",
          "type": "address"
        },
        {
          "internalType": "contract IEToken",
          "name": "juniorEtk_",
          "type": "address"
        },
        {
          "internalType": "contract IEToken",
          "name": "seniorEtk_",
          "type": "address"
        }
      ],
      "stateMutability": "nonpayable",
      "type": "constructor"
    },
    {
      "anonymous": false,
      "inputs": [
        {
          "indexed": false,
          "internalType": "address",
          "name": "previousAdmin",
          "type": "address"
        },
        {
          "indexed": false,
          "internalType": "address",
          "name": "newAdmin",
          "type": "address"
        }
      ],
      "name": "AdminChanged",
      "type": "event"
    },
    {
      "anonymous": false,
      "inputs": [
        {
          "indexed": true,
          "internalType": "address",
          "name": "beacon",
          "type": "address"
        }
      ],
      "name": "BeaconUpgraded",
      "type": "event"
    },
    {
      "anonymous": false,
      "inputs": [
        {
          "indexed": true,
          "internalType": "enum IAccessManager.GovernanceActions",
          "name": "action",
          "type": "uint8"
        },
        {
          "indexed": false,
          "internalType": "address",
          "name": "value",
          "type": "address"
        }
      ],
      "name": "ComponentChanged",
      "type": "event"
    },
    {
      "anonymous": false,
      "inputs": [
        {
          "indexed": true,
          "internalType": "enum IAccessManager.GovernanceActions",
          "name": "action",
          "type": "uint8"
        },
        {
          "indexed": false,
          "internalType": "uint256",
          "name": "value",
          "type": "uint256"
        }
      ],
      "name": "GovernanceAction",
      "type": "event"
    },
    {
      "anonymous": false,
      "inputs": [
        {
          "indexed": false,
          "internalType": "uint8",
          "name": "version",
          "type": "uint8"
        }
      ],
      "name": "Initialized",
      "type": "event"
    },
    {
      "anonymous": false,
      "inputs": [
        {
          "indexed": false,
          "internalType": "address",
          "name": "account",
          "type": "address"
        }
      ],
      "name": "Paused",
      "type": "event"
    },
    {
      "anonymous": false,
      "inputs": [
        {
          "indexed": false,
          "internalType": "address",
          "name": "account",
          "type": "address"
        }
      ],
      "name": "Unpaused",
      "type": "event"
    },
    {
      "anonymous": false,
      "inputs": [
        {
          "indexed": true,
          "internalType": "address",
          "name": "implementation",
          "type": "address"
        }
      ],
      "name": "Upgraded",
      "type": "event"
    },
    {
      "anonymous": false,
      "inputs": [
        {
          "indexed": false,
          "internalType": "bool",
          "name": "moneyIn",
          "type": "bool"
        },
        {
          "indexed": false,
          "internalType": "uint256",
          "name": "value",
          "type": "uint256"
        }
      ],
      "name": "WonPremiumsInOut",
      "type": "event"
    },
    {
      "inputs": [],
      "name": "GUARDIAN_ROLE",
      "outputs": [
        {
          "internalType": "bytes32",
          "name": "",
          "type": "bytes32"
        }
      ],
      "stateMutability": "view",
      "type": "function"
    },
    {
      "inputs": [],
      "name": "LEVEL1_ROLE",
      "outputs": [
        {
          "internalType": "bytes32",
          "name": "",
          "type": "bytes32"
        }
      ],
      "stateMutability": "view",
      "type": "function"
    },
    {
      "inputs": [],
      "name": "LEVEL2_ROLE",
      "outputs": [
        {
          "internalType": "bytes32",
          "name": "",
          "type": "bytes32"
        }
      ],
      "stateMutability": "view",
      "type": "function"
    },
    {
      "inputs": [],
      "name": "LEVEL3_ROLE",
      "outputs": [
        {
          "internalType": "bytes32",
          "name": "",
          "type": "bytes32"
        }
      ],
      "stateMutability": "view",
      "type": "function"
    },
    {
      "inputs": [],
      "name": "TWEAK_EXPIRATION",
      "outputs": [
        {
          "internalType": "uint40",
          "name": "",
          "type": "uint40"
        }
      ],
      "stateMutability": "view",
      "type": "function"
    },
    {
      "inputs": [],
      "name": "WITHDRAW_WON_PREMIUMS_ROLE",
      "outputs": [
        {
          "internalType": "bytes32",
          "name": "",
          "type": "bytes32"
        }
      ],
      "stateMutability": "view",
      "type": "function"
    },
    {
      "inputs": [],
      "name": "activePurePremiums",
      "outputs": [
        {
          "internalType": "uint256",
          "name": "",
          "type": "uint256"
        }
      ],
      "stateMutability": "view",
      "type": "function"
    },
    {
      "inputs": [],
      "name": "assetManager",
      "outputs": [
        {
          "internalType": "contract IAssetManager",
          "name": "",
          "type": "address"
        }
      ],
      "stateMutability": "view",
      "type": "function"
    },
    {
      "inputs": [],
      "name": "borrowedActivePP",
      "outputs": [
        {
          "internalType": "uint256",
          "name": "",
          "type": "uint256"
        }
      ],
      "stateMutability": "view",
      "type": "function"
    },
    {
      "inputs": [],
      "name": "checkpoint",
      "outputs": [],
      "stateMutability": "nonpayable",
      "type": "function"
    },
    {
      "inputs": [],
      "name": "currency",
      "outputs": [
        {
          "internalType": "contract IERC20Metadata",
          "name": "",
          "type": "address"
        }
      ],
      "stateMutability": "view",
      "type": "function"
    },
    {
      "inputs": [],
      "name": "deficitRatio",
      "outputs": [
        {
          "internalType": "uint256",
          "name": "",
          "type": "uint256"
        }
      ],
      "stateMutability": "view",
      "type": "function"
    },
    {
      "inputs": [
        {
          "internalType": "bytes",
          "name": "functionCall",
          "type": "bytes"
        }
      ],
      "name": "forwardToAssetManager",
      "outputs": [
        {
          "internalType": "bytes",
          "name": "",
          "type": "bytes"
        }
      ],
      "stateMutability": "nonpayable",
      "type": "function"
    },
    {
      "inputs": [],
      "name": "initialize",
      "outputs": [],
      "stateMutability": "nonpayable",
      "type": "function"
    },
    {
      "inputs": [],
      "name": "juniorEtk",
      "outputs": [
        {
          "internalType": "contract IEToken",
          "name": "",
          "type": "address"
        }
      ],
      "stateMutability": "view",
      "type": "function"
    },
    {
      "inputs": [],
      "name": "lastTweak",
      "outputs": [
        {
          "internalType": "uint40",
          "name": "",
          "type": "uint40"
        },
        {
          "internalType": "uint56",
          "name": "",
          "type": "uint56"
        }
      ],
      "stateMutability": "view",
      "type": "function"
    },
    {
      "inputs": [],
      "name": "pause",
      "outputs": [],
      "stateMutability": "nonpayable",
      "type": "function"
    },
    {
      "inputs": [],
      "name": "paused",
      "outputs": [
        {
          "internalType": "bool",
          "name": "",
          "type": "bool"
        }
      ],
      "stateMutability": "view",
      "type": "function"
    },
    {
      "inputs": [
        {
          "components": [
            {
              "internalType": "uint256",
              "name": "id",
              "type": "uint256"
            },
            {
              "internalType": "uint256",
              "name": "payout",
              "type": "uint256"
            },
            {
              "internalType": "uint256",
              "name": "premium",
              "type": "uint256"
            },
            {
              "internalType": "uint256",
              "name": "jrScr",
              "type": "uint256"
            },
            {
              "internalType": "uint256",
              "name": "srScr",
              "type": "uint256"
            },
            {
              "internalType": "uint256",
              "name": "lossProb",
              "type": "uint256"
            },
            {
              "internalType": "uint256",
              "name": "purePremium",
              "type": "uint256"
            },
            {
              "internalType": "uint256",
              "name": "ensuroCommission",
              "type": "uint256"
            },
            {
              "internalType": "uint256",
              "name": "partnerCommission",
              "type": "uint256"
            },
            {
              "internalType": "uint256",
              "name": "jrCoc",
              "type": "uint256"
            },
            {
              "internalType": "uint256",
              "name": "srCoc",
              "type": "uint256"
            },
            {
              "internalType": "contract IRiskModule",
              "name": "riskModule",
              "type": "address"
            },
            {
              "internalType": "uint40",
              "name": "start",
              "type": "uint40"
            },
            {
              "internalType": "uint40",
              "name": "expiration",
              "type": "uint40"
            }
          ],
          "internalType": "struct Policy.PolicyData",
          "name": "policy",
          "type": "tuple"
        }
      ],
      "name": "policyCreated",
      "outputs": [],
      "stateMutability": "nonpayable",
      "type": "function"
    },
    {
      "inputs": [
        {
          "components": [
            {
              "internalType": "uint256",
              "name": "id",
              "type": "uint256"
            },
            {
              "internalType": "uint256",
              "name": "payout",
              "type": "uint256"
            },
            {
              "internalType": "uint256",
              "name": "premium",
              "type": "uint256"
            },
            {
              "internalType": "uint256",
              "name": "jrScr",
              "type": "uint256"
            },
            {
              "internalType": "uint256",
              "name": "srScr",
              "type": "uint256"
            },
            {
              "internalType": "uint256",
              "name": "lossProb",
              "type": "uint256"
            },
            {
              "internalType": "uint256",
              "name": "purePremium",
              "type": "uint256"
            },
            {
              "internalType": "uint256",
              "name": "ensuroCommission",
              "type": "uint256"
            },
            {
              "internalType": "uint256",
              "name": "partnerCommission",
              "type": "uint256"
            },
            {
              "internalType": "uint256",
              "name": "jrCoc",
              "type": "uint256"
            },
            {
              "internalType": "uint256",
              "name": "srCoc",
              "type": "uint256"
            },
            {
              "internalType": "contract IRiskModule",
              "name": "riskModule",
              "type": "address"
            },
            {
              "internalType": "uint40",
              "name": "start",
              "type": "uint40"
            },
            {
              "internalType": "uint40",
              "name": "expiration",
              "type": "uint40"
            }
          ],
          "internalType": "struct Policy.PolicyData",
          "name": "policy",
          "type": "tuple"
        }
      ],
      "name": "policyExpired",
      "outputs": [],
      "stateMutability": "nonpayable",
      "type": "function"
    },
    {
      "inputs": [],
      "name": "policyPool",
      "outputs": [
        {
          "internalType": "contract IPolicyPool",
          "name": "",
          "type": "address"
        }
      ],
      "stateMutability": "view",
      "type": "function"
    },
    {
      "inputs": [
        {
          "internalType": "address",
          "name": "policyHolder",
          "type": "address"
        },
        {
          "components": [
            {
              "internalType": "uint256",
              "name": "id",
              "type": "uint256"
            },
            {
              "internalType": "uint256",
              "name": "payout",
              "type": "uint256"
            },
            {
              "internalType": "uint256",
              "name": "premium",
              "type": "uint256"
            },
            {
              "internalType": "uint256",
              "name": "jrScr",
              "type": "uint256"
            },
            {
              "internalType": "uint256",
              "name": "srScr",
              "type": "uint256"
            },
            {
              "internalType": "uint256",
              "name": "lossProb",
              "type": "uint256"
            },
            {
              "internalType": "uint256",
              "name": "purePremium",
              "type": "uint256"
            },
            {
              "internalType": "uint256",
              "name": "ensuroCommission",
              "type": "uint256"
            },
            {
              "internalType": "uint256",
              "name": "partnerCommission",
              "type": "uint256"
            },
            {
              "internalType": "uint256",
              "name": "jrCoc",
              "type": "uint256"
            },
            {
              "internalType": "uint256",
              "name": "srCoc",
              "type": "uint256"
            },
            {
              "internalType": "contract IRiskModule",
              "name": "riskModule",
              "type": "address"
            },
            {
              "internalType": "uint40",
              "name": "start",
              "type": "uint40"
            },
            {
              "internalType": "uint40",
              "name": "expiration",
              "type": "uint40"
            }
          ],
          "internalType": "struct Policy.PolicyData",
          "name": "policy",
          "type": "tuple"
        },
        {
          "internalType": "uint256",
          "name": "payout",
          "type": "uint256"
        }
      ],
      "name": "policyResolvedWithPayout",
      "outputs": [],
      "stateMutability": "nonpayable",
      "type": "function"
    },
    {
      "inputs": [],
      "name": "proxiableUUID",
      "outputs": [
        {
          "internalType": "bytes32",
          "name": "",
          "type": "bytes32"
        }
      ],
      "stateMutability": "view",
      "type": "function"
    },
    {
      "inputs": [],
      "name": "purePremiums",
      "outputs": [
        {
          "internalType": "uint256",
          "name": "",
          "type": "uint256"
        }
      ],
      "stateMutability": "view",
      "type": "function"
    },
    {
      "inputs": [],
      "name": "rebalance",
      "outputs": [],
      "stateMutability": "nonpayable",
      "type": "function"
    },
    {
      "inputs": [
        {
          "internalType": "uint256",
          "name": "amount",
          "type": "uint256"
        }
      ],
      "name": "receiveGrant",
      "outputs": [],
      "stateMutability": "nonpayable",
      "type": "function"
    },
    {
      "inputs": [],
      "name": "recordEarnings",
      "outputs": [],
      "stateMutability": "nonpayable",
      "type": "function"
    },
    {
      "inputs": [],
      "name": "seniorEtk",
      "outputs": [
        {
          "internalType": "contract IEToken",
          "name": "",
          "type": "address"
        }
      ],
      "stateMutability": "view",
      "type": "function"
    },
    {
      "inputs": [
        {
          "internalType": "contract IAssetManager",
          "name": "newAM",
          "type": "address"
        },
        {
          "internalType": "bool",
          "name": "force",
          "type": "bool"
        }
      ],
      "name": "setAssetManager",
      "outputs": [],
      "stateMutability": "nonpayable",
      "type": "function"
    },
    {
      "inputs": [
        {
          "internalType": "uint256",
          "name": "newRatio",
          "type": "uint256"
        },
        {
          "internalType": "bool",
          "name": "adjustment",
          "type": "bool"
        }
      ],
      "name": "setDeficitRatio",
      "outputs": [],
      "stateMutability": "nonpayable",
      "type": "function"
    },
    {
      "inputs": [],
      "name": "surplus",
      "outputs": [
        {
          "internalType": "int256",
          "name": "",
          "type": "int256"
        }
      ],
      "stateMutability": "view",
      "type": "function"
    },
    {
      "inputs": [],
      "name": "unpause",
      "outputs": [],
      "stateMutability": "nonpayable",
      "type": "function"
    },
    {
      "inputs": [
        {
          "internalType": "address",
          "name": "newImplementation",
          "type": "address"
        }
      ],
      "name": "upgradeTo",
      "outputs": [],
      "stateMutability": "nonpayable",
      "type": "function"
    },
    {
      "inputs": [
        {
          "internalType": "address",
          "name": "newImplementation",
          "type": "address"
        },
        {
          "internalType": "bytes",
          "name": "data",
          "type": "bytes"
        }
      ],
      "name": "upgradeToAndCall",
      "outputs": [],
      "stateMutability": "payable",
      "type": "function"
    },
    {
      "inputs": [
        {
          "internalType": "uint256",
          "name": "amount",
          "type": "uint256"
        },
        {
          "internalType": "address",
          "name": "destination",
          "type": "address"
        }
      ],
      "name": "withdrawWonPremiums",
      "outputs": [
        {
          "internalType": "uint256",
          "name": "",
          "type": "uint256"
        }
      ],
      "stateMutability": "nonpayable",
      "type": "function"
    },
    {
      "inputs": [],
      "name": "wonPurePremiums",
      "outputs": [
        {
          "internalType": "uint256",
          "name": "",
          "type": "uint256"
        }
      ],
      "stateMutability": "view",
      "type": "function"
    }
  ],
  "bytecode": "0x610120604052306080523480156200001657600080fd5b50604051620043ce380380620043ce833981016040819052620000399162000171565b8280806001600160a01b031660a0816001600160a01b031681525050506002816001600160a01b031663e5a6b10f6040518163ffffffff1660e01b8152600401602060405180830381865afa15801562000097573d6000803e3d6000fd5b505050506040513d601f19601f82011682018060405250810190620000bd9190620001c5565b6001600160a01b031663313ce5676040518163ffffffff1660e01b8152600401602060405180830381865afa158015620000fb573d6000803e3d6000fd5b505050506040513d601f19601f82011682018060405250810190620001219190620001ec565b6200012d919062000227565b6200013a90600a62000357565b60c052506001600160a01b0391821660e05216610100525062000368565b6001600160a01b03811681146200016e57600080fd5b50565b6000806000606084860312156200018757600080fd5b8351620001948162000158565b6020850151909350620001a78162000158565b6040850151909250620001ba8162000158565b809150509250925092565b600060208284031215620001d857600080fd5b8151620001e58162000158565b9392505050565b600060208284031215620001ff57600080fd5b815160ff81168114620001e557600080fd5b634e487b7160e01b600052601160045260246000fd5b600060ff8316806200024957634e487b7160e01b600052601260045260246000fd5b8060ff84160491505092915050565b600181815b80851115620002995781600019048211156200027d576200027d62000211565b808516156200028b57918102915b93841c93908002906200025d565b509250929050565b600082620002b25750600162000351565b81620002c15750600062000351565b8160018114620002da5760028114620002e55762000305565b600191505062000351565b60ff841115620002f957620002f962000211565b50506001821b62000351565b5060208310610133831016604e8410600b84101617156200032a575081810a62000351565b62000336838362000258565b80600019048211156200034d576200034d62000211565b0290505b92915050565b6000620001e560ff841683620002a1565b60805160a05160c05160e05161010051613efb620004d3600039600081816104bd01528181611188015281816111bb015281816115690152818161159c01528181611a8601528181611fe80152818161201b0152818161221a015281816127af01528181612fce015261301a01526000818161043301528181610d48015281816111e401528181611217015281816115c5015281816115f8015281816119e801528181612044015281816120770152818161214e015281816126f001528181612eff0152612f4b0152600081816121c70152818161228b0152818161253201526128dd01526000818161037a015281816106eb0152818161091f01528181610b8701528181611012015281816110ff015281816112da015281816114b2015281816116510152818161197401528181611b1801528181611c040152611cea0152600081816108210152818161086a01528181610aa201528181610ae20152610dcb0152613efb6000f3fe60806040526004361061020f5760003560e01c80635c975abb116101185780639d8c5ee7116100a0578063d80359f11161006f578063d80359f11461063a578063e3638ea31461065a578063e5a6b10f1461067a578063e823584a1461068f578063f67b2bad146106a457600080fd5b80639d8c5ee7146105c5578063a0ce58b8146105e5578063c2c4c5c114610605578063c7a9c70d1461061a57600080fd5b80638129fc1c116100e75780638129fc1c1461052357806381ced71f146105385780638456cb59146105585780638ca23bc91461056d57806394217ad1146105a157600080fd5b80635c975abb1461048b5780637b83037b146104ae5780637d7c2a1c146104e15780637ed5acfa146104f657600080fd5b80634a47a3e01161019b57806350093f041161016a57806350093f04146103da57806352d1902d146103fa578063536c9a431461040f578063536ebbfc146104245780635b494dd51461045757600080fd5b80634a47a3e0146103375780634d15eb031461036b5780634eb978a4146103b25780634f1ef286146103c757600080fd5b806326ccbd22116101e257806326ccbd221461029c5780633659cfe6146102b15780633f4ba83a146102d3578063468a8c9f146102e85780634863c8b01461032257600080fd5b806313888565146102145780631a548a27146102385780631e9c46581461024d57806324ea54f41461027a575b600080fd5b34801561022057600080fd5b5060cb545b6040519081526020015b60405180910390f35b34801561024457600080fd5b5060ca54610225565b34801561025957600080fd5b5061026d610268366004613739565b6106c6565b60405161022f91906137be565b34801561028657600080fd5b50610225600080516020613ea683398151915281565b3480156102a857600080fd5b50610225610800565b3480156102bd57600080fd5b506102d16102cc3660046137e6565b610817565b005b3480156102df57600080fd5b506102d16108ff565b3480156102f457600080fd5b5060c9546040805164ffffffffff83168152600160281b90920466ffffffffffffff1660208301520161022f565b34801561032e57600080fd5b50610225610a0f565b34801561034357600080fd5b506102257fa82e22387fca439f316d78ca566f383218ab8ae1b3e830178c9c82cbd16749c081565b34801561037757600080fd5b507f00000000000000000000000000000000000000000000000000000000000000005b6040516001600160a01b03909116815260200161022f565b3480156103be57600080fd5b506102d1610a29565b6102d16103d5366004613803565b610a98565b3480156103e657600080fd5b506102d16103f5366004613861565b610b64565b34801561040657600080fd5b50610225610dbe565b34801561041b57600080fd5b50610225610e71565b34801561043057600080fd5b507f000000000000000000000000000000000000000000000000000000000000000061039a565b34801561046357600080fd5b506102257f5ec196419322369c6bac572d883f4d990ae5ec82f7d93cdf89b85dbb05b63c2781565b34801561049757600080fd5b5060975460ff16604051901515815260200161022f565b3480156104ba57600080fd5b507f000000000000000000000000000000000000000000000000000000000000000061039a565b3480156104ed57600080fd5b506102d1610e8a565b34801561050257600080fd5b5061050d6201518081565b60405164ffffffffff909116815260200161022f565b34801561052f57600080fd5b506102d1610ed8565b34801561054457600080fd5b506102d1610553366004613891565b610fa2565b34801561056457600080fd5b506102d1611001565b34801561057957600080fd5b506102257fa23b11d346b90fc279e0a917152caf41f3c1247b12211b7cbc0e0e3f8b79405781565b3480156105ad57600080fd5b5060cc546201000090046001600160a01b031661039a565b3480156105d157600080fd5b506102d16105e0366004613996565b6110fc565b3480156105f157600080fd5b506102256106003660046139d7565b6112b5565b34801561061157600080fd5b506102d1611495565b34801561062657600080fd5b506102d16106353660046139fc565b6114af565b34801561064657600080fd5b506102d1610655366004613a19565b611631565b34801561066657600080fd5b506102d16106753660046139fc565b611971565b34801561068657600080fd5b5061039a611b14565b34801561069b57600080fd5b50610225611b98565b3480156106b057600080fd5b50610225600080516020613e5f83398151915281565b60607fa82e22387fca439f316d78ca566f383218ab8ae1b3e830178c9c82cbd16749c07f00000000000000000000000000000000000000000000000000000000000000006001600160a01b03166371907f176040518163ffffffff1660e01b8152600401602060405180830381865afa158015610747573d6000803e3d6000fd5b505050506040513d601f19601f8201168201806040525081019061076b9190613a47565b6001600160a01b0316635ff57d2030833360016040518563ffffffff1660e01b815260040161079d9493929190613a64565b60006040518083038186803b1580156107b557600080fd5b505afa1580156107c9573d6000803e3d6000fd5b505050506107f9836107ea60cc546001600160a01b03620100009091041690565b6001600160a01b031690611bb6565b9392505050565b600060cb5460ca546108129190613aa4565b905090565b6001600160a01b037f00000000000000000000000000000000000000000000000000000000000000001630036108685760405162461bcd60e51b815260040161085f90613acc565b60405180910390fd5b7f00000000000000000000000000000000000000000000000000000000000000006001600160a01b03166108b1600080516020613e3f833981519152546001600160a01b031690565b6001600160a01b0316146108d75760405162461bcd60e51b815260040161085f90613b18565b6108e081611be4565b604080516000808252602082019092526108fc91839190611dd9565b50565b600080516020613ea6833981519152600080516020613e5f8339815191527f00000000000000000000000000000000000000000000000000000000000000006001600160a01b03166371907f176040518163ffffffff1660e01b8152600401602060405180830381865afa15801561097b573d6000803e3d6000fd5b505050506040513d601f19601f8201168201806040525081019061099f9190613a47565b6001600160a01b0316632b1cff1f3084843360016040518663ffffffff1660e01b81526004016109d3959493929190613b64565b60006040518083038186803b1580156109eb57600080fd5b505afa1580156109ff573d6000803e3d6000fd5b50505050610a0b611f44565b5050565b60cc546000906108129061ffff16655af3107a4000613b97565b610a31611f96565b6040805160048152602481019091526020810180516001600160e01b03166313ae5e2960e21b179052600090610a7a906107ea60cc546001600160a01b03620100009091041690565b90506108fc81806020019051810190610a939190613bb6565b611fdc565b6001600160a01b037f0000000000000000000000000000000000000000000000000000000000000000163003610ae05760405162461bcd60e51b815260040161085f90613acc565b7f00000000000000000000000000000000000000000000000000000000000000006001600160a01b0316610b29600080516020613e3f833981519152546001600160a01b031690565b6001600160a01b031614610b4f5760405162461bcd60e51b815260040161085f90613b18565b610b5882611be4565b610a0b82826001611dd9565b7fa82e22387fca439f316d78ca566f383218ab8ae1b3e830178c9c82cbd16749c07f00000000000000000000000000000000000000000000000000000000000000006001600160a01b03166371907f176040518163ffffffff1660e01b8152600401602060405180830381865afa158015610be3573d6000803e3d6000fd5b505050506040513d601f19601f82011682018060405250810190610c079190613a47565b6001600160a01b0316635ff57d2030833360006040518563ffffffff1660e01b8152600401610c399493929190613a64565b60006040518083038186803b158015610c5157600080fd5b505afa158015610c65573d6000803e3d6000fd5b50505050670de0b6b3a76400008311158015610c7f575060015b610c9b5760405162461bcd60e51b815260040161085f90613bcf565b6000610ca684612100565b90508280610cb657508060cb5412155b610d145760405162461bcd60e51b815260206004820152602960248201527f56616c69646174696f6e3a20737572706c7573206d757374206265203e3d206d604482015268185e1119599a58da5d60ba1b606482015260840161085f565b60cb54602090821315610d7d5760008260cb54610d3090613c14565b610d3a9190613aa4565b60cb8490559050610d7781307f00000000000000000000000000000000000000000000000000000000000000006001600160a01b03161515612119565b60219150505b610d95610d90655af3107a400087613c30565b612310565b60cc805461ffff191661ffff92909216919091179055610db781866000612377565b5050505050565b6000306001600160a01b037f00000000000000000000000000000000000000000000000000000000000000001614610e5e5760405162461bcd60e51b815260206004820152603860248201527f555550535570677261646561626c653a206d757374206e6f742062652063616c60448201527f6c6564207468726f7567682064656c656761746563616c6c0000000000000000606482015260840161085f565b50600080516020613e3f83398151915290565b60008060cb541215610e835750600090565b5060cb5490565b610e92611f96565b6040805160048152602481019091526020810180516001600160e01b0316631f5f0a8760e21b1790526108fc906107ea60cc546001600160a01b03620100009091041690565b600054610100900460ff1615808015610ef85750600054600160ff909116105b80610f125750303b158015610f12575060005460ff166001145b610f2e5760405162461bcd60e51b815260040161085f90613c52565b6000805460ff191660011790558015610f51576000805461ff0019166101001790555b610f596123d8565b80156108fc576000805461ff0019169055604051600181527f7f26b83ff96e1f2b6a682f133852f6798a09c465da95921460cefb3847402498906020015b60405180910390a150565b610fc1333083610fb0611b14565b6001600160a01b0316929190612461565b610fca816124cc565b6040805160018152602081018390527fd60d524f1cae273480bb0a4ddfb992b6ac0b61c8e12ffbe2e4e31463f9e901999101610f97565b600080516020613ea68339815191527f00000000000000000000000000000000000000000000000000000000000000006001600160a01b03166371907f176040518163ffffffff1660e01b8152600401602060405180830381865afa15801561106e573d6000803e3d6000fd5b505050506040513d601f19601f820116820180604052508101906110929190613a47565b6001600160a01b0316635ff57d2030833360016040518563ffffffff1660e01b81526004016110c49493929190613a64565b60006040518083038186803b1580156110dc57600080fd5b505afa1580156110f0573d6000803e3d6000fd5b505050506108fc6124f1565b337f00000000000000000000000000000000000000000000000000000000000000006001600160a01b0316146111445760405162461bcd60e51b815260040161085f90613ca0565b61114c611f96565b8160c0015160ca60008282546111629190613ce1565b909155505060c08201518111611260576000818360c001516111849190613ce1565b90507f00000000000000000000000000000000000000000000000000000000000000006001600160a01b0316156111e2576111df817f000000000000000000000000000000000000000000000000000000000000000061252e565b90505b7f00000000000000000000000000000000000000000000000000000000000000006001600160a01b03161561123e5761123b817f000000000000000000000000000000000000000000000000000000000000000061252e565b90505b611247816124cc565b611250836126e4565b61125a8483612834565b50505050565b600061127a8360c00151836112759190613ce1565b61292d565b9050611285836126e4565b801561129d5761129d81856000866060015111612119565b61125a846112ab8385613ce1565b612834565b505050565b60007fa23b11d346b90fc279e0a917152caf41f3c1247b12211b7cbc0e0e3f8b7940577f00000000000000000000000000000000000000000000000000000000000000006001600160a01b03166371907f176040518163ffffffff1660e01b8152600401602060405180830381865afa158015611336573d6000803e3d6000fd5b505050506040513d601f19601f8201168201806040525081019061135a9190613a47565b6001600160a01b0316635ff57d2030833360016040518563ffffffff1660e01b815260040161138c9493929190613a64565b60006040518083038186803b1580156113a457600080fd5b505afa1580156113b8573d6000803e3d6000fd5b50505050600060cb54136113cf57600093506113de565b6113db8460cb54612983565b93505b6000841161142e5760405162461bcd60e51b815260206004820152601760248201527f4e6f207072656d69756d7320746f207769746864726177000000000000000000604482015260640161085f565b8360cb60008282546114409190613cf4565b9091555061145090508385612834565b6040805160008152602081018690527fd60d524f1cae273480bb0a4ddfb992b6ac0b61c8e12ffbe2e4e31463f9e90199910160405180910390a18391505b5092915050565b61149d611f96565b6114a5610a29565b6114ad610e8a565b565b337f00000000000000000000000000000000000000000000000000000000000000006001600160a01b0316146114f75760405162461bcd60e51b815260040161085f90613ca0565b6114ff611f96565b60008160c0015190508060ca600082825461151a9190613ce1565b909155506000905061153261152d610a0f565b612100565b90508060cb541215611567578060cb5461154b90613c14565b6115559190613aa4565b61155f9083613ce1565b60cb82905591505b7f00000000000000000000000000000000000000000000000000000000000000006001600160a01b0316156115c3576115c0827f000000000000000000000000000000000000000000000000000000000000000061252e565b91505b7f00000000000000000000000000000000000000000000000000000000000000006001600160a01b03161561161f5761161c827f000000000000000000000000000000000000000000000000000000000000000061252e565b91505b611628826124cc565b6112b0836126e4565b600080516020613ea6833981519152600080516020613e5f8339815191527f00000000000000000000000000000000000000000000000000000000000000006001600160a01b03166371907f176040518163ffffffff1660e01b8152600401602060405180830381865afa1580156116ad573d6000803e3d6000fd5b505050506040513d601f19601f820116820180604052508101906116d19190613a47565b6001600160a01b0316632b1cff1f3084843360016040518663ffffffff1660e01b8152600401611705959493929190613b64565b60006040518083038186803b15801561171d57600080fd5b505afa158015611731573d6000803e3d6000fd5b505050506001600160a01b038416158061175457506001600160a01b0384163b15155b6117ac5760405162461bcd60e51b815260206004820152602360248201527f5468652061737365744d616e61676572206973206e6f74206120636f6e74726160448201526263742160e81b606482015260840161085f565b60cc546201000090046001600160a01b0316600281156118db5784156118805760408051600481526024810182526020810180516001600160e01b031663cec16f3f60e01b179052905160009182916001600160a01b0386169161180f91613d14565b600060405180830381855af49150503d806000811461184a576040519150601f19603f3d011682016040523d82523d6000602084013e61184f565b606091505b5091509150816118625760039250611879565b61187981806020019051810190610a939190613bb6565b50506118db565b6040805160048152602481019091526020810180516001600160e01b031663cec16f3f60e01b1790526000906118c0906001600160a01b03851690611bb6565b90506118d981806020019051810190610a939190613bb6565b505b60cc805462010000600160b01b031916620100006001600160a01b0389160217905560cc546201000090046001600160a01b031691506001600160a01b0382161561195f576040805160048152602481019091526020810180516001600160e01b031663948cb71960e01b17905261195d906001600160a01b03841690611bb6565b505b6119698187612999565b505050505050565b337f00000000000000000000000000000000000000000000000000000000000000006001600160a01b0316146119b95760405162461bcd60e51b815260040161085f90613ca0565b6119c1611f96565b8060c0015160ca60008282546119d79190613d30565b9091555050606081015115611a7a577f00000000000000000000000000000000000000000000000000000000000000006001600160a01b031663837c83a38260600151611a23846129f3565b6040516001600160e01b031960e085901b16815260048101929092526024820152604401600060405180830381600087803b158015611a6157600080fd5b505af1158015611a75573d6000803e3d6000fd5b505050505b6080810151156108fc577f00000000000000000000000000000000000000000000000000000000000000006001600160a01b031663837c83a38260800151611ac184612a3f565b6040516001600160e01b031960e085901b168152600481019290925260248201526044015b600060405180830381600087803b158015611b0057600080fd5b505af1158015610db7573d6000803e3d6000fd5b60007f00000000000000000000000000000000000000000000000000000000000000006001600160a01b031663e5a6b10f6040518163ffffffff1660e01b8152600401602060405180830381865afa158015611b74573d6000803e3d6000fd5b505050506040513d601f19601f820116820180604052508101906108129190613a47565b60008060cb541215611bb05760cb5461081290613c14565b50600090565b6060611bdb8383604051806060016040528060278152602001613e7f60279139612a7b565b90505b92915050565b600080516020613ea6833981519152600080516020613e5f8339815191527f00000000000000000000000000000000000000000000000000000000000000006001600160a01b03166371907f176040518163ffffffff1660e01b8152600401602060405180830381865afa158015611c60573d6000803e3d6000fd5b505050506040513d601f19601f82011682018060405250810190611c849190613a47565b6001600160a01b0316632b1cff1f3084843360016040518663ffffffff1660e01b8152600401611cb8959493929190613b64565b60006040518083038186803b158015611cd057600080fd5b505afa158015611ce4573d6000803e3d6000fd5b505050507f00000000000000000000000000000000000000000000000000000000000000006001600160a01b0316836001600160a01b0316634d15eb036040518163ffffffff1660e01b8152600401602060405180830381865afa158015611d50573d6000803e3d6000fd5b505050506040513d601f19601f82011682018060405250810190611d749190613a47565b6001600160a01b0316146112b05760405162461bcd60e51b815260206004820152602660248201527f43616e27742075706772616465206368616e67696e672074686520506f6c696360448201526579506f6f6c2160d01b606482015260840161085f565b7f4910fdfa16fed3260ed0e7147f7cc6da11a60208b5b9406d12a635614ffd91435460ff1615611e0c576112b083612b19565b826001600160a01b03166352d1902d6040518163ffffffff1660e01b8152600401602060405180830381865afa925050508015611e66575060408051601f3d908101601f19168201909252611e6391810190613bb6565b60015b611ec95760405162461bcd60e51b815260206004820152602e60248201527f45524331393637557067726164653a206e657720696d706c656d656e7461746960448201526d6f6e206973206e6f74205555505360901b606482015260840161085f565b600080516020613e3f8339815191528114611f385760405162461bcd60e51b815260206004820152602960248201527f45524331393637557067726164653a20756e737570706f727465642070726f786044820152681a58589b195555525160ba1b606482015260840161085f565b506112b0838383612bb5565b611f4c612bda565b6097805460ff191690557f5db9ee0a495bf2e6ff9c91a7834c1ba4fdd244a5e8aa4e537bd38aeae4b073aa335b6040516001600160a01b03909116815260200160405180910390a1565b60975460ff16156114ad5760405162461bcd60e51b815260206004820152601060248201526f14185d5cd8589b194e881c185d5cd95960821b604482015260640161085f565b60008113156120a757807f00000000000000000000000000000000000000000000000000000000000000006001600160a01b0316156120425761203f817f000000000000000000000000000000000000000000000000000000000000000061252e565b90505b7f00000000000000000000000000000000000000000000000000000000000000006001600160a01b03161561209e5761209b817f000000000000000000000000000000000000000000000000000000000000000061252e565b90505b610a0b816124cc565b6120b361127582613c14565b156108fc5760405162461bcd60e51b815260206004820152601e60248201527f4c6f737365732063616e277420657863656564206d6178446566696369740000604482015260640161085f565b60ca546000906121109083612c23565b611bde90613c14565b600081156121c2576040516351dcfd3160e01b8152600481018590526001600160a01b038481166024830152600060448301527f000000000000000000000000000000000000000000000000000000000000000016906351dcfd31906064016020604051808303816000875af1158015612197573d6000803e3d6000fd5b505050506040513d601f19601f820116820180604052508101906121bb9190613bb6565b90506121c5565b50825b7f000000000000000000000000000000000000000000000000000000000000000081111561125a576040516351dcfd3160e01b8152600481018290526001600160a01b038481166024830152600160448301527f000000000000000000000000000000000000000000000000000000000000000016906351dcfd31906064016020604051808303816000875af1158015612263573d6000803e3d6000fd5b505050506040513d601f19601f820116820180604052508101906122879190613bb6565b90507f000000000000000000000000000000000000000000000000000000000000000081111561125a5760405162461bcd60e51b815260206004820152602e60248201527f446f6e2774206b6e6f7720776865726520746f2074616b65207468652072657360448201526d74206f6620746865206d6f6e657960901b606482015260840161085f565b600061ffff8211156123735760405162461bcd60e51b815260206004820152602660248201527f53616665436173743a2076616c756520646f65736e27742066697420696e203160448201526536206269747360d01b606482015260840161085f565b5090565b61237f612c5b565b801561238e5761238e83612c8f565b82602d8111156123a0576123a0613d43565b6040518381527f7bc647fe5043209e2019aa3503b79c1b0dd83eb61c56013d373a7584ff6bfb139060200160405180910390a2505050565b600054610100900460ff16158080156123f85750600054600160ff909116105b806124125750303b158015612412575060005460ff166001145b61242e5760405162461bcd60e51b815260040161085f90613c52565b6000805460ff191660011790558015612451576000805461ff0019166101001790555b612459612dfb565b610f59612e84565b6040516001600160a01b038085166024830152831660448201526064810182905261125a9085906323b872dd60e01b906084015b60408051601f198184030181529190526020810180516001600160e01b03166001600160e01b0319909316929092179091526130d1565b806000036124d75750565b8060cb60008282546124e99190613aa4565b909155505050565b6124f9611f96565b6097805460ff191660011790557f62e78cea01bee320cd4e420270b5ea74000d11b0c9f74754ebdbfc544b05a258611f793390565b60007f000000000000000000000000000000000000000000000000000000000000000083101561255f575081611bde565b6040516333481fc960e01b81523060048201526000906001600160a01b038416906333481fc990602401602060405180830381865afa1580156125a6573d6000803e3d6000fd5b505050506040513d601f19601f820116820180604052508101906125ca9190613bb6565b9050806000036125dd5783915050611bde565b60006125e98583612983565b9050806125f4611b14565b6040516370a0823160e01b81523060048201526001600160a01b0391909116906370a0823190602401602060405180830381865afa15801561263a573d6000803e3d6000fd5b505050506040513d601f19601f8201168201806040525081019061265e9190613bb6565b101561266f5761266d816131a3565b505b60405163918344d360e01b8152600481018290523060248201526001600160a01b0385169063918344d390604401600060405180830381600087803b1580156126b757600080fd5b505af11580156126cb573d6000803e3d6000fd5b5050505080856126db9190613ce1565b95945050505050565b6060810151156127a3577f00000000000000000000000000000000000000000000000000000000000000006001600160a01b031663b1081ccf826060015161272b846129f3565b6127348561327f565b8561012001516127449190613cf4565b6040516001600160e01b031960e086901b168152600481019390935260248301919091526044820152606401600060405180830381600087803b15801561278a57600080fd5b505af115801561279e573d6000803e3d6000fd5b505050505b6080810151156108fc577f00000000000000000000000000000000000000000000000000000000000000006001600160a01b031663b1081ccf82608001516127ea84612a3f565b6127f3856132d0565b8561014001516128039190613cf4565b6040516001600160e01b031960e086901b168152600481019390935260248301919091526044820152606401611ae6565b80600003612840575050565b600061284a611b14565b6040516370a0823160e01b81523060048201526001600160a01b0391909116906370a0823190602401602060405180830381865afa158015612890573d6000803e3d6000fd5b505050506040513d601f19601f820116820180604052508101906128b49190613bb6565b905081811015612910576128c7826131a3565b6128d19082613d30565b905080821115612910577f00000000000000000000000000000000000000000000000000000000000000006129068284613ce1565b1015612910578091505b6112b0838361291d611b14565b6001600160a01b03169190613317565b6000808260cb5461293e9190613cf4565b9050600061294d61152d610a0f565b9050808212612962575060cb55506000919050565b60cb8190558061297183613c14565b61297b9190613aa4565b949350505050565b60008183106129925781611bdb565b5090919050565b6129a1612c5b565b81602d8111156129b3576129b3613d43565b6040516001600160a01b03831681527fb6bdbd44472629fc24a00b6f4ee3348b72c9eff333d0e9c16d78c49da1323c8f9060200160405180910390a25050565b6000611bde8260600151836101800151846101a00151612a139190613d59565b64ffffffffff166301e13380856101200151612a2f9190613b97565b612a399190613c30565b90613347565b6000611bde8260800151836101800151846101a00151612a5f9190613d59565b64ffffffffff166301e13380856101400151612a2f9190613b97565b60606001600160a01b0384163b612aa45760405162461bcd60e51b815260040161085f90613d77565b600080856001600160a01b031685604051612abf9190613d14565b600060405180830381855af49150503d8060008114612afa576040519150601f19603f3d011682016040523d82523d6000602084013e612aff565b606091505b5091509150612b0f82828661337e565b9695505050505050565b6001600160a01b0381163b612b865760405162461bcd60e51b815260206004820152602d60248201527f455243313936373a206e657720696d706c656d656e746174696f6e206973206e60448201526c1bdd08184818dbdb9d1c9858dd609a1b606482015260840161085f565b600080516020613e3f83398151915280546001600160a01b0319166001600160a01b0392909216919091179055565b612bbe836133b7565b600082511180612bcb5750805b156112b05761125a83836133f7565b60975460ff166114ad5760405162461bcd60e51b815260206004820152601460248201527314185d5cd8589b194e881b9bdd081c185d5cd95960621b604482015260640161085f565b600081156706f05b59d3b200001983900484111517612c4157600080fd5b50670de0b6b3a764000091026706f05b59d3b20000010490565b60cc5461271061ffff90911611801590612c73575060015b6114ad5760405162461bcd60e51b815260040161085f90613bcf565b6000600182602d811115612ca557612ca5613d43565b612caf9190613dbd565b60c954600160ff929092169190911b91506201518090612cd69064ffffffffff1642613d59565b64ffffffffff161115612d185760c9805466ffffffffffffff8316600160281b026bffffffffffffffffffffffff1990911664ffffffffff4216171790555050565b60c954600160281b9004811666ffffffffffffff16600003612d7d5760c9805464ffffffffff421664ffffffffff1966ffffffffffffff808616600160281b808604929092161702166bffffffffffffffffffffffff19909216919091171790555050565b60405162461bcd60e51b815260206004820152604760248201527f596f7520616c726561647920747765616b6564207468697320706172616d657460448201527f657220726563656e746c792e2057616974206265666f726520747765616b696e606482015266339030b3b0b4b760c91b608482015260a40161085f565b600054610100900460ff1615808015612e1b5750600054600160ff909116105b80612e355750303b158015612e35575060005460ff166001145b612e515760405162461bcd60e51b815260040161085f90613c52565b6000805460ff191660011790558015612e74576000805461ff0019166101001790555b612e7c6134a3565b610f596134ca565b600054610100900460ff1615808015612ea45750600054600160ff909116105b80612ebe5750303b158015612ebe575060005460ff166001145b612eda5760405162461bcd60e51b815260040161085f90613c52565b6000805460ff191660011790558015612efd576000805461ff0019166101001790555b7f00000000000000000000000000000000000000000000000000000000000000006001600160a01b031615612fcc57612f34611b14565b60405163095ea7b360e01b81526001600160a01b037f0000000000000000000000000000000000000000000000000000000000000000811660048301526000196024830152919091169063095ea7b3906044016020604051808303816000875af1158015612fa6573d6000803e3d6000fd5b505050506040513d601f19601f82011682018060405250810190612fca9190613dd6565b505b7f00000000000000000000000000000000000000000000000000000000000000006001600160a01b03161561309b57613003611b14565b60405163095ea7b360e01b81526001600160a01b037f0000000000000000000000000000000000000000000000000000000000000000811660048301526000196024830152919091169063095ea7b3906044016020604051808303816000875af1158015613075573d6000803e3d6000fd5b505050506040513d601f19601f820116820180604052508101906130999190613dd6565b505b60408051808201909152612710808252600060209092019190915260cc80546001600160b01b0319169091179055610f59612c5b565b6000613126826040518060400160405280602081526020017f5361666545524332303a206c6f772d6c6576656c2063616c6c206661696c6564815250856001600160a01b03166134f99092919063ffffffff16565b8051909150156112b057808060200190518101906131449190613dd6565b6112b05760405162461bcd60e51b815260206004820152602a60248201527f5361666545524332303a204552433230206f7065726174696f6e20646964206e6044820152691bdd081cdd58d8d9595960b21b606482015260840161085f565b6000806131bf60cc546001600160a01b03620100009091041690565b90506001600160a01b03811615613276576000613260631014a0c260e01b856040516024016131f091815260200190565b60408051601f19818403018152918152602080830180516001600160e01b03166001600160e01b03199095169490941790935280518082019091526016815275115c9c9bdc881c99599a5b1b1a5b99c81dd85b1b195d60521b928101929092526001600160a01b03851691612a7b565b90508080602001905181019061297b9190613bb6565b50600092915050565b6000816101800151826101a001516132979190613d59565b64ffffffffff1682610180015164ffffffffff16426132b69190613ce1565b8361012001516132c69190613b97565b611bde9190613c30565b6000816101800151826101a001516132e89190613d59565b64ffffffffff1682610180015164ffffffffff16426133079190613ce1565b8361014001516132c69190613b97565b6040516001600160a01b0383166024820152604481018290526112b090849063a9059cbb60e01b90606401612495565b60008115670de0b6b3a76400006002840419048411171561336757600080fd5b50670de0b6b3a76400009190910260028204010490565b6060831561338d5750816107f9565b82511561339d5782518084602001fd5b8160405162461bcd60e51b815260040161085f91906137be565b6133c081612b19565b6040516001600160a01b038216907fbc7cd75a20ee27fd9adebab32041f755214dbc6bffa90cc0225b39da2e5c2d3b90600090a250565b60606001600160a01b0383163b6134205760405162461bcd60e51b815260040161085f90613d77565b600080846001600160a01b03168460405161343b9190613d14565b600060405180830381855af49150503d8060008114613476576040519150601f19603f3d011682016040523d82523d6000602084013e61347b565b606091505b50915091506126db8282604051806060016040528060278152602001613e7f6027913961337e565b600054610100900460ff166114ad5760405162461bcd60e51b815260040161085f90613df3565b600054610100900460ff166134f15760405162461bcd60e51b815260040161085f90613df3565b6114ad613508565b606061297b848460008561353b565b600054610100900460ff1661352f5760405162461bcd60e51b815260040161085f90613df3565b6097805460ff19169055565b60608247101561359c5760405162461bcd60e51b815260206004820152602660248201527f416464726573733a20696e73756666696369656e742062616c616e636520666f6044820152651c8818d85b1b60d21b606482015260840161085f565b6001600160a01b0385163b6135f35760405162461bcd60e51b815260206004820152601d60248201527f416464726573733a2063616c6c20746f206e6f6e2d636f6e7472616374000000604482015260640161085f565b600080866001600160a01b0316858760405161360f9190613d14565b60006040518083038185875af1925050503d806000811461364c576040519150601f19603f3d011682016040523d82523d6000602084013e613651565b606091505b509150915061366182828661337e565b979650505050505050565b634e487b7160e01b600052604160045260246000fd5b6040516101c0810167ffffffffffffffff811182821017156136a6576136a661366c565b60405290565b600082601f8301126136bd57600080fd5b813567ffffffffffffffff808211156136d8576136d861366c565b604051601f8301601f19908116603f011681019082821181831017156137005761370061366c565b8160405283815286602085880101111561371957600080fd5b836020870160208301376000602085830101528094505050505092915050565b60006020828403121561374b57600080fd5b813567ffffffffffffffff81111561376257600080fd5b61297b848285016136ac565b60005b83811015613789578181015183820152602001613771565b50506000910152565b600081518084526137aa81602086016020860161376e565b601f01601f19169290920160200192915050565b602081526000611bdb6020830184613792565b6001600160a01b03811681146108fc57600080fd5b6000602082840312156137f857600080fd5b81356107f9816137d1565b6000806040838503121561381657600080fd5b8235613821816137d1565b9150602083013567ffffffffffffffff81111561383d57600080fd5b613849858286016136ac565b9150509250929050565b80151581146108fc57600080fd5b6000806040838503121561387457600080fd5b82359150602083013561388681613853565b809150509250929050565b6000602082840312156138a357600080fd5b5035919050565b80356138b5816137d1565b919050565b803564ffffffffff811681146138b557600080fd5b60006101c082840312156138e257600080fd5b6138ea613682565b9050813581526020820135602082015260408201356040820152606082013560608201526080820135608082015260a082013560a082015260c082013560c082015260e082013560e08201526101008083013581830152506101208083013581830152506101408083013581830152506101606139688184016138aa565b9082015261018061397a8382016138ba565b908201526101a061398c8382016138ba565b9082015292915050565b600080600061020084860312156139ac57600080fd5b83356139b7816137d1565b92506139c685602086016138cf565b91506101e084013590509250925092565b600080604083850312156139ea57600080fd5b823591506020830135613886816137d1565b60006101c08284031215613a0f57600080fd5b611bdb83836138cf565b60008060408385031215613a2c57600080fd5b8235613a37816137d1565b9150602083013561388681613853565b600060208284031215613a5957600080fd5b81516107f9816137d1565b6001600160a01b039485168152602081019390935292166040820152901515606082015260800190565b634e487b7160e01b600052601160045260246000fd5b8082018281126000831280158216821582161715613ac457613ac4613a8e565b505092915050565b6020808252602c908201527f46756e6374696f6e206d7573742062652063616c6c6564207468726f7567682060408201526b19195b1959d85d1958d85b1b60a21b606082015260800190565b6020808252602c908201527f46756e6374696f6e206d7573742062652063616c6c6564207468726f7567682060408201526b6163746976652070726f787960a01b606082015260800190565b6001600160a01b039586168152602081019490945260408401929092529092166060820152901515608082015260a00190565b6000816000190483118215151615613bb157613bb1613a8e565b500290565b600060208284031215613bc857600080fd5b5051919050565b60208082526025908201527f56616c69646174696f6e3a2064656669636974526174696f206d757374206265604082015264203c3d203160d81b606082015260800190565b6000600160ff1b8201613c2957613c29613a8e565b5060000390565b600082613c4d57634e487b7160e01b600052601260045260246000fd5b500490565b6020808252602e908201527f496e697469616c697a61626c653a20636f6e747261637420697320616c72656160408201526d191e481a5b9a5d1a585b1a5e995960921b606082015260800190565b60208082526021908201527f5468652063616c6c6572206d7573742062652074686520506f6c696379506f6f6040820152601b60fa1b606082015260800190565b81810381811115611bde57611bde613a8e565b818103600083128015838313168383128216171561148e5761148e613a8e565b60008251613d2681846020870161376e565b9190910192915050565b80820180821115611bde57611bde613a8e565b634e487b7160e01b600052602160045260246000fd5b64ffffffffff82811682821603908082111561148e5761148e613a8e565b60208082526026908201527f416464726573733a2064656c65676174652063616c6c20746f206e6f6e2d636f6040820152651b9d1c9858dd60d21b606082015260800190565b60ff8281168282160390811115611bde57611bde613a8e565b600060208284031215613de857600080fd5b81516107f981613853565b6020808252602b908201527f496e697469616c697a61626c653a20636f6e7472616374206973206e6f74206960408201526a6e697469616c697a696e6760a81b60608201526080019056fe360894a13ba1a3210667c828492db98dca3e2076cc3735a920a3ca505d382bbcbf372ca3ebecfe59ac256f17697941bbe63302aced610e8b0e3646f743c7beb2416464726573733a206c6f772d6c6576656c2064656c65676174652063616c6c206661696c656455435dd261a4b9b3364963f7738a7a662ad9c84396d64be3365284bb7f0a5041a2646970667358221220203fd2cee65f79de01fca02c1f9c040e0d1021ad69f941bd7c3a0b103536e3ad64736f6c63430008100033",
  "linkReferences": {},
  "deployedLinkReferences": {}
}