{
  "_format": "hh-sol-artifact-1",
  "contractName": "SignedQuoteRiskModule",
  "sourceName": "contracts/SignedQuoteRiskModule.sol",
  "abi": [
    {
      "inputs": [
        {
          "internalType": "contract IPolicyPool",
          "name": "policyPool_",
          "type": "address"
        },
        {
          "internalType": "contract IPremiumsAccount",
          "name": "premiumsAccount_",
          "type": "address"
        },
        {
          "internalType": "bool",
          "name": "creationIsOpen_",
          "type": "bool"
        }
      ],
      "stateMutability": "nonpayable",
      "type": "constructor"
    },
    {
      "anonymous": false,
      "inputs": [
        {
          "indexed": false,
          "internalType": "address",
          "name": "previousAdmin",
          "type": "address"
        },
        {
          "indexed": false,
          "internalType": "address",
          "name": "newAdmin",
          "type": "address"
        }
      ],
      "name": "AdminChanged",
      "type": "event"
    },
    {
      "anonymous": false,
      "inputs": [
        {
          "indexed": true,
          "internalType": "address",
          "name": "beacon",
          "type": "address"
        }
      ],
      "name": "BeaconUpgraded",
      "type": "event"
    },
    {
      "anonymous": false,
      "inputs": [
        {
          "indexed": true,
          "internalType": "enum IAccessManager.GovernanceActions",
          "name": "action",
          "type": "uint8"
        },
        {
          "indexed": false,
          "internalType": "address",
          "name": "value",
          "type": "address"
        }
      ],
      "name": "ComponentChanged",
      "type": "event"
    },
    {
      "anonymous": false,
      "inputs": [
        {
          "indexed": true,
          "internalType": "enum IAccessManager.GovernanceActions",
          "name": "action",
          "type": "uint8"
        },
        {
          "indexed": false,
          "internalType": "uint256",
          "name": "value",
          "type": "uint256"
        }
      ],
      "name": "GovernanceAction",
      "type": "event"
    },
    {
      "anonymous": false,
      "inputs": [
        {
          "indexed": false,
          "internalType": "uint8",
          "name": "version",
          "type": "uint8"
        }
      ],
      "name": "Initialized",
      "type": "event"
    },
    {
      "anonymous": false,
      "inputs": [
        {
          "indexed": true,
          "internalType": "uint256",
          "name": "policyId",
          "type": "uint256"
        },
        {
          "indexed": false,
          "internalType": "bytes32",
          "name": "policyData",
          "type": "bytes32"
        }
      ],
      "name": "NewSignedPolicy",
      "type": "event"
    },
    {
      "anonymous": false,
      "inputs": [
        {
          "indexed": false,
          "internalType": "address",
          "name": "account",
          "type": "address"
        }
      ],
      "name": "Paused",
      "type": "event"
    },
    {
      "anonymous": false,
      "inputs": [
        {
          "indexed": false,
          "internalType": "address",
          "name": "account",
          "type": "address"
        }
      ],
      "name": "Unpaused",
      "type": "event"
    },
    {
      "anonymous": false,
      "inputs": [
        {
          "indexed": true,
          "internalType": "address",
          "name": "implementation",
          "type": "address"
        }
      ],
      "name": "Upgraded",
      "type": "event"
    },
    {
      "inputs": [],
      "name": "GUARDIAN_ROLE",
      "outputs": [
        {
          "internalType": "bytes32",
          "name": "",
          "type": "bytes32"
        }
      ],
      "stateMutability": "view",
      "type": "function"
    },
    {
      "inputs": [],
      "name": "LEVEL1_ROLE",
      "outputs": [
        {
          "internalType": "bytes32",
          "name": "",
          "type": "bytes32"
        }
      ],
      "stateMutability": "view",
      "type": "function"
    },
    {
      "inputs": [],
      "name": "LEVEL2_ROLE",
      "outputs": [
        {
          "internalType": "bytes32",
          "name": "",
          "type": "bytes32"
        }
      ],
      "stateMutability": "view",
      "type": "function"
    },
    {
      "inputs": [],
      "name": "LEVEL3_ROLE",
      "outputs": [
        {
          "internalType": "bytes32",
          "name": "",
          "type": "bytes32"
        }
      ],
      "stateMutability": "view",
      "type": "function"
    },
    {
      "inputs": [],
      "name": "POLICY_CREATOR_ROLE",
      "outputs": [
        {
          "internalType": "bytes32",
          "name": "",
          "type": "bytes32"
        }
      ],
      "stateMutability": "view",
      "type": "function"
    },
    {
      "inputs": [],
      "name": "PRICER_ROLE",
      "outputs": [
        {
          "internalType": "bytes32",
          "name": "",
          "type": "bytes32"
        }
      ],
      "stateMutability": "view",
      "type": "function"
    },
    {
      "inputs": [],
      "name": "RESOLVER_ROLE",
      "outputs": [
        {
          "internalType": "bytes32",
          "name": "",
          "type": "bytes32"
        }
      ],
      "stateMutability": "view",
      "type": "function"
    },
    {
      "inputs": [],
      "name": "RM_PROVIDER_ROLE",
      "outputs": [
        {
          "internalType": "bytes32",
          "name": "",
          "type": "bytes32"
        }
      ],
      "stateMutability": "view",
      "type": "function"
    },
    {
      "inputs": [],
      "name": "TWEAK_EXPIRATION",
      "outputs": [
        {
          "internalType": "uint40",
          "name": "",
          "type": "uint40"
        }
      ],
      "stateMutability": "view",
      "type": "function"
    },
    {
      "inputs": [],
      "name": "activeExposure",
      "outputs": [
        {
          "internalType": "uint256",
          "name": "",
          "type": "uint256"
        }
      ],
      "stateMutability": "view",
      "type": "function"
    },
    {
      "inputs": [],
      "name": "currency",
      "outputs": [
        {
          "internalType": "contract IERC20Metadata",
          "name": "",
          "type": "address"
        }
      ],
      "stateMutability": "view",
      "type": "function"
    },
    {
      "inputs": [],
      "name": "exposureLimit",
      "outputs": [
        {
          "internalType": "uint256",
          "name": "",
          "type": "uint256"
        }
      ],
      "stateMutability": "view",
      "type": "function"
    },
    {
      "inputs": [
        {
          "internalType": "uint256",
          "name": "payout",
          "type": "uint256"
        },
        {
          "internalType": "uint256",
          "name": "lossProb",
          "type": "uint256"
        },
        {
          "internalType": "uint40",
          "name": "expiration",
          "type": "uint40"
        }
      ],
      "name": "getMinimumPremium",
      "outputs": [
        {
          "internalType": "uint256",
          "name": "",
          "type": "uint256"
        }
      ],
      "stateMutability": "view",
      "type": "function"
    },
    {
      "inputs": [
        {
          "internalType": "string",
          "name": "name_",
          "type": "string"
        },
        {
          "internalType": "uint256",
          "name": "collRatio_",
          "type": "uint256"
        },
        {
          "internalType": "uint256",
          "name": "ensuroPpFee_",
          "type": "uint256"
        },
        {
          "internalType": "uint256",
          "name": "srRoc_",
          "type": "uint256"
        },
        {
          "internalType": "uint256",
          "name": "maxPayoutPerPolicy_",
          "type": "uint256"
        },
        {
          "internalType": "uint256",
          "name": "exposureLimit_",
          "type": "uint256"
        },
        {
          "internalType": "address",
          "name": "wallet_",
          "type": "address"
        }
      ],
      "name": "initialize",
      "outputs": [],
      "stateMutability": "nonpayable",
      "type": "function"
    },
    {
      "inputs": [],
      "name": "lastTweak",
      "outputs": [
        {
          "internalType": "uint40",
          "name": "",
          "type": "uint40"
        },
        {
          "internalType": "uint56",
          "name": "",
          "type": "uint56"
        }
      ],
      "stateMutability": "view",
      "type": "function"
    },
    {
      "inputs": [],
      "name": "maxDuration",
      "outputs": [
        {
          "internalType": "uint256",
          "name": "",
          "type": "uint256"
        }
      ],
      "stateMutability": "view",
      "type": "function"
    },
    {
      "inputs": [],
      "name": "maxPayoutPerPolicy",
      "outputs": [
        {
          "internalType": "uint256",
          "name": "",
          "type": "uint256"
        }
      ],
      "stateMutability": "view",
      "type": "function"
    },
    {
      "inputs": [],
      "name": "name",
      "outputs": [
        {
          "internalType": "string",
          "name": "",
          "type": "string"
        }
      ],
      "stateMutability": "view",
      "type": "function"
    },
    {
      "inputs": [
        {
          "internalType": "uint256",
          "name": "payout",
          "type": "uint256"
        },
        {
          "internalType": "uint256",
          "name": "premium",
          "type": "uint256"
        },
        {
          "internalType": "uint256",
          "name": "lossProb",
          "type": "uint256"
        },
        {
          "internalType": "uint40",
          "name": "expiration",
          "type": "uint40"
        },
        {
          "internalType": "address",
          "name": "onBehalfOf",
          "type": "address"
        },
        {
          "internalType": "bytes32",
          "name": "policyData",
          "type": "bytes32"
        },
        {
          "internalType": "bytes32",
          "name": "quoteSignatureR",
          "type": "bytes32"
        },
        {
          "internalType": "bytes32",
          "name": "quoteSignatureVS",
          "type": "bytes32"
        },
        {
          "internalType": "uint40",
          "name": "quoteValidUntil",
          "type": "uint40"
        }
      ],
      "name": "newPolicy",
      "outputs": [
        {
          "internalType": "uint256",
          "name": "",
          "type": "uint256"
        }
      ],
      "stateMutability": "nonpayable",
      "type": "function"
    },
    {
      "inputs": [
        {
          "internalType": "uint256",
          "name": "payout",
          "type": "uint256"
        },
        {
          "internalType": "uint256",
          "name": "premium",
          "type": "uint256"
        },
        {
          "internalType": "uint256",
          "name": "lossProb",
          "type": "uint256"
        },
        {
          "internalType": "uint40",
          "name": "expiration",
          "type": "uint40"
        },
        {
          "internalType": "address",
          "name": "onBehalfOf",
          "type": "address"
        },
        {
          "internalType": "bytes32",
          "name": "policyData",
          "type": "bytes32"
        },
        {
          "internalType": "bytes32",
          "name": "quoteSignatureR",
          "type": "bytes32"
        },
        {
          "internalType": "bytes32",
          "name": "quoteSignatureVS",
          "type": "bytes32"
        },
        {
          "internalType": "uint40",
          "name": "quoteValidUntil",
          "type": "uint40"
        }
      ],
      "name": "newPolicyPaidByHolder",
      "outputs": [
        {
          "internalType": "uint256",
          "name": "",
          "type": "uint256"
        }
      ],
      "stateMutability": "nonpayable",
      "type": "function"
    },
    {
      "inputs": [],
      "name": "params",
      "outputs": [
        {
          "components": [
            {
              "internalType": "uint256",
              "name": "moc",
              "type": "uint256"
            },
            {
              "internalType": "uint256",
              "name": "jrCollRatio",
              "type": "uint256"
            },
            {
              "internalType": "uint256",
              "name": "collRatio",
              "type": "uint256"
            },
            {
              "internalType": "uint256",
              "name": "ensuroPpFee",
              "type": "uint256"
            },
            {
              "internalType": "uint256",
              "name": "ensuroCocFee",
              "type": "uint256"
            },
            {
              "internalType": "uint256",
              "name": "jrRoc",
              "type": "uint256"
            },
            {
              "internalType": "uint256",
              "name": "srRoc",
              "type": "uint256"
            }
          ],
          "internalType": "struct IRiskModule.Params",
          "name": "ret",
          "type": "tuple"
        }
      ],
      "stateMutability": "view",
      "type": "function"
    },
    {
      "inputs": [],
      "name": "pause",
      "outputs": [],
      "stateMutability": "nonpayable",
      "type": "function"
    },
    {
      "inputs": [],
      "name": "paused",
      "outputs": [
        {
          "internalType": "bool",
          "name": "",
          "type": "bool"
        }
      ],
      "stateMutability": "view",
      "type": "function"
    },
    {
      "inputs": [],
      "name": "policyPool",
      "outputs": [
        {
          "internalType": "contract IPolicyPool",
          "name": "",
          "type": "address"
        }
      ],
      "stateMutability": "view",
      "type": "function"
    },
    {
      "inputs": [],
      "name": "premiumsAccount",
      "outputs": [
        {
          "internalType": "contract IPremiumsAccount",
          "name": "",
          "type": "address"
        }
      ],
      "stateMutability": "view",
      "type": "function"
    },
    {
      "inputs": [],
      "name": "proxiableUUID",
      "outputs": [
        {
          "internalType": "bytes32",
          "name": "",
          "type": "bytes32"
        }
      ],
      "stateMutability": "view",
      "type": "function"
    },
    {
      "inputs": [
        {
          "internalType": "uint256",
          "name": "payout",
          "type": "uint256"
        }
      ],
      "name": "releaseExposure",
      "outputs": [],
      "stateMutability": "nonpayable",
      "type": "function"
    },
    {
      "inputs": [
        {
          "components": [
            {
              "internalType": "uint256",
              "name": "id",
              "type": "uint256"
            },
            {
              "internalType": "uint256",
              "name": "payout",
              "type": "uint256"
            },
            {
              "internalType": "uint256",
              "name": "premium",
              "type": "uint256"
            },
            {
              "internalType": "uint256",
              "name": "jrScr",
              "type": "uint256"
            },
            {
              "internalType": "uint256",
              "name": "srScr",
              "type": "uint256"
            },
            {
              "internalType": "uint256",
              "name": "lossProb",
              "type": "uint256"
            },
            {
              "internalType": "uint256",
              "name": "purePremium",
              "type": "uint256"
            },
            {
              "internalType": "uint256",
              "name": "ensuroCommission",
              "type": "uint256"
            },
            {
              "internalType": "uint256",
              "name": "partnerCommission",
              "type": "uint256"
            },
            {
              "internalType": "uint256",
              "name": "jrCoc",
              "type": "uint256"
            },
            {
              "internalType": "uint256",
              "name": "srCoc",
              "type": "uint256"
            },
            {
              "internalType": "contract IRiskModule",
              "name": "riskModule",
              "type": "address"
            },
            {
              "internalType": "uint40",
              "name": "start",
              "type": "uint40"
            },
            {
              "internalType": "uint40",
              "name": "expiration",
              "type": "uint40"
            }
          ],
          "internalType": "struct Policy.PolicyData",
          "name": "policy",
          "type": "tuple"
        },
        {
          "internalType": "uint256",
          "name": "payout",
          "type": "uint256"
        }
      ],
      "name": "resolvePolicy",
      "outputs": [],
      "stateMutability": "nonpayable",
      "type": "function"
    },
    {
      "inputs": [
        {
          "components": [
            {
              "internalType": "uint256",
              "name": "id",
              "type": "uint256"
            },
            {
              "internalType": "uint256",
              "name": "payout",
              "type": "uint256"
            },
            {
              "internalType": "uint256",
              "name": "premium",
              "type": "uint256"
            },
            {
              "internalType": "uint256",
              "name": "jrScr",
              "type": "uint256"
            },
            {
              "internalType": "uint256",
              "name": "srScr",
              "type": "uint256"
            },
            {
              "internalType": "uint256",
              "name": "lossProb",
              "type": "uint256"
            },
            {
              "internalType": "uint256",
              "name": "purePremium",
              "type": "uint256"
            },
            {
              "internalType": "uint256",
              "name": "ensuroCommission",
              "type": "uint256"
            },
            {
              "internalType": "uint256",
              "name": "partnerCommission",
              "type": "uint256"
            },
            {
              "internalType": "uint256",
              "name": "jrCoc",
              "type": "uint256"
            },
            {
              "internalType": "uint256",
              "name": "srCoc",
              "type": "uint256"
            },
            {
              "internalType": "contract IRiskModule",
              "name": "riskModule",
              "type": "address"
            },
            {
              "internalType": "uint40",
              "name": "start",
              "type": "uint40"
            },
            {
              "internalType": "uint40",
              "name": "expiration",
              "type": "uint40"
            }
          ],
          "internalType": "struct Policy.PolicyData",
          "name": "policy",
          "type": "tuple"
        },
        {
          "internalType": "bool",
          "name": "customerWon",
          "type": "bool"
        }
      ],
      "name": "resolvePolicyFullPayout",
      "outputs": [],
      "stateMutability": "nonpayable",
      "type": "function"
    },
    {
      "inputs": [
        {
          "internalType": "enum IRiskModule.Parameter",
          "name": "param",
          "type": "uint8"
        },
        {
          "internalType": "uint256",
          "name": "newValue",
          "type": "uint256"
        }
      ],
      "name": "setParam",
      "outputs": [],
      "stateMutability": "nonpayable",
      "type": "function"
    },
    {
      "inputs": [
        {
          "internalType": "address",
          "name": "wallet_",
          "type": "address"
        }
      ],
      "name": "setWallet",
      "outputs": [],
      "stateMutability": "nonpayable",
      "type": "function"
    },
    {
      "inputs": [],
      "name": "unpause",
      "outputs": [],
      "stateMutability": "nonpayable",
      "type": "function"
    },
    {
      "inputs": [
        {
          "internalType": "address",
          "name": "newImplementation",
          "type": "address"
        }
      ],
      "name": "upgradeTo",
      "outputs": [],
      "stateMutability": "nonpayable",
      "type": "function"
    },
    {
      "inputs": [
        {
          "internalType": "address",
          "name": "newImplementation",
          "type": "address"
        },
        {
          "internalType": "bytes",
          "name": "data",
          "type": "bytes"
        }
      ],
      "name": "upgradeToAndCall",
      "outputs": [],
      "stateMutability": "payable",
      "type": "function"
    },
    {
      "inputs": [],
      "name": "wallet",
      "outputs": [
        {
          "internalType": "address",
          "name": "",
          "type": "address"
        }
      ],
      "stateMutability": "view",
      "type": "function"
    }
  ],
  "bytecode": "0x610100604052306080523480156200001657600080fd5b50604051620056153803806200561583398101604081905262000039916200016a565b828281806001600160a01b031660a0816001600160a01b03168152505050816001600160a01b0316816001600160a01b0316634d15eb036040518163ffffffff1660e01b8152600401602060405180830381865afa158015620000a0573d6000803e3d6000fd5b505050506040513d601f19601f82011682018060405250810190620000c69190620001c2565b6001600160a01b031614620001365760405162461bcd60e51b815260206004820152602c60248201527f546865205072656d69756d734163636f756e74206d757374206265207061727460448201526b081bd9881d1a1948141bdbdb60a21b606482015260840160405180910390fd5b6001600160a01b031660c05250151560e05250620001e99050565b6001600160a01b03811681146200016757600080fd5b50565b6000806000606084860312156200018057600080fd5b83516200018d8162000151565b6020850151909350620001a08162000151565b60408501519092508015158114620001b757600080fd5b809150509250925092565b600060208284031215620001d557600080fd5b8151620001e28162000151565b9392505050565b60805160a05160c05160e05161534a620002cb6000396000611f65015260006104cc0152600081816103680152818161090b01528181610c9901528181610e2d01528181610f2e01528181610fad015281816112a4015281816113a101528181611c7101528181611d8301528181611e2601528181611f2a01528181611f8a01528181612155015281816122e5015281816123cb0152818161289e01528181612da601528181612e4501528181612f3301526131bf01526000818161080d0152818161085601528181610a0501528181610a450152610ad4015261534a6000f3fe6080604052600436106102045760003560e01c80636f0dbe6f11610118578063a9a24f27116100a0578063deaa59df1161006f578063deaa59df146106a4578063e5a6b10f146106c4578063f67b2bad146106d9578063fbb81279146106fb578063ffa600e31461072f57600080fd5b8063a9a24f27146105d0578063c1cca2b314610604578063cfd4c60614610624578063cff0ab961461063957600080fd5b80637ed5acfa116100e75780637ed5acfa146105445780637ff8bf25146105715780638456cb591461058657806385272a6e1461059b5780638bac3a24146105b057600080fd5b80636f0dbe6f1461049d57806373a952e8146104bd57806378fab260146104f05780637a702b3c1461052457600080fd5b80634d15eb031161019b5780635b494dd51161016a5780635b494dd5146103e65780635c975abb1461041a578063655330241461043d5780636a448ef11461045d5780636db5c8fd1461047d57600080fd5b80634d15eb03146103595780634f1ef286146103a0578063521eb273146103b357806352d1902d146103d157600080fd5b80633f4ba83a116101d75780633f4ba83a146102a257806345f739ff146102b7578063468a8c9f146102eb5780634a47a3e01461032557600080fd5b806305918a791461020957806306fdde031461023c57806324ea54f41461025e5780633659cfe614610280575b600080fd5b34801561021557600080fd5b506102296102243660046146eb565b61074f565b6040519081526020015b60405180910390f35b34801561024857600080fd5b50610251610771565b604051610233919061478f565b34801561026a57600080fd5b506102296000805160206152f583398151915281565b34801561028c57600080fd5b506102a061029b3660046147c2565b610803565b005b3480156102ae57600080fd5b506102a06108eb565b3480156102c357600080fd5b506102297f90fe2ba5da14f172ed5a0a0fec391dbf8f191c9a2f3557d79ede5d6b1c1c9ffb81565b3480156102f757600080fd5b5060c9546040805164ffffffffff83168152600160281b90920466ffffffffffffff16602083015201610233565b34801561033157600080fd5b506102297fa82e22387fca439f316d78ca566f383218ab8ae1b3e830178c9c82cbd16749c081565b34801561036557600080fd5b507f00000000000000000000000000000000000000000000000000000000000000005b6040516001600160a01b039091168152602001610233565b6102a06103ae36600461486b565b6109fb565b3480156103bf57600080fd5b5060cd546001600160a01b0316610388565b3480156103dd57600080fd5b50610229610ac7565b3480156103f257600080fd5b506102297f5ec196419322369c6bac572d883f4d990ae5ec82f7d93cdf89b85dbb05b63c2781565b34801561042657600080fd5b5060975460ff166040519015158152602001610233565b34801561044957600080fd5b506102296104583660046146eb565b610b7a565b34801561046957600080fd5b506102a06104783660046148cf565b610c96565b34801561048957600080fd5b5060cb54600160b01b900461ffff16610229565b3480156104a957600080fd5b506102a06104b83660046148e8565b610d32565b3480156104c957600080fd5b507f0000000000000000000000000000000000000000000000000000000000000000610388565b3480156104fc57600080fd5b506102297f92a19c77d2ea87c7f81d50c74403cb2f401780f3ad919571121efe2bdb427eb181565b34801561053057600080fd5b506102a061053f366004614997565b610e0a565b34801561055057600080fd5b5061055b6201518081565b60405164ffffffffff9091168152602001610233565b34801561057d57600080fd5b5060cc54610229565b34801561059257600080fd5b506102a0610f9c565b3480156105a757600080fd5b50610229611097565b3480156105bc57600080fd5b506102296105cb3660046149c4565b6110ba565b3480156105dc57600080fd5b506102297f0df0a8869cf58168a14cd7ac426ff1b8c6ff5d5c800c6f44803f3431dcb3bad181565b34801561061057600080fd5b506102a061061f3660046149f9565b61124f565b34801561063057600080fd5b50610229611b12565b34801561064557600080fd5b5061064e611b31565b6040516102339190600060e082019050825182526020830151602083015260408301516040830152606083015160608301526080830151608083015260a083015160a083015260c083015160c083015292915050565b3480156106b057600080fd5b506102a06106bf3660046147c2565b611c4e565b3480156106d057600080fd5b50610388611d7f565b3480156106e557600080fd5b506102296000805160206152ae83398151915281565b34801561070757600080fd5b506102297fc6823861ee2bb2198ce6b1fd6faf4c8f44f745bc804aca4a762f67e0d507fd8a81565b34801561073b57600080fd5b506102a061074a366004614a37565b611e03565b60006107638a8a8a8a89898989338f611f61565b9a9950505050505050505050565b606060ca805461078090614a71565b80601f01602080910402602001604051908101604052809291908181526020018280546107ac90614a71565b80156107f95780601f106107ce576101008083540402835291602001916107f9565b820191906000526020600020905b8154815290600101906020018083116107dc57829003601f168201915b5050505050905090565b6001600160a01b037f00000000000000000000000000000000000000000000000000000000000000001630036108545760405162461bcd60e51b815260040161084b90614aa5565b60405180910390fd5b7f00000000000000000000000000000000000000000000000000000000000000006001600160a01b031661089d60008051602061528e833981519152546001600160a01b031690565b6001600160a01b0316146108c35760405162461bcd60e51b815260040161084b90614af1565b6108cc816122c5565b604080516000808252602082019092526108e8918391906124bf565b50565b6000805160206152f58339815191526000805160206152ae8339815191527f00000000000000000000000000000000000000000000000000000000000000006001600160a01b03166371907f176040518163ffffffff1660e01b8152600401602060405180830381865afa158015610967573d6000803e3d6000fd5b505050506040513d601f19601f8201168201806040525081019061098b9190614b3d565b6001600160a01b0316632b1cff1f3084843360016040518663ffffffff1660e01b81526004016109bf959493929190614b5a565b60006040518083038186803b1580156109d757600080fd5b505afa1580156109eb573d6000803e3d6000fd5b505050506109f761262a565b5050565b6001600160a01b037f0000000000000000000000000000000000000000000000000000000000000000163003610a435760405162461bcd60e51b815260040161084b90614aa5565b7f00000000000000000000000000000000000000000000000000000000000000006001600160a01b0316610a8c60008051602061528e833981519152546001600160a01b031690565b6001600160a01b031614610ab25760405162461bcd60e51b815260040161084b90614af1565b610abb826122c5565b6109f7828260016124bf565b6000306001600160a01b037f00000000000000000000000000000000000000000000000000000000000000001614610b675760405162461bcd60e51b815260206004820152603860248201527f555550535570677261646561626c653a206d757374206e6f742062652063616c60448201527f6c6564207468726f7567682064656c656761746563616c6c0000000000000000606482015260840161084b565b5060008051602061528e83398151915290565b60006001600160a01b038616331480610c1957506000610b98611d7f565b6001600160a01b031663dd62ed3e88336040516001600160e01b031960e085901b1681526001600160a01b03928316600482015291166024820152604401602060405180830381865afa158015610bf3573d6000803e3d6000fd5b505050506040513d601f19601f82011682018060405250810190610c179190614b8d565b115b610c845760405162461bcd60e51b815260206004820152603660248201527f53656e646572206973206e6f7420617574686f72697a656420746f20637265616044820152753a32903837b634b1b4b2b99037b72132b430b63327b360511b606482015260840161084b565b6107638a8a8a8a898989898e8f611f61565b337f00000000000000000000000000000000000000000000000000000000000000006001600160a01b031614610d185760405162461bcd60e51b815260206004820152602160248201527f5468652063616c6c6572206d7573742062652074686520506f6c696379506f6f6044820152601b60fa1b606482015260840161084b565b8060cc6000828254610d2a9190614bbc565b909155505050565b600054610100900460ff1615808015610d525750600054600160ff909116105b80610d6c5750303b158015610d6c575060005460ff166001145b610d885760405162461bcd60e51b815260040161084b90614bcf565b6000805460ff191660011790558015610dab576000805461ff0019166101001790555b610dba8888888888888861267c565b8015610e00576000805461ff0019169055604051600181527f7f26b83ff96e1f2b6a682f133852f6798a09c465da95921460cefb38474024989060200160405180910390a15b5050505050505050565b7f92a19c77d2ea87c7f81d50c74403cb2f401780f3ad919571121efe2bdb427eb17f00000000000000000000000000000000000000000000000000000000000000006001600160a01b03166371907f176040518163ffffffff1660e01b8152600401602060405180830381865afa158015610e89573d6000803e3d6000fd5b505050506040513d601f19601f82011682018060405250810190610ead9190614b3d565b6001600160a01b0316635ff57d2030833360006040518563ffffffff1660e01b8152600401610edf9493929190614c1d565b60006040518083038186803b158015610ef757600080fd5b505afa158015610f0b573d6000803e3d6000fd5b50505050610f1761270c565b604051631e9c0acf60e21b81526001600160a01b037f00000000000000000000000000000000000000000000000000000000000000001690637a702b3c90610f659086908690600401614d13565b600060405180830381600087803b158015610f7f57600080fd5b505af1158015610f93573d6000803e3d6000fd5b50505050505050565b6000805160206152f58339815191527f00000000000000000000000000000000000000000000000000000000000000006001600160a01b03166371907f176040518163ffffffff1660e01b8152600401602060405180830381865afa158015611009573d6000803e3d6000fd5b505050506040513d601f19601f8201168201806040525081019061102d9190614b3d565b6001600160a01b0316635ff57d2030833360016040518563ffffffff1660e01b815260040161105f9493929190614c1d565b60006040518083038186803b15801561107757600080fd5b505afa15801561108b573d6000803e3d6000fd5b505050506108e8612754565b60cb546000906110b5908290600160901b900463ffffffff16612791565b905090565b6000806110c5611b31565b905060006110ea6110e383600001518761282b90919063ffffffff16565b879061282b565b9050600061110583602001518861282b90919063ffffffff16565b905081811115611120576111198282614bbc565b9050611124565b5060005b600061113d84604001518961282b90919063ffffffff16565b90506111498284614d30565b81111561116b5761115a8284614d30565b6111649082614bbc565b905061116f565b5060005b60006111b06111a96a1a1601fc4ea7109e0000006111944264ffffffffff8c16614bbc565b8860a001516111a39190614d43565b90612863565b849061282b565b905060006111e66111a96a1a1601fc4ea7109e0000006111d74264ffffffffff8d16614bbc565b8960c001516111a39190614d43565b90506000611204876080015183856111fe9190614d30565b9061282b565b606088015161121490889061282b565b61121e9190614d30565b905061122a8284614d30565b6112348288614d30565b61123e9190614d30565b9750505050505050505b9392505050565b6000805160206152ae8339815191527fa82e22387fca439f316d78ca566f383218ab8ae1b3e830178c9c82cbd16749c07f5ec196419322369c6bac572d883f4d990ae5ec82f7d93cdf89b85dbb05b63c2760007f00000000000000000000000000000000000000000000000000000000000000006001600160a01b03166371907f176040518163ffffffff1660e01b8152600401602060405180830381865afa158015611300573d6000803e3d6000fd5b505050506040513d601f19601f820116820180604052508101906113249190614b3d565b6040516359f7e5e960e11b81529091506001600160a01b0382169063b3efcbd29061135a90309088903390600190600401614c1d565b602060405180830381865afa158015611377573d6000803e3d6000fd5b505050506040513d601f19601f8201168201806040525081019061139b9190614d62565b611486577f00000000000000000000000000000000000000000000000000000000000000006001600160a01b03166371907f176040518163ffffffff1660e01b8152600401602060405180830381865afa1580156113fd573d6000803e3d6000fd5b505050506040513d601f19601f820116820180604052508101906114219190614b3d565b6001600160a01b0316632b1cff1f3085853360016040518663ffffffff1660e01b8152600401611455959493929190614b5a565b60006040518083038186803b15801561146d57600080fd5b505afa158015611481573d6000803e3d6000fd5b505050505b60006114b17fa82e22387fca439f316d78ca566f383218ab8ae1b3e830178c9c82cbd16749c061289a565b1580156114d257506114d06000805160206152ae83398151915261289a565b155b905060008760098111156114e8576114e8614d7f565b0361155857801580611518575060cb54611518906115099061ffff16612991565b8767016345785d8a00006129a7565b6115345760405162461bcd60e51b815260040161084b90614d95565b61153d86612a2e565b60cb805461ffff191661ffff92909216919091179055611ada565b600187600981111561156c5761156c614d7f565b036115dc57801580611593575060cb54611593906115099062010000900461ffff16612991565b6115af5760405162461bcd60e51b815260040161084b90614d95565b6115b886612a2e565b60cb805461ffff92909216620100000263ffff000019909216919091179055611ada565b60028760098111156115f0576115f0614d7f565b0361166457801580611618575060cb546116189061150990600160201b900461ffff16612991565b6116345760405162461bcd60e51b815260040161084b90614d95565b61163d86612a2e565b60cb805461ffff92909216600160201b0265ffff0000000019909216919091179055611ada565b600387600981111561167857611678614d7f565b036116ee578015806116a0575060cb546116a09061150990600160301b900461ffff16612991565b6116bc5760405162461bcd60e51b815260040161084b90614d95565b6116c586612a2e565b60cb805461ffff92909216600160301b0267ffff00000000000019909216919091179055611ada565b600487600981111561170257611702614d7f565b0361177a5780158061172a575060cb5461172a9061150990600160401b900461ffff16612991565b6117465760405162461bcd60e51b815260040161084b90614d95565b61174f86612a2e565b60cb805461ffff92909216600160401b0269ffff000000000000000019909216919091179055611ada565b600587600981111561178e5761178e614d7f565b03611801578015806117b6575060cb546117b69061150990600160501b900461ffff16612991565b6117d25760405162461bcd60e51b815260040161084b90614d95565b6117db86612a2e565b60cb805461ffff92909216600160501b0261ffff60501b19909216919091179055611ada565b600687600981111561181557611815614d7f565b036118885780158061183d575060cb5461183d9061150990600160601b900461ffff16612991565b6118595760405162461bcd60e51b815260040161084b90614d95565b61186286612a2e565b60cb805461ffff92909216600160601b0261ffff60601b19909216919091179055611ada565b600787600981111561189c5761189c614d7f565b03611905578015806118b457506118b4611509611b12565b6118d05760405162461bcd60e51b815260040161084b90614d95565b6118db600287612a48565b60cb805463ffffffff92909216600160701b0263ffffffff60701b19909216919091179055611ada565b600887600981111561191957611919614d7f565b03611a785760cc5486101561198a5760405162461bcd60e51b815260206004820152603160248201527f43616e277420736574206578706f737572654c696d6974206c657373207468616044820152706e20616374697665206578706f7375726560781b606482015260840161084b565b80158061199d575061199d611509611097565b6119b95760405162461bcd60e51b815260040161084b90614d95565b6119c1611097565b861115806119e157506119e16000805160206152ae83398151915261289a565b611a435760405162461bcd60e51b815260206004820152602d60248201527f547765616b2065786365656465643a20496e637265617365207265717569726560448201526c73204c4556454c315f524f4c4560981b606482015260840161084b565b611a4e600087612a48565b60cb805463ffffffff92909216600160901b0263ffffffff60901b19909216919091179055611ada565b6009876009811115611a8c57611a8c614d7f565b03611ada578015611aaf5760405162461bcd60e51b815260040161084b90614d95565b611ab886612adb565b60cb805461ffff92909216600160b01b0261ffff60b01b199092169190911790555b610f93876009811115611aef57611aef614d7f565b611afa906008614d30565b602d811115611b0b57611b0b614d7f565b8783612b42565b60cb546000906110b590600290600160701b900463ffffffff16612791565b611b716040518060e00160405280600081526020016000815260200160008152602001600081526020016000815260200160008152602001600081525090565b6040805160e0810190915260cb548190611b8e9061ffff16612991565b815260cb54602090910190611bac9062010000900461ffff16612991565b815260cb54602090910190611bcb90600160201b900461ffff16612991565b815260cb54602090910190611bea90600160301b900461ffff16612991565b815260cb54602090910190611c0990600160401b900461ffff16612991565b815260cb54602090910190611c2890600160501b900461ffff16612991565b815260cb54602090910190611c4790600160601b900461ffff16612991565b9052919050565b7f0df0a8869cf58168a14cd7ac426ff1b8c6ff5d5c800c6f44803f3431dcb3bad17f00000000000000000000000000000000000000000000000000000000000000006001600160a01b03166371907f176040518163ffffffff1660e01b8152600401602060405180830381865afa158015611ccd573d6000803e3d6000fd5b505050506040513d601f19601f82011682018060405250810190611cf19190614b3d565b6001600160a01b0316635ff57d2030833360006040518563ffffffff1660e01b8152600401611d239493929190614c1d565b60006040518083038186803b158015611d3b57600080fd5b505afa158015611d4f573d6000803e3d6000fd5b505060cd80546001600160a01b0319166001600160a01b0386169081179091556109f79250601291506000612b42565b60007f00000000000000000000000000000000000000000000000000000000000000006001600160a01b031663e5a6b10f6040518163ffffffff1660e01b8152600401602060405180830381865afa158015611ddf573d6000803e3d6000fd5b505050506040513d601f19601f820116820180604052508101906110b59190614b3d565b7f92a19c77d2ea87c7f81d50c74403cb2f401780f3ad919571121efe2bdb427eb17f00000000000000000000000000000000000000000000000000000000000000006001600160a01b03166371907f176040518163ffffffff1660e01b8152600401602060405180830381865afa158015611e82573d6000803e3d6000fd5b505050506040513d601f19601f82011682018060405250810190611ea69190614b3d565b6001600160a01b0316635ff57d2030833360006040518563ffffffff1660e01b8152600401611ed89493929190614c1d565b60006040518083038186803b158015611ef057600080fd5b505afa158015611f04573d6000803e3d6000fd5b50505050611f1061270c565b60405160016259ff1d60e01b031981526001600160a01b037f0000000000000000000000000000000000000000000000000000000000000000169063ffa600e390610f659086908690600401614dbd565b60007f000000000000000000000000000000000000000000000000000000000000000061208d577f00000000000000000000000000000000000000000000000000000000000000006001600160a01b03166371907f176040518163ffffffff1660e01b8152600401602060405180830381865afa158015611fe6573d6000803e3d6000fd5b505050506040513d601f19601f8201168201806040525081019061200a9190614b3d565b6001600160a01b0316635ff57d20307f90fe2ba5da14f172ed5a0a0fec391dbf8f191c9a2f3557d79ede5d6b1c1c9ffb3360006040518563ffffffff1660e01b815260040161205c9493929190614c1d565b60006040518083038186803b15801561207457600080fd5b505afa158015612088573d6000803e3d6000fd5b505050505b428464ffffffffff1610156120d45760405162461bcd60e51b815260206004820152600d60248201526c145d5bdd1948195e1c1a5c9959609a1b604482015260640161084b565b6040516001600160601b03193060601b166020820152603481018c9052605481018b9052607481018a90526001600160d81b031960d88a811b82166094840152609983018a905286901b1660b98201526000906121429060be01604051602081830303815290604052612ba3565b90506000612151828989612bde565b90507f00000000000000000000000000000000000000000000000000000000000000006001600160a01b03166371907f176040518163ffffffff1660e01b8152600401602060405180830381865afa1580156121b1573d6000803e3d6000fd5b505050506040513d601f19601f820116820180604052508101906121d59190614b3d565b6001600160a01b0316635ff57d20307fc6823861ee2bb2198ce6b1fd6faf4c8f44f745bc804aca4a762f67e0d507fd8a8460006040518563ffffffff1660e01b81526004016122279493929190614c1d565b60006040518083038186803b15801561223f57600080fd5b505afa158015612253573d6000803e3d6000fd5b506000925061226a9150600160601b90508b614df2565b905061227b8e8e8e8e8a8a87612c04565b516040518b815290945084907f3e4224c37ba48f27f735eecea98c4d71568b9825d0006b6e128aa73695e35f709060200160405180910390a25050509a9950505050505050505050565b6000805160206152f58339815191526000805160206152ae8339815191527f00000000000000000000000000000000000000000000000000000000000000006001600160a01b03166371907f176040518163ffffffff1660e01b8152600401602060405180830381865afa158015612341573d6000803e3d6000fd5b505050506040513d601f19601f820116820180604052508101906123659190614b3d565b6001600160a01b0316632b1cff1f3084843360016040518663ffffffff1660e01b8152600401612399959493929190614b5a565b60006040518083038186803b1580156123b157600080fd5b505afa1580156123c5573d6000803e3d6000fd5b505050507f00000000000000000000000000000000000000000000000000000000000000006001600160a01b0316836001600160a01b0316634d15eb036040518163ffffffff1660e01b8152600401602060405180830381865afa158015612431573d6000803e3d6000fd5b505050506040513d601f19601f820116820180604052508101906124559190614b3d565b6001600160a01b0316146124ba5760405162461bcd60e51b815260206004820152602660248201527f43616e27742075706772616465206368616e67696e672074686520506f6c696360448201526579506f6f6c2160d01b606482015260840161084b565b505050565b7f4910fdfa16fed3260ed0e7147f7cc6da11a60208b5b9406d12a635614ffd91435460ff16156124f2576124ba8361324d565b826001600160a01b03166352d1902d6040518163ffffffff1660e01b8152600401602060405180830381865afa92505050801561254c575060408051601f3d908101601f1916820190925261254991810190614b8d565b60015b6125af5760405162461bcd60e51b815260206004820152602e60248201527f45524331393637557067726164653a206e657720696d706c656d656e7461746960448201526d6f6e206973206e6f74205555505360901b606482015260840161084b565b60008051602061528e833981519152811461261e5760405162461bcd60e51b815260206004820152602960248201527f45524331393637557067726164653a20756e737570706f727465642070726f786044820152681a58589b195555525160ba1b606482015260840161084b565b506124ba8383836132e9565b612632613314565b6097805460ff191690557f5db9ee0a495bf2e6ff9c91a7834c1ba4fdd244a5e8aa4e537bd38aeae4b073aa335b6040516001600160a01b03909116815260200160405180910390a1565b600054610100900460ff161580801561269c5750600054600160ff909116105b806126b65750303b1580156126b6575060005460ff166001145b6126d25760405162461bcd60e51b815260040161084b90614bcf565b6000805460ff1916600117905580156126f5576000805461ff0019166101001790555b6126fd61335d565b610dba8888888888888861342e565b60975460ff16156127525760405162461bcd60e51b815260206004820152601060248201526f14185d5cd8589b194e881c185d5cd95960821b604482015260640161084b565b565b61275c61270c565b6097805460ff191660011790557f62e78cea01bee320cd4e420270b5ea74000d11b0c9f74754ebdbfc544b05a25861265f3390565b60008261279c611d7f565b6001600160a01b031663313ce5676040518163ffffffff1660e01b8152600401602060405180830381865afa1580156127d9573d6000803e3d6000fd5b505050506040513d601f19601f820116820180604052508101906127fd9190614e06565b6128079190614e29565b61281290600a614f26565b6128229063ffffffff8416614d43565b90505b92915050565b600081156706f05b59d3b20000198390048411151761284957600080fd5b50670de0b6b3a764000091026706f05b59d3b20000010490565b60008115670de0b6b3a76400006002840419048411171561288357600080fd5b50670de0b6b3a76400009190910260028204010490565b60007f00000000000000000000000000000000000000000000000000000000000000006001600160a01b03166371907f176040518163ffffffff1660e01b8152600401602060405180830381865afa1580156128fa573d6000803e3d6000fd5b505050506040513d601f19601f8201168201806040525081019061291e9190614b3d565b6001600160a01b031663b3efcbd230843360016040518563ffffffff1660e01b81526004016129509493929190614c1d565b602060405180830381865afa15801561296d573d6000803e3d6000fd5b505050506040513d601f19601f820116820180604052508101906128259190614d62565b600061282561ffff8316655af3107a4000614d43565b60008284036129b857506001611248565b836000036129d25750670de0b6b3a7640000811015611248565b826000036129e257506000611248565b82841015612a115781670de0b6b3a76400006129fe8587612863565b612a089190614bbc565b11159050611248565b81612a1c8486612863565b612a0890670de0b6b3a7640000614bbc565b6000612825612a43655af3107a400084614f35565b612adb565b600061282283612a56611d7f565b6001600160a01b031663313ce5676040518163ffffffff1660e01b8152600401602060405180830381865afa158015612a93573d6000803e3d6000fd5b505050506040513d601f19601f82011682018060405250810190612ab79190614e06565b612ac19190614e29565b612acc90600a614f26565b612ad69084614f35565b61368e565b600061ffff821115612b3e5760405162461bcd60e51b815260206004820152602660248201527f53616665436173743a2076616c756520646f65736e27742066697420696e203160448201526536206269747360d01b606482015260840161084b565b5090565b612b4a6136f3565b8015612b5957612b5983613bec565b82602d811115612b6b57612b6b614d7f565b6040518381527f7bc647fe5043209e2019aa3503b79c1b0dd83eb61c56013d373a7584ff6bfb139060200160405180910390a2505050565b6000612baf8251613d4e565b82604051602001612bc1929190614f49565b604051602081830303815290604052805190602001209050919050565b6000806000612bee868686613e57565b91509150612bfb81613e90565b50949350505050565b612c0c614636565b612c1461270c565b6000198703612c2b57612c288887876110ba565b96505b878710612c7a5760405162461bcd60e51b815260206004820181905260248201527f5072656d69756d206d757374206265206c657373207468616e207061796f7574604482015260640161084b565b4264ffffffffff80821690871611612cd45760405162461bcd60e51b815260206004820181905260248201527f45787069726174696f6e206d75737420626520696e2074686520667574757265604482015260640161084b565b60cb54600160b01b900461ffff16610e10612cef8389614fa4565b612cf99190614fc9565b64ffffffffff1610612d4d5760405162461bcd60e51b815260206004820152601b60248201527f506f6c6963792065786365656473206d6178206475726174696f6e0000000000604482015260640161084b565b6001600160a01b038416612da35760405162461bcd60e51b815260206004820152601e60248201527f437573746f6d65722063616e2774206265207a65726f20616464726573730000604482015260640161084b565b877f00000000000000000000000000000000000000000000000000000000000000006001600160a01b031663e5a6b10f6040518163ffffffff1660e01b8152600401602060405180830381865afa158015612e02573d6000803e3d6000fd5b505050506040513d601f19601f82011682018060405250810190612e269190614b3d565b604051636eb1769f60e11b81526001600160a01b0388811660048301527f000000000000000000000000000000000000000000000000000000000000000081166024830152919091169063dd62ed3e90604401602060405180830381865afa158015612e96573d6000803e3d6000fd5b505050506040513d601f19601f82011682018060405250810190612eba9190614b8d565b1015612f1e5760405162461bcd60e51b815260206004820152602d60248201527f596f75206d75737420616c6c6f7720454e5355524f20746f207472616e73666560448201526c7220746865207072656d69756d60981b606482015260840161084b565b6001600160a01b0385163314806130355750877f00000000000000000000000000000000000000000000000000000000000000006001600160a01b031663e5a6b10f6040518163ffffffff1660e01b8152600401602060405180830381865afa158015612f8f573d6000803e3d6000fd5b505050506040513d601f19601f82011682018060405250810190612fb39190614b3d565b6001600160a01b031663dd62ed3e87336040516001600160e01b031960e085901b1681526001600160a01b03928316600482015291166024820152604401602060405180830381865afa15801561300e573d6000803e3d6000fd5b505050506040513d601f19601f820116820180604052508101906130329190614b8d565b10155b6130995760405162461bcd60e51b815260206004820152602f60248201527f5061796572206d75737420616c6c6f772063616c6c657220746f207472616e7360448201526e66657220746865207072656d69756d60881b606482015260840161084b565b6130a1611b12565b89111561310b5760405162461bcd60e51b815260206004820152603260248201527f5269736b4d6f64756c653a205061796f7574206973206d6f7265207468616e206044820152716d6178696d756d2070657220706f6c69637960701b606482015260840161084b565b600061312230613119611b31565b8b8d8c8c614046565b9050806020015160cc600082825461313a9190614d30565b909155506131489050611097565b60cc5411156131a55760405162461bcd60e51b815260206004820152602360248201527f5269736b4d6f64756c653a204578706f73757265206c696d697420657863656560448201526219195960ea1b606482015260840161084b565b604051636769a76f60e01b81526000906001600160a01b037f00000000000000000000000000000000000000000000000000000000000000001690636769a76f906131fa9085908b908b908b90600401614fed565b6020604051808303816000875af1158015613219573d6000803e3d6000fd5b505050506040513d601f19601f8201168201806040525081019061323d9190614b8d565b8252509998505050505050505050565b6001600160a01b0381163b6132ba5760405162461bcd60e51b815260206004820152602d60248201527f455243313936373a206e657720696d706c656d656e746174696f6e206973206e60448201526c1bdd08184818dbdb9d1c9858dd609a1b606482015260840161084b565b60008051602061528e83398151915280546001600160a01b0319166001600160a01b0392909216919091179055565b6132f283614353565b6000825111806132ff5750805b156124ba5761330e8383614393565b50505050565b60975460ff166127525760405162461bcd60e51b815260206004820152601460248201527314185d5cd8589b194e881b9bdd081c185d5cd95960621b604482015260640161084b565b600054610100900460ff161580801561337d5750600054600160ff909116105b806133975750303b158015613397575060005460ff166001145b6133b35760405162461bcd60e51b815260040161084b90614bcf565b6000805460ff1916600117905580156133d6576000805461ff0019166101001790555b6133de614487565b6133e66144ae565b80156108e8576000805461ff0019169055604051600181527f7f26b83ff96e1f2b6a682f133852f6798a09c465da95921460cefb38474024989060200160405180910390a150565b600054610100900460ff161580801561344e5750600054600160ff909116105b806134685750303b158015613468575060005460ff166001145b6134845760405162461bcd60e51b815260040161084b90614bcf565b6000805460ff1916600117905580156134a7576000805461ff0019166101001790555b60ca6134b38982615137565b5060408051610140810182526127108152600060208201529081016134d789612a2e565b61ffff1681526020016134e988612a2e565b61ffff168152600060208201819052604082015260600161350987612a2e565b61ffff16815260200161351d600287612a48565b63ffffffff168152602001613533600086612a48565b63ffffffff9081168252612238602092830152825160cb80549385015160408601516060870151608088015160a089015160c08a015160e08b01516101008c0151610120909c015161ffff998a1663ffffffff19909c169b909b1762010000978a16979097029690961767ffffffff000000001916600160201b9589169590950267ffff000000000000191694909417600160301b93881693909302929092176bffffffff00000000000000001916600160401b9187169190910261ffff60501b191617600160501b918616919091021765ffffffffffff60601b1916600160601b9185169190910263ffffffff60701b191617600160701b918516919091021765ffffffffffff60901b1916600160901b959093169490940261ffff60b01b191691909117600160b01b9190921602179055600060cc5560cd80546001600160a01b0319166001600160a01b038416179055610dba6136f3565b600063ffffffff821115612b3e5760405162461bcd60e51b815260206004820152602660248201527f53616665436173743a2076616c756520646f65736e27742066697420696e203360448201526532206269747360d01b606482015260840161084b565b60cb546127106201000090910461ffff16111561375e5760405162461bcd60e51b815260206004820152602360248201527f56616c69646174696f6e3a206a72436f6c6c526174696f206d757374206265206044820152623c3d3160e81b606482015260840161084b565b60cb54612710600160201b90910461ffff161180159061378a575060cb54600160201b900461ffff1615155b6137e05760405162461bcd60e51b815260206004820152602160248201527f56616c69646174696f6e3a20636f6c6c526174696f206d757374206265203c3d6044820152603160f81b606482015260840161084b565b60cb5461ffff6201000082048116600160201b9092041610156138515760405162461bcd60e51b8152602060048201526024808201527f56616c69646174696f6e3a20636f6c6c526174696f203e3d206a72436f6c6c526044820152636174696f60e01b606482015260840161084b565b60cb54619c4061ffff90911611801590613875575060cb5461138861ffff90911610155b6138c15760405162461bcd60e51b815260206004820181905260248201527f56616c69646174696f6e3a206d6f63206d757374206265205b302e352c20345d604482015260640161084b565b60cb54612710600160301b90910461ffff16111561392d5760405162461bcd60e51b8152602060048201526024808201527f56616c69646174696f6e3a20656e7375726f5070466565206d757374206265206044820152633c3d203160e01b606482015260840161084b565b60cb54612710600160401b90910461ffff16111561399b5760405162461bcd60e51b815260206004820152602560248201527f56616c69646174696f6e3a20656e7375726f436f63466565206d757374206265604482015264203c3d203160d81b606482015260840161084b565b60cb54612710600160601b90910461ffff161115613a095760405162461bcd60e51b815260206004820152602560248201527f56616c69646174696f6e3a207372526f63206d757374206265203c3d20312028604482015264313030252960d81b606482015260840161084b565b60cb54612710600160501b90910461ffff161115613a775760405162461bcd60e51b815260206004820152602560248201527f56616c69646174696f6e3a206a72526f63206d757374206265203c3d20312028604482015264313030252960d81b606482015260840161084b565b60cc54613a82611097565b1015613b015760405162461bcd60e51b815260206004820152604260248201527f56616c69646174696f6e3a206578706f737572654c696d69742063616e27742060448201527f6265206c657373207468616e2061637475616c206163746976654578706f7375606482015261726560f01b608482015260a40161084b565b60cb54600160901b900463ffffffff1615801590613b2d575060cb54600160701b900463ffffffff1615155b613b835760405162461bcd60e51b815260206004820152602160248201527f4578706f7375726520616e64204d61785061796f7574206d757374206265203e6044820152600360fc1b606482015260840161084b565b60cd546001600160a01b03166127525760405162461bcd60e51b815260206004820152602860248201527f56616c69646174696f6e3a2057616c6c65742063616e2774206265207a65726f604482015267206164647265737360c01b606482015260840161084b565b6000600182602d811115613c0257613c02614d7f565b613c0c9190614e29565b60c954600160ff929092169190911b91506201518090613c339064ffffffffff1642614fa4565b64ffffffffff161115613c705760c9805466ffffffffffffff8316600160281b026001600160601b031990911664ffffffffff4216171790555050565b60c954600160281b9004811666ffffffffffffff16600003613cd05760c9805464ffffffffff421664ffffffffff1966ffffffffffffff808616600160281b808604929092161702166001600160601b0319909216919091171790555050565b60405162461bcd60e51b815260206004820152604760248201527f596f7520616c726561647920747765616b6564207468697320706172616d657460448201527f657220726563656e746c792e2057616974206265666f726520747765616b696e606482015266339030b3b0b4b760c91b608482015260a40161084b565b606081600003613d755750506040805180820190915260018152600360fc1b602082015290565b8160005b8115613d9f5780613d89816151f7565b9150613d989050600a83614f35565b9150613d79565b60008167ffffffffffffffff811115613dba57613dba6147df565b6040519080825280601f01601f191660200182016040528015613de4576020820181803683370190505b5090505b8415613e4f57613df9600183614bbc565b9150613e06600a86614df2565b613e11906030614d30565b60f81b818381518110613e2657613e26615210565b60200101906001600160f81b031916908160001a905350613e48600a86614f35565b9450613de8565b949350505050565b6000806001600160ff1b03831681613e7460ff86901c601b614d30565b9050613e82878288856144dd565b935093505050935093915050565b6000816004811115613ea457613ea4614d7f565b03613eac5750565b6001816004811115613ec057613ec0614d7f565b03613f0d5760405162461bcd60e51b815260206004820152601860248201527f45434453413a20696e76616c6964207369676e61747572650000000000000000604482015260640161084b565b6002816004811115613f2157613f21614d7f565b03613f6e5760405162461bcd60e51b815260206004820152601f60248201527f45434453413a20696e76616c6964207369676e6174757265206c656e67746800604482015260640161084b565b6003816004811115613f8257613f82614d7f565b03613fda5760405162461bcd60e51b815260206004820152602260248201527f45434453413a20696e76616c6964207369676e6174757265202773272076616c604482015261756560f01b606482015260840161084b565b6004816004811115613fee57613fee614d7f565b036108e85760405162461bcd60e51b815260206004820152602260248201527f45434453413a20696e76616c6964207369676e6174757265202776272076616c604482015261756560f01b606482015260840161084b565b61404e614636565b838511156140a95760405162461bcd60e51b815260206004820152602260248201527f5072656d69756d2063616e6e6f74206265206d6f7265207468616e207061796f6044820152611d5d60f21b606482015260840161084b565b6140b1614636565b6001600160a01b038816610160820152604081018690526020810185905260a0810184905264ffffffffff42811661018083015283166101a08201528651614105906140fe90869061282b565b869061282b565b60c0820152602087015161411a90869061282b565b6060820181905260c0820151101561414a578060c00151816060018181516141429190614bbc565b905250614152565b600060608201525b604087015161416290869061282b565b6080820152606081015160c082015161417b9190614d30565b816080015111156141b35780606001518160c0015161419a9190614d30565b816080018181516141ab9190614bbc565b9052506141bb565b600060808201525b6142046301e13380826101800151836101a001516141d99190614fa4565b64ffffffffff168960a001516141ef9190614d43565b6141f99190614f35565b60608301519061282b565b6101208201526101808101516101a0820151614255916301e133809161422a9190614fa4565b64ffffffffff168960c001516142409190614d43565b61424a9190614f35565b60808301519061282b565b610140820181905261012082015160009161426f91614d30565b905061428888608001518261282b90919063ffffffff16565b606089015160c084015161429b9161282b565b6142a59190614d30565b60e0830181905260c0830151889183916142bf9190614d30565b6142c99190614d30565b11156143175760405162461bcd60e51b815260206004820152601960248201527f5072656d69756d206c657373207468616e206d696e696d756d00000000000000604482015260640161084b565b8160e00151818360c001518961432d9190614bbc565b6143379190614bbc565b6143419190614bbc565b61010083015250979650505050505050565b61435c8161324d565b6040516001600160a01b038216907fbc7cd75a20ee27fd9adebab32041f755214dbc6bffa90cc0225b39da2e5c2d3b90600090a250565b60606001600160a01b0383163b6143fb5760405162461bcd60e51b815260206004820152602660248201527f416464726573733a2064656c65676174652063616c6c20746f206e6f6e2d636f6044820152651b9d1c9858dd60d21b606482015260840161084b565b600080846001600160a01b0316846040516144169190615226565b600060405180830381855af49150503d8060008114614451576040519150601f19603f3d011682016040523d82523d6000602084013e614456565b606091505b509150915061447e82826040518060600160405280602781526020016152ce602791396145ca565b95945050505050565b600054610100900460ff166127525760405162461bcd60e51b815260040161084b90615242565b600054610100900460ff166144d55760405162461bcd60e51b815260040161084b90615242565b612752614603565b6000807f7fffffffffffffffffffffffffffffff5d576e7357a4501ddfe92f46681b20a083111561451457506000905060036145c1565b8460ff16601b1415801561452c57508460ff16601c14155b1561453d57506000905060046145c1565b6040805160008082526020820180845289905260ff881692820192909252606081018690526080810185905260019060a0016020604051602081039080840390855afa158015614591573d6000803e3d6000fd5b5050604051601f1901519150506001600160a01b0381166145ba576000600192509250506145c1565b9150600090505b94509492505050565b606083156145d9575081611248565b8251156145e95782518084602001fd5b8160405162461bcd60e51b815260040161084b919061478f565b600054610100900460ff1661462a5760405162461bcd60e51b815260040161084b90615242565b6097805460ff19169055565b604051806101c00160405280600081526020016000815260200160008152602001600081526020016000815260200160008152602001600081526020016000815260200160008152602001600081526020016000815260200160006001600160a01b03168152602001600064ffffffffff168152602001600064ffffffffff1681525090565b803564ffffffffff811681146146d157600080fd5b919050565b6001600160a01b03811681146108e857600080fd5b60008060008060008060008060006101208a8c03121561470a57600080fd5b8935985060208a0135975060408a0135965061472860608b016146bc565b955060808a0135614738816146d6565b945060a08a0135935060c08a0135925060e08a0135915061475c6101008b016146bc565b90509295985092959850929598565b60005b8381101561478657818101518382015260200161476e565b50506000910152565b60208152600082518060208401526147ae81604085016020870161476b565b601f01601f19169190910160400192915050565b6000602082840312156147d457600080fd5b8135611248816146d6565b634e487b7160e01b600052604160045260246000fd5b600067ffffffffffffffff80841115614810576148106147df565b604051601f8501601f19908116603f01168101908282118183101715614838576148386147df565b8160405280935085815286868601111561485157600080fd5b858560208301376000602087830101525050509392505050565b6000806040838503121561487e57600080fd5b8235614889816146d6565b9150602083013567ffffffffffffffff8111156148a557600080fd5b8301601f810185136148b657600080fd5b6148c5858235602084016147f5565b9150509250929050565b6000602082840312156148e157600080fd5b5035919050565b600080600080600080600060e0888a03121561490357600080fd5b873567ffffffffffffffff81111561491a57600080fd5b8801601f81018a1361492b57600080fd5b61493a8a8235602084016147f5565b9750506020880135955060408801359450606088013593506080880135925060a0880135915060c088013561496e816146d6565b8091505092959891949750929550565b60006101c0828403121561499157600080fd5b50919050565b6000806101e083850312156149ab57600080fd5b6149b5848461497e565b946101c0939093013593505050565b6000806000606084860312156149d957600080fd5b83359250602084013591506149f0604085016146bc565b90509250925092565b60008060408385031215614a0c57600080fd5b8235600a8110614a1b57600080fd5b946020939093013593505050565b80151581146108e857600080fd5b6000806101e08385031215614a4b57600080fd5b614a55848461497e565b91506101c0830135614a6681614a29565b809150509250929050565b600181811c90821680614a8557607f821691505b60208210810361499157634e487b7160e01b600052602260045260246000fd5b6020808252602c908201527f46756e6374696f6e206d7573742062652063616c6c6564207468726f7567682060408201526b19195b1959d85d1958d85b1b60a21b606082015260800190565b6020808252602c908201527f46756e6374696f6e206d7573742062652063616c6c6564207468726f7567682060408201526b6163746976652070726f787960a01b606082015260800190565b600060208284031215614b4f57600080fd5b8151611248816146d6565b6001600160a01b039586168152602081019490945260408401929092529092166060820152901515608082015260a00190565b600060208284031215614b9f57600080fd5b5051919050565b634e487b7160e01b600052601160045260246000fd5b8181038181111561282557612825614ba6565b6020808252602e908201527f496e697469616c697a61626c653a20636f6e747261637420697320616c72656160408201526d191e481a5b9a5d1a585b1a5e995960921b606082015260800190565b6001600160a01b039485168152602081019390935292166040820152901515606082015260800190565b80356146d1816146d6565b803582526020810135602083015260408101356040830152606081013560608301526080810135608083015260a081013560a083015260c081013560c083015260e081013560e0830152610100808201358184015250610120808201358184015250610140808201358184015250610160614cce818301614c47565b6001600160a01b031690830152610180614ce98282016146bc565b64ffffffffff16908301526101a0614d028282016146bc565b64ffffffffff81168483015261330e565b6101e08101614d228285614c52565b826101c08301529392505050565b8082018082111561282557612825614ba6565b6000816000190483118215151615614d5d57614d5d614ba6565b500290565b600060208284031215614d7457600080fd5b815161124881614a29565b634e487b7160e01b600052602160045260246000fd5b6020808252600e908201526d151dd9585ac8195e18d95959195960921b604082015260600190565b6101e08101614dcc8285614c52565b8215156101c08301529392505050565b634e487b7160e01b600052601260045260246000fd5b600082614e0157614e01614ddc565b500690565b600060208284031215614e1857600080fd5b815160ff8116811461124857600080fd5b60ff828116828216039081111561282557612825614ba6565b600181815b80851115614e7d578160001904821115614e6357614e63614ba6565b80851615614e7057918102915b93841c9390800290614e47565b509250929050565b600082614e9457506001612825565b81614ea157506000612825565b8160018114614eb75760028114614ec157614edd565b6001915050612825565b60ff841115614ed257614ed2614ba6565b50506001821b612825565b5060208310610133831016604e8410600b8410161715614f00575081810a612825565b614f0a8383614e42565b8060001904821115614f1e57614f1e614ba6565b029392505050565b600061282260ff841683614e85565b600082614f4457614f44614ddc565b500490565b7f19457468657265756d205369676e6564204d6573736167653a0a000000000000815260008351614f8181601a85016020880161476b565b835190830190614f9881601a84016020880161476b565b01601a01949350505050565b64ffffffffff828116828216039080821115614fc257614fc2614ba6565b5092915050565b600064ffffffffff80841680614fe157614fe1614ddc565b92169190910492915050565b600061022082019050855182526020860151602083015260408601516040830152606086015160608301526080860151608083015260a086015160a083015260c086015160c083015260e086015160e08301526101008087015181840152506101208087015181840152506101408087015181840152506101608087015161507f828501826001600160a01b03169052565b50506101808681015164ffffffffff81168483015250506101a08681015164ffffffffff81168483015250506001600160a01b0385166101c08301526001600160a01b0384166101e08301526bffffffffffffffffffffffff831661020083015295945050505050565b601f8211156124ba57600081815260208120601f850160051c810160208610156151105750805b601f850160051c820191505b8181101561512f5782815560010161511c565b505050505050565b815167ffffffffffffffff811115615151576151516147df565b6151658161515f8454614a71565b846150e9565b602080601f83116001811461519a57600084156151825750858301515b600019600386901b1c1916600185901b17855561512f565b600085815260208120601f198616915b828110156151c9578886015182559484019460019091019084016151aa565b50858210156151e75787850151600019600388901b60f8161c191681555b5050505050600190811b01905550565b60006001820161520957615209614ba6565b5060010190565b634e487b7160e01b600052603260045260246000fd5b6000825161523881846020870161476b565b9190910192915050565b6020808252602b908201527f496e697469616c697a61626c653a20636f6e7472616374206973206e6f74206960408201526a6e697469616c697a696e6760a81b60608201526080019056fe360894a13ba1a3210667c828492db98dca3e2076cc3735a920a3ca505d382bbcbf372ca3ebecfe59ac256f17697941bbe63302aced610e8b0e3646f743c7beb2416464726573733a206c6f772d6c6576656c2064656c65676174652063616c6c206661696c656455435dd261a4b9b3364963f7738a7a662ad9c84396d64be3365284bb7f0a5041a264697066735822122015e62d97b64eb1d700f5858323564c3be8f5ec7730c563f1152c667b1bd1693164736f6c63430008100033",
  "linkReferences": {},
  "deployedLinkReferences": {}
}