{
  "_format": "hh-sol-artifact-1",
  "contractName": "TrustfulRiskModule",
  "sourceName": "contracts/TrustfulRiskModule.sol",
  "abi": [
    {
      "inputs": [
        {
          "internalType": "contract IPolicyPool",
          "name": "policyPool_",
          "type": "address"
        },
        {
          "internalType": "contract IPremiumsAccount",
          "name": "premiumsAccount_",
          "type": "address"
        }
      ],
      "stateMutability": "nonpayable",
      "type": "constructor"
    },
    {
      "anonymous": false,
      "inputs": [
        {
          "indexed": false,
          "internalType": "address",
          "name": "previousAdmin",
          "type": "address"
        },
        {
          "indexed": false,
          "internalType": "address",
          "name": "newAdmin",
          "type": "address"
        }
      ],
      "name": "AdminChanged",
      "type": "event"
    },
    {
      "anonymous": false,
      "inputs": [
        {
          "indexed": true,
          "internalType": "address",
          "name": "beacon",
          "type": "address"
        }
      ],
      "name": "BeaconUpgraded",
      "type": "event"
    },
    {
      "anonymous": false,
      "inputs": [
        {
          "indexed": true,
          "internalType": "enum IAccessManager.GovernanceActions",
          "name": "action",
          "type": "uint8"
        },
        {
          "indexed": false,
          "internalType": "address",
          "name": "value",
          "type": "address"
        }
      ],
      "name": "ComponentChanged",
      "type": "event"
    },
    {
      "anonymous": false,
      "inputs": [
        {
          "indexed": true,
          "internalType": "enum IAccessManager.GovernanceActions",
          "name": "action",
          "type": "uint8"
        },
        {
          "indexed": false,
          "internalType": "uint256",
          "name": "value",
          "type": "uint256"
        }
      ],
      "name": "GovernanceAction",
      "type": "event"
    },
    {
      "anonymous": false,
      "inputs": [
        {
          "indexed": false,
          "internalType": "uint8",
          "name": "version",
          "type": "uint8"
        }
      ],
      "name": "Initialized",
      "type": "event"
    },
    {
      "anonymous": false,
      "inputs": [
        {
          "indexed": false,
          "internalType": "address",
          "name": "account",
          "type": "address"
        }
      ],
      "name": "Paused",
      "type": "event"
    },
    {
      "anonymous": false,
      "inputs": [
        {
          "indexed": false,
          "internalType": "address",
          "name": "account",
          "type": "address"
        }
      ],
      "name": "Unpaused",
      "type": "event"
    },
    {
      "anonymous": false,
      "inputs": [
        {
          "indexed": true,
          "internalType": "address",
          "name": "implementation",
          "type": "address"
        }
      ],
      "name": "Upgraded",
      "type": "event"
    },
    {
      "inputs": [],
      "name": "GUARDIAN_ROLE",
      "outputs": [
        {
          "internalType": "bytes32",
          "name": "",
          "type": "bytes32"
        }
      ],
      "stateMutability": "view",
      "type": "function"
    },
    {
      "inputs": [],
      "name": "LEVEL1_ROLE",
      "outputs": [
        {
          "internalType": "bytes32",
          "name": "",
          "type": "bytes32"
        }
      ],
      "stateMutability": "view",
      "type": "function"
    },
    {
      "inputs": [],
      "name": "LEVEL2_ROLE",
      "outputs": [
        {
          "internalType": "bytes32",
          "name": "",
          "type": "bytes32"
        }
      ],
      "stateMutability": "view",
      "type": "function"
    },
    {
      "inputs": [],
      "name": "LEVEL3_ROLE",
      "outputs": [
        {
          "internalType": "bytes32",
          "name": "",
          "type": "bytes32"
        }
      ],
      "stateMutability": "view",
      "type": "function"
    },
    {
      "inputs": [],
      "name": "PRICER_ROLE",
      "outputs": [
        {
          "internalType": "bytes32",
          "name": "",
          "type": "bytes32"
        }
      ],
      "stateMutability": "view",
      "type": "function"
    },
    {
      "inputs": [],
      "name": "RESOLVER_ROLE",
      "outputs": [
        {
          "internalType": "bytes32",
          "name": "",
          "type": "bytes32"
        }
      ],
      "stateMutability": "view",
      "type": "function"
    },
    {
      "inputs": [],
      "name": "RM_PROVIDER_ROLE",
      "outputs": [
        {
          "internalType": "bytes32",
          "name": "",
          "type": "bytes32"
        }
      ],
      "stateMutability": "view",
      "type": "function"
    },
    {
      "inputs": [],
      "name": "TWEAK_EXPIRATION",
      "outputs": [
        {
          "internalType": "uint40",
          "name": "",
          "type": "uint40"
        }
      ],
      "stateMutability": "view",
      "type": "function"
    },
    {
      "inputs": [],
      "name": "activeExposure",
      "outputs": [
        {
          "internalType": "uint256",
          "name": "",
          "type": "uint256"
        }
      ],
      "stateMutability": "view",
      "type": "function"
    },
    {
      "inputs": [],
      "name": "currency",
      "outputs": [
        {
          "internalType": "contract IERC20Metadata",
          "name": "",
          "type": "address"
        }
      ],
      "stateMutability": "view",
      "type": "function"
    },
    {
      "inputs": [],
      "name": "exposureLimit",
      "outputs": [
        {
          "internalType": "uint256",
          "name": "",
          "type": "uint256"
        }
      ],
      "stateMutability": "view",
      "type": "function"
    },
    {
      "inputs": [
        {
          "internalType": "uint256",
          "name": "payout",
          "type": "uint256"
        },
        {
          "internalType": "uint256",
          "name": "lossProb",
          "type": "uint256"
        },
        {
          "internalType": "uint40",
          "name": "expiration",
          "type": "uint40"
        }
      ],
      "name": "getMinimumPremium",
      "outputs": [
        {
          "internalType": "uint256",
          "name": "",
          "type": "uint256"
        }
      ],
      "stateMutability": "view",
      "type": "function"
    },
    {
      "inputs": [
        {
          "internalType": "string",
          "name": "name_",
          "type": "string"
        },
        {
          "internalType": "uint256",
          "name": "collRatio_",
          "type": "uint256"
        },
        {
          "internalType": "uint256",
          "name": "ensuroPpFee_",
          "type": "uint256"
        },
        {
          "internalType": "uint256",
          "name": "srRoc_",
          "type": "uint256"
        },
        {
          "internalType": "uint256",
          "name": "maxPayoutPerPolicy_",
          "type": "uint256"
        },
        {
          "internalType": "uint256",
          "name": "exposureLimit_",
          "type": "uint256"
        },
        {
          "internalType": "address",
          "name": "wallet_",
          "type": "address"
        }
      ],
      "name": "initialize",
      "outputs": [],
      "stateMutability": "nonpayable",
      "type": "function"
    },
    {
      "inputs": [],
      "name": "lastTweak",
      "outputs": [
        {
          "internalType": "uint40",
          "name": "",
          "type": "uint40"
        },
        {
          "internalType": "uint56",
          "name": "",
          "type": "uint56"
        }
      ],
      "stateMutability": "view",
      "type": "function"
    },
    {
      "inputs": [],
      "name": "maxDuration",
      "outputs": [
        {
          "internalType": "uint256",
          "name": "",
          "type": "uint256"
        }
      ],
      "stateMutability": "view",
      "type": "function"
    },
    {
      "inputs": [],
      "name": "maxPayoutPerPolicy",
      "outputs": [
        {
          "internalType": "uint256",
          "name": "",
          "type": "uint256"
        }
      ],
      "stateMutability": "view",
      "type": "function"
    },
    {
      "inputs": [],
      "name": "name",
      "outputs": [
        {
          "internalType": "string",
          "name": "",
          "type": "string"
        }
      ],
      "stateMutability": "view",
      "type": "function"
    },
    {
      "inputs": [
        {
          "internalType": "uint256",
          "name": "payout",
          "type": "uint256"
        },
        {
          "internalType": "uint256",
          "name": "premium",
          "type": "uint256"
        },
        {
          "internalType": "uint256",
          "name": "lossProb",
          "type": "uint256"
        },
        {
          "internalType": "uint40",
          "name": "expiration",
          "type": "uint40"
        },
        {
          "internalType": "address",
          "name": "onBehalfOf",
          "type": "address"
        },
        {
          "internalType": "uint96",
          "name": "internalId",
          "type": "uint96"
        }
      ],
      "name": "newPolicy",
      "outputs": [
        {
          "internalType": "uint256",
          "name": "",
          "type": "uint256"
        }
      ],
      "stateMutability": "nonpayable",
      "type": "function"
    },
    {
      "inputs": [],
      "name": "params",
      "outputs": [
        {
          "components": [
            {
              "internalType": "uint256",
              "name": "moc",
              "type": "uint256"
            },
            {
              "internalType": "uint256",
              "name": "jrCollRatio",
              "type": "uint256"
            },
            {
              "internalType": "uint256",
              "name": "collRatio",
              "type": "uint256"
            },
            {
              "internalType": "uint256",
              "name": "ensuroPpFee",
              "type": "uint256"
            },
            {
              "internalType": "uint256",
              "name": "ensuroCocFee",
              "type": "uint256"
            },
            {
              "internalType": "uint256",
              "name": "jrRoc",
              "type": "uint256"
            },
            {
              "internalType": "uint256",
              "name": "srRoc",
              "type": "uint256"
            }
          ],
          "internalType": "struct IRiskModule.Params",
          "name": "ret",
          "type": "tuple"
        }
      ],
      "stateMutability": "view",
      "type": "function"
    },
    {
      "inputs": [],
      "name": "pause",
      "outputs": [],
      "stateMutability": "nonpayable",
      "type": "function"
    },
    {
      "inputs": [],
      "name": "paused",
      "outputs": [
        {
          "internalType": "bool",
          "name": "",
          "type": "bool"
        }
      ],
      "stateMutability": "view",
      "type": "function"
    },
    {
      "inputs": [],
      "name": "policyPool",
      "outputs": [
        {
          "internalType": "contract IPolicyPool",
          "name": "",
          "type": "address"
        }
      ],
      "stateMutability": "view",
      "type": "function"
    },
    {
      "inputs": [],
      "name": "premiumsAccount",
      "outputs": [
        {
          "internalType": "contract IPremiumsAccount",
          "name": "",
          "type": "address"
        }
      ],
      "stateMutability": "view",
      "type": "function"
    },
    {
      "inputs": [],
      "name": "proxiableUUID",
      "outputs": [
        {
          "internalType": "bytes32",
          "name": "",
          "type": "bytes32"
        }
      ],
      "stateMutability": "view",
      "type": "function"
    },
    {
      "inputs": [
        {
          "internalType": "uint256",
          "name": "payout",
          "type": "uint256"
        }
      ],
      "name": "releaseExposure",
      "outputs": [],
      "stateMutability": "nonpayable",
      "type": "function"
    },
    {
      "inputs": [
        {
          "components": [
            {
              "internalType": "uint256",
              "name": "id",
              "type": "uint256"
            },
            {
              "internalType": "uint256",
              "name": "payout",
              "type": "uint256"
            },
            {
              "internalType": "uint256",
              "name": "premium",
              "type": "uint256"
            },
            {
              "internalType": "uint256",
              "name": "jrScr",
              "type": "uint256"
            },
            {
              "internalType": "uint256",
              "name": "srScr",
              "type": "uint256"
            },
            {
              "internalType": "uint256",
              "name": "lossProb",
              "type": "uint256"
            },
            {
              "internalType": "uint256",
              "name": "purePremium",
              "type": "uint256"
            },
            {
              "internalType": "uint256",
              "name": "ensuroCommission",
              "type": "uint256"
            },
            {
              "internalType": "uint256",
              "name": "partnerCommission",
              "type": "uint256"
            },
            {
              "internalType": "uint256",
              "name": "jrCoc",
              "type": "uint256"
            },
            {
              "internalType": "uint256",
              "name": "srCoc",
              "type": "uint256"
            },
            {
              "internalType": "contract IRiskModule",
              "name": "riskModule",
              "type": "address"
            },
            {
              "internalType": "uint40",
              "name": "start",
              "type": "uint40"
            },
            {
              "internalType": "uint40",
              "name": "expiration",
              "type": "uint40"
            }
          ],
          "internalType": "struct Policy.PolicyData",
          "name": "policy",
          "type": "tuple"
        },
        {
          "internalType": "uint256",
          "name": "payout",
          "type": "uint256"
        }
      ],
      "name": "resolvePolicy",
      "outputs": [],
      "stateMutability": "nonpayable",
      "type": "function"
    },
    {
      "inputs": [
        {
          "components": [
            {
              "internalType": "uint256",
              "name": "id",
              "type": "uint256"
            },
            {
              "internalType": "uint256",
              "name": "payout",
              "type": "uint256"
            },
            {
              "internalType": "uint256",
              "name": "premium",
              "type": "uint256"
            },
            {
              "internalType": "uint256",
              "name": "jrScr",
              "type": "uint256"
            },
            {
              "internalType": "uint256",
              "name": "srScr",
              "type": "uint256"
            },
            {
              "internalType": "uint256",
              "name": "lossProb",
              "type": "uint256"
            },
            {
              "internalType": "uint256",
              "name": "purePremium",
              "type": "uint256"
            },
            {
              "internalType": "uint256",
              "name": "ensuroCommission",
              "type": "uint256"
            },
            {
              "internalType": "uint256",
              "name": "partnerCommission",
              "type": "uint256"
            },
            {
              "internalType": "uint256",
              "name": "jrCoc",
              "type": "uint256"
            },
            {
              "internalType": "uint256",
              "name": "srCoc",
              "type": "uint256"
            },
            {
              "internalType": "contract IRiskModule",
              "name": "riskModule",
              "type": "address"
            },
            {
              "internalType": "uint40",
              "name": "start",
              "type": "uint40"
            },
            {
              "internalType": "uint40",
              "name": "expiration",
              "type": "uint40"
            }
          ],
          "internalType": "struct Policy.PolicyData",
          "name": "policy",
          "type": "tuple"
        },
        {
          "internalType": "bool",
          "name": "customerWon",
          "type": "bool"
        }
      ],
      "name": "resolvePolicyFullPayout",
      "outputs": [],
      "stateMutability": "nonpayable",
      "type": "function"
    },
    {
      "inputs": [
        {
          "internalType": "enum IRiskModule.Parameter",
          "name": "param",
          "type": "uint8"
        },
        {
          "internalType": "uint256",
          "name": "newValue",
          "type": "uint256"
        }
      ],
      "name": "setParam",
      "outputs": [],
      "stateMutability": "nonpayable",
      "type": "function"
    },
    {
      "inputs": [
        {
          "internalType": "address",
          "name": "wallet_",
          "type": "address"
        }
      ],
      "name": "setWallet",
      "outputs": [],
      "stateMutability": "nonpayable",
      "type": "function"
    },
    {
      "inputs": [],
      "name": "unpause",
      "outputs": [],
      "stateMutability": "nonpayable",
      "type": "function"
    },
    {
      "inputs": [
        {
          "internalType": "address",
          "name": "newImplementation",
          "type": "address"
        }
      ],
      "name": "upgradeTo",
      "outputs": [],
      "stateMutability": "nonpayable",
      "type": "function"
    },
    {
      "inputs": [
        {
          "internalType": "address",
          "name": "newImplementation",
          "type": "address"
        },
        {
          "internalType": "bytes",
          "name": "data",
          "type": "bytes"
        }
      ],
      "name": "upgradeToAndCall",
      "outputs": [],
      "stateMutability": "payable",
      "type": "function"
    },
    {
      "inputs": [],
      "name": "wallet",
      "outputs": [
        {
          "internalType": "address",
          "name": "",
          "type": "address"
        }
      ],
      "stateMutability": "view",
      "type": "function"
    }
  ],
  "bytecode": "0x60e0604052306080523480156200001557600080fd5b5060405162004e5638038062004e56833981016040819052620000389162000164565b818181806001600160a01b031660a0816001600160a01b03168152505050816001600160a01b0316816001600160a01b0316634d15eb036040518163ffffffff1660e01b8152600401602060405180830381865afa1580156200009f573d6000803e3d6000fd5b505050506040513d601f19601f82011682018060405250810190620000c59190620001a3565b6001600160a01b031614620001355760405162461bcd60e51b815260206004820152602c60248201527f546865205072656d69756d734163636f756e74206d757374206265207061727460448201526b081bd9881d1a1948141bdbdb60a21b606482015260840160405180910390fd5b6001600160a01b031660c05250620001ca915050565b6001600160a01b03811681146200016157600080fd5b50565b600080604083850312156200017857600080fd5b825162000185816200014b565b602084015190925062000198816200014b565b809150509250929050565b600060208284031215620001b657600080fd5b8151620001c3816200014b565b9392505050565b60805160a05160c051614bb4620002a26000396000610466015260008181610322015281816108830152818161099801528181610aa301528181610d4b01528181610edf01528181610fe00152818161105f015281816113560152818161145301528181611d2301528181611e3501528181611ed801528181611fdc01528181612033015281816121190152818161256c0152818161260b015281816126f9015281816129850152612c35015260008181610785015281816107ce01528181610bd301528181610c130152610ca20152614bb46000f3fe6080604052600436106101ee5760003560e01c806373a952e81161010d578063a9a24f27116100a0578063deaa59df1161006f578063deaa59df1461063e578063e5a6b10f1461065e578063f67b2bad14610673578063fbb8127914610695578063ffa600e3146106c957600080fd5b8063a9a24f271461056a578063c1cca2b31461059e578063cfd4c606146105be578063cff0ab96146105d357600080fd5b80637ff8bf25116100dc5780637ff8bf251461050b5780638456cb591461052057806385272a6e146105355780638bac3a241461054a57600080fd5b806373a952e81461045757806378fab2601461048a5780637a702b3c146104be5780637ed5acfa146104de57600080fd5b80634f1ef286116101855780635c975abb116101545780635c975abb146103d45780636a448ef1146103f75780636db5c8fd146104175780636f0dbe6f1461043757600080fd5b80634f1ef2861461035a578063521eb2731461036d57806352d1902d1461038b5780635b494dd5146103a057600080fd5b8063406f7f6f116101c1578063406f7f6f14610285578063468a8c9f146102a55780634a47a3e0146102df5780634d15eb031461031357600080fd5b806306fdde03146101f357806324ea54f41461021e5780633659cfe61461024e5780633f4ba83a14610270575b600080fd5b3480156101ff57600080fd5b506102086106e9565b6040516102159190613ff2565b60405180910390f35b34801561022a57600080fd5b50610240600080516020614b5f83398151915281565b604051908152602001610215565b34801561025a57600080fd5b5061026e61026936600461403a565b61077b565b005b34801561027c57600080fd5b5061026e610863565b34801561029157600080fd5b506102406102a0366004614071565b610973565b3480156102b157600080fd5b5060c9546040805164ffffffffff83168152600160281b90920466ffffffffffffff16602083015201610215565b3480156102eb57600080fd5b506102407fa82e22387fca439f316d78ca566f383218ab8ae1b3e830178c9c82cbd16749c081565b34801561031f57600080fd5b507f00000000000000000000000000000000000000000000000000000000000000005b6040516001600160a01b039091168152602001610215565b61026e610368366004614173565b610bc9565b34801561037957600080fd5b5060cd546001600160a01b0316610342565b34801561039757600080fd5b50610240610c95565b3480156103ac57600080fd5b506102407f5ec196419322369c6bac572d883f4d990ae5ec82f7d93cdf89b85dbb05b63c2781565b3480156103e057600080fd5b5060975460ff166040519015158152602001610215565b34801561040357600080fd5b5061026e6104123660046141d7565b610d48565b34801561042357600080fd5b5060cb54600160b01b900461ffff16610240565b34801561044357600080fd5b5061026e6104523660046141f0565b610de4565b34801561046357600080fd5b507f0000000000000000000000000000000000000000000000000000000000000000610342565b34801561049657600080fd5b506102407f92a19c77d2ea87c7f81d50c74403cb2f401780f3ad919571121efe2bdb427eb181565b3480156104ca57600080fd5b5061026e6104d936600461429f565b610ebc565b3480156104ea57600080fd5b506104f56201518081565b60405164ffffffffff9091168152602001610215565b34801561051757600080fd5b5060cc54610240565b34801561052c57600080fd5b5061026e61104e565b34801561054157600080fd5b50610240611149565b34801561055657600080fd5b506102406105653660046142cc565b61116c565b34801561057657600080fd5b506102407f0df0a8869cf58168a14cd7ac426ff1b8c6ff5d5c800c6f44803f3431dcb3bad181565b3480156105aa57600080fd5b5061026e6105b9366004614301565b611301565b3480156105ca57600080fd5b50610240611bc4565b3480156105df57600080fd5b506105e8611be3565b6040516102159190600060e082019050825182526020830151602083015260408301516040830152606083015160608301526080830151608083015260a083015160a083015260c083015160c083015292915050565b34801561064a57600080fd5b5061026e61065936600461403a565b611d00565b34801561066a57600080fd5b50610342611e31565b34801561067f57600080fd5b50610240600080516020614b1883398151915281565b3480156106a157600080fd5b506102407fc6823861ee2bb2198ce6b1fd6faf4c8f44f745bc804aca4a762f67e0d507fd8a81565b3480156106d557600080fd5b5061026e6106e436600461433f565b611eb5565b606060ca80546106f890614379565b80601f016020809104026020016040519081016040528092919081815260200182805461072490614379565b80156107715780601f1061074657610100808354040283529160200191610771565b820191906000526020600020905b81548152906001019060200180831161075457829003601f168201915b5050505050905090565b6001600160a01b037f00000000000000000000000000000000000000000000000000000000000000001630036107cc5760405162461bcd60e51b81526004016107c3906143ad565b60405180910390fd5b7f00000000000000000000000000000000000000000000000000000000000000006001600160a01b0316610815600080516020614af8833981519152546001600160a01b031690565b6001600160a01b03161461083b5760405162461bcd60e51b81526004016107c3906143f9565b61084481612013565b604080516000808252602082019092526108609183919061220d565b50565b600080516020614b5f833981519152600080516020614b188339815191527f00000000000000000000000000000000000000000000000000000000000000006001600160a01b03166371907f176040518163ffffffff1660e01b8152600401602060405180830381865afa1580156108df573d6000803e3d6000fd5b505050506040513d601f19601f820116820180604052508101906109039190614445565b6001600160a01b0316632b1cff1f3084843360016040518663ffffffff1660e01b8152600401610937959493929190614462565b60006040518083038186803b15801561094f57600080fd5b505afa158015610963573d6000803e3d6000fd5b5050505061096f612378565b5050565b60007fc6823861ee2bb2198ce6b1fd6faf4c8f44f745bc804aca4a762f67e0d507fd8a7f00000000000000000000000000000000000000000000000000000000000000006001600160a01b03166371907f176040518163ffffffff1660e01b8152600401602060405180830381865afa1580156109f4573d6000803e3d6000fd5b505050506040513d601f19601f82011682018060405250810190610a189190614445565b6001600160a01b0316635ff57d2030833360006040518563ffffffff1660e01b8152600401610a4a9493929190614495565b60006040518083038186803b158015610a6257600080fd5b505afa158015610a76573d6000803e3d6000fd5b50869250339150610a849050565b6001600160a01b0316816001600160a01b031614158015610ba45750877f00000000000000000000000000000000000000000000000000000000000000006001600160a01b031663e5a6b10f6040518163ffffffff1660e01b8152600401602060405180830381865afa158015610aff573d6000803e3d6000fd5b505050506040513d601f19601f82011682018060405250810190610b239190614445565b6001600160a01b031663dd62ed3e83336040516001600160e01b031960e085901b1681526001600160a01b03928316600482015291166024820152604401602060405180830381865afa158015610b7e573d6000803e3d6000fd5b505050506040513d601f19601f82011682018060405250810190610ba291906144bf565b105b15610bac5750335b610bbb89898989858a8a6123ca565b519998505050505050505050565b6001600160a01b037f0000000000000000000000000000000000000000000000000000000000000000163003610c115760405162461bcd60e51b81526004016107c3906143ad565b7f00000000000000000000000000000000000000000000000000000000000000006001600160a01b0316610c5a600080516020614af8833981519152546001600160a01b031690565b6001600160a01b031614610c805760405162461bcd60e51b81526004016107c3906143f9565b610c8982612013565b61096f8282600161220d565b6000306001600160a01b037f00000000000000000000000000000000000000000000000000000000000000001614610d355760405162461bcd60e51b815260206004820152603860248201527f555550535570677261646561626c653a206d757374206e6f742062652063616c60448201527f6c6564207468726f7567682064656c656761746563616c6c000000000000000060648201526084016107c3565b50600080516020614af883398151915290565b337f00000000000000000000000000000000000000000000000000000000000000006001600160a01b031614610dca5760405162461bcd60e51b815260206004820152602160248201527f5468652063616c6c6572206d7573742062652074686520506f6c696379506f6f6044820152601b60fa1b60648201526084016107c3565b8060cc6000828254610ddc91906144ee565b909155505050565b600054610100900460ff1615808015610e045750600054600160ff909116105b80610e1e5750303b158015610e1e575060005460ff166001145b610e3a5760405162461bcd60e51b81526004016107c390614501565b6000805460ff191660011790558015610e5d576000805461ff0019166101001790555b610e6c88888888888888612a13565b8015610eb2576000805461ff0019169055604051600181527f7f26b83ff96e1f2b6a682f133852f6798a09c465da95921460cefb38474024989060200160405180910390a15b5050505050505050565b7f92a19c77d2ea87c7f81d50c74403cb2f401780f3ad919571121efe2bdb427eb17f00000000000000000000000000000000000000000000000000000000000000006001600160a01b03166371907f176040518163ffffffff1660e01b8152600401602060405180830381865afa158015610f3b573d6000803e3d6000fd5b505050506040513d601f19601f82011682018060405250810190610f5f9190614445565b6001600160a01b0316635ff57d2030833360006040518563ffffffff1660e01b8152600401610f919493929190614495565b60006040518083038186803b158015610fa957600080fd5b505afa158015610fbd573d6000803e3d6000fd5b50505050610fc9612aa3565b604051631e9c0acf60e21b81526001600160a01b037f00000000000000000000000000000000000000000000000000000000000000001690637a702b3c90611017908690869060040161461b565b600060405180830381600087803b15801561103157600080fd5b505af1158015611045573d6000803e3d6000fd5b50505050505050565b600080516020614b5f8339815191527f00000000000000000000000000000000000000000000000000000000000000006001600160a01b03166371907f176040518163ffffffff1660e01b8152600401602060405180830381865afa1580156110bb573d6000803e3d6000fd5b505050506040513d601f19601f820116820180604052508101906110df9190614445565b6001600160a01b0316635ff57d2030833360016040518563ffffffff1660e01b81526004016111119493929190614495565b60006040518083038186803b15801561112957600080fd5b505afa15801561113d573d6000803e3d6000fd5b50505050610860612aeb565b60cb54600090611167908290600160901b900463ffffffff16612b28565b905090565b600080611177611be3565b9050600061119c611195836000015187612bc290919063ffffffff16565b8790612bc2565b905060006111b7836020015188612bc290919063ffffffff16565b9050818111156111d2576111cb82826144ee565b90506111d6565b5060005b60006111ef846040015189612bc290919063ffffffff16565b90506111fb8284614638565b81111561121d5761120c8284614638565b61121690826144ee565b9050611221565b5060005b600061126261125b6a1a1601fc4ea7109e0000006112464264ffffffffff8c166144ee565b8860a00151611255919061464b565b90612bfa565b8490612bc2565b9050600061129861125b6a1a1601fc4ea7109e0000006112894264ffffffffff8d166144ee565b8960c00151611255919061464b565b905060006112b6876080015183856112b09190614638565b90612bc2565b60608801516112c6908890612bc2565b6112d09190614638565b90506112dc8284614638565b6112e68288614638565b6112f09190614638565b9750505050505050505b9392505050565b600080516020614b188339815191527fa82e22387fca439f316d78ca566f383218ab8ae1b3e830178c9c82cbd16749c07f5ec196419322369c6bac572d883f4d990ae5ec82f7d93cdf89b85dbb05b63c2760007f00000000000000000000000000000000000000000000000000000000000000006001600160a01b03166371907f176040518163ffffffff1660e01b8152600401602060405180830381865afa1580156113b2573d6000803e3d6000fd5b505050506040513d601f19601f820116820180604052508101906113d69190614445565b6040516359f7e5e960e11b81529091506001600160a01b0382169063b3efcbd29061140c90309088903390600190600401614495565b602060405180830381865afa158015611429573d6000803e3d6000fd5b505050506040513d601f19601f8201168201806040525081019061144d919061466a565b611538577f00000000000000000000000000000000000000000000000000000000000000006001600160a01b03166371907f176040518163ffffffff1660e01b8152600401602060405180830381865afa1580156114af573d6000803e3d6000fd5b505050506040513d601f19601f820116820180604052508101906114d39190614445565b6001600160a01b0316632b1cff1f3085853360016040518663ffffffff1660e01b8152600401611507959493929190614462565b60006040518083038186803b15801561151f57600080fd5b505afa158015611533573d6000803e3d6000fd5b505050505b60006115637fa82e22387fca439f316d78ca566f383218ab8ae1b3e830178c9c82cbd16749c0612c31565b1580156115845750611582600080516020614b18833981519152612c31565b155b9050600087600981111561159a5761159a614687565b0361160a578015806115ca575060cb546115ca906115bb9061ffff16612d28565b8767016345785d8a0000612d3e565b6115e65760405162461bcd60e51b81526004016107c39061469d565b6115ef86612dc5565b60cb805461ffff191661ffff92909216919091179055611b8c565b600187600981111561161e5761161e614687565b0361168e57801580611645575060cb54611645906115bb9062010000900461ffff16612d28565b6116615760405162461bcd60e51b81526004016107c39061469d565b61166a86612dc5565b60cb805461ffff92909216620100000263ffff000019909216919091179055611b8c565b60028760098111156116a2576116a2614687565b03611716578015806116ca575060cb546116ca906115bb90600160201b900461ffff16612d28565b6116e65760405162461bcd60e51b81526004016107c39061469d565b6116ef86612dc5565b60cb805461ffff92909216600160201b0265ffff0000000019909216919091179055611b8c565b600387600981111561172a5761172a614687565b036117a057801580611752575060cb54611752906115bb90600160301b900461ffff16612d28565b61176e5760405162461bcd60e51b81526004016107c39061469d565b61177786612dc5565b60cb805461ffff92909216600160301b0267ffff00000000000019909216919091179055611b8c565b60048760098111156117b4576117b4614687565b0361182c578015806117dc575060cb546117dc906115bb90600160401b900461ffff16612d28565b6117f85760405162461bcd60e51b81526004016107c39061469d565b61180186612dc5565b60cb805461ffff92909216600160401b0269ffff000000000000000019909216919091179055611b8c565b600587600981111561184057611840614687565b036118b357801580611868575060cb54611868906115bb90600160501b900461ffff16612d28565b6118845760405162461bcd60e51b81526004016107c39061469d565b61188d86612dc5565b60cb805461ffff92909216600160501b0261ffff60501b19909216919091179055611b8c565b60068760098111156118c7576118c7614687565b0361193a578015806118ef575060cb546118ef906115bb90600160601b900461ffff16612d28565b61190b5760405162461bcd60e51b81526004016107c39061469d565b61191486612dc5565b60cb805461ffff92909216600160601b0261ffff60601b19909216919091179055611b8c565b600787600981111561194e5761194e614687565b036119b75780158061196657506119666115bb611bc4565b6119825760405162461bcd60e51b81526004016107c39061469d565b61198d600287612ddf565b60cb805463ffffffff92909216600160701b0263ffffffff60701b19909216919091179055611b8c565b60088760098111156119cb576119cb614687565b03611b2a5760cc54861015611a3c5760405162461bcd60e51b815260206004820152603160248201527f43616e277420736574206578706f737572654c696d6974206c657373207468616044820152706e20616374697665206578706f7375726560781b60648201526084016107c3565b801580611a4f5750611a4f6115bb611149565b611a6b5760405162461bcd60e51b81526004016107c39061469d565b611a73611149565b86111580611a935750611a93600080516020614b18833981519152612c31565b611af55760405162461bcd60e51b815260206004820152602d60248201527f547765616b2065786365656465643a20496e637265617365207265717569726560448201526c73204c4556454c315f524f4c4560981b60648201526084016107c3565b611b00600087612ddf565b60cb805463ffffffff92909216600160901b0263ffffffff60901b19909216919091179055611b8c565b6009876009811115611b3e57611b3e614687565b03611b8c578015611b615760405162461bcd60e51b81526004016107c39061469d565b611b6a86612e72565b60cb805461ffff92909216600160b01b0261ffff60b01b199092169190911790555b611045876009811115611ba157611ba1614687565b611bac906008614638565b602d811115611bbd57611bbd614687565b8783612ed9565b60cb5460009061116790600290600160701b900463ffffffff16612b28565b611c236040518060e00160405280600081526020016000815260200160008152602001600081526020016000815260200160008152602001600081525090565b6040805160e0810190915260cb548190611c409061ffff16612d28565b815260cb54602090910190611c5e9062010000900461ffff16612d28565b815260cb54602090910190611c7d90600160201b900461ffff16612d28565b815260cb54602090910190611c9c90600160301b900461ffff16612d28565b815260cb54602090910190611cbb90600160401b900461ffff16612d28565b815260cb54602090910190611cda90600160501b900461ffff16612d28565b815260cb54602090910190611cf990600160601b900461ffff16612d28565b9052919050565b7f0df0a8869cf58168a14cd7ac426ff1b8c6ff5d5c800c6f44803f3431dcb3bad17f00000000000000000000000000000000000000000000000000000000000000006001600160a01b03166371907f176040518163ffffffff1660e01b8152600401602060405180830381865afa158015611d7f573d6000803e3d6000fd5b505050506040513d601f19601f82011682018060405250810190611da39190614445565b6001600160a01b0316635ff57d2030833360006040518563ffffffff1660e01b8152600401611dd59493929190614495565b60006040518083038186803b158015611ded57600080fd5b505afa158015611e01573d6000803e3d6000fd5b505060cd80546001600160a01b0319166001600160a01b03861690811790915561096f9250601291506000612ed9565b60007f00000000000000000000000000000000000000000000000000000000000000006001600160a01b031663e5a6b10f6040518163ffffffff1660e01b8152600401602060405180830381865afa158015611e91573d6000803e3d6000fd5b505050506040513d601f19601f820116820180604052508101906111679190614445565b7f92a19c77d2ea87c7f81d50c74403cb2f401780f3ad919571121efe2bdb427eb17f00000000000000000000000000000000000000000000000000000000000000006001600160a01b03166371907f176040518163ffffffff1660e01b8152600401602060405180830381865afa158015611f34573d6000803e3d6000fd5b505050506040513d601f19601f82011682018060405250810190611f589190614445565b6001600160a01b0316635ff57d2030833360006040518563ffffffff1660e01b8152600401611f8a9493929190614495565b60006040518083038186803b158015611fa257600080fd5b505afa158015611fb6573d6000803e3d6000fd5b50505050611fc2612aa3565b60405160016259ff1d60e01b031981526001600160a01b037f0000000000000000000000000000000000000000000000000000000000000000169063ffa600e39061101790869086906004016146c5565b600080516020614b5f833981519152600080516020614b188339815191527f00000000000000000000000000000000000000000000000000000000000000006001600160a01b03166371907f176040518163ffffffff1660e01b8152600401602060405180830381865afa15801561208f573d6000803e3d6000fd5b505050506040513d601f19601f820116820180604052508101906120b39190614445565b6001600160a01b0316632b1cff1f3084843360016040518663ffffffff1660e01b81526004016120e7959493929190614462565b60006040518083038186803b1580156120ff57600080fd5b505afa158015612113573d6000803e3d6000fd5b505050507f00000000000000000000000000000000000000000000000000000000000000006001600160a01b0316836001600160a01b0316634d15eb036040518163ffffffff1660e01b8152600401602060405180830381865afa15801561217f573d6000803e3d6000fd5b505050506040513d601f19601f820116820180604052508101906121a39190614445565b6001600160a01b0316146122085760405162461bcd60e51b815260206004820152602660248201527f43616e27742075706772616465206368616e67696e672074686520506f6c696360448201526579506f6f6c2160d01b60648201526084016107c3565b505050565b7f4910fdfa16fed3260ed0e7147f7cc6da11a60208b5b9406d12a635614ffd91435460ff16156122405761220883612f3a565b826001600160a01b03166352d1902d6040518163ffffffff1660e01b8152600401602060405180830381865afa92505050801561229a575060408051601f3d908101601f19168201909252612297918101906144bf565b60015b6122fd5760405162461bcd60e51b815260206004820152602e60248201527f45524331393637557067726164653a206e657720696d706c656d656e7461746960448201526d6f6e206973206e6f74205555505360901b60648201526084016107c3565b600080516020614af8833981519152811461236c5760405162461bcd60e51b815260206004820152602960248201527f45524331393637557067726164653a20756e737570706f727465642070726f786044820152681a58589b195555525160ba1b60648201526084016107c3565b50612208838383612fd6565b612380613001565b6097805460ff191690557f5db9ee0a495bf2e6ff9c91a7834c1ba4fdd244a5e8aa4e537bd38aeae4b073aa335b6040516001600160a01b03909116815260200160405180910390a1565b6123d2613f48565b6123da612aa3565b60001987036123f1576123ee88878761116c565b96505b8787106124405760405162461bcd60e51b815260206004820181905260248201527f5072656d69756d206d757374206265206c657373207468616e207061796f757460448201526064016107c3565b4264ffffffffff8082169087161161249a5760405162461bcd60e51b815260206004820181905260248201527f45787069726174696f6e206d75737420626520696e207468652066757475726560448201526064016107c3565b60cb54600160b01b900461ffff16610e106124b583896146e4565b6124bf919061471f565b64ffffffffff16106125135760405162461bcd60e51b815260206004820152601b60248201527f506f6c6963792065786365656473206d6178206475726174696f6e000000000060448201526064016107c3565b6001600160a01b0384166125695760405162461bcd60e51b815260206004820152601e60248201527f437573746f6d65722063616e2774206265207a65726f2061646472657373000060448201526064016107c3565b877f00000000000000000000000000000000000000000000000000000000000000006001600160a01b031663e5a6b10f6040518163ffffffff1660e01b8152600401602060405180830381865afa1580156125c8573d6000803e3d6000fd5b505050506040513d601f19601f820116820180604052508101906125ec9190614445565b604051636eb1769f60e11b81526001600160a01b0388811660048301527f000000000000000000000000000000000000000000000000000000000000000081166024830152919091169063dd62ed3e90604401602060405180830381865afa15801561265c573d6000803e3d6000fd5b505050506040513d601f19601f8201168201806040525081019061268091906144bf565b10156126e45760405162461bcd60e51b815260206004820152602d60248201527f596f75206d75737420616c6c6f7720454e5355524f20746f207472616e73666560448201526c7220746865207072656d69756d60981b60648201526084016107c3565b6001600160a01b0385163314806127fb5750877f00000000000000000000000000000000000000000000000000000000000000006001600160a01b031663e5a6b10f6040518163ffffffff1660e01b8152600401602060405180830381865afa158015612755573d6000803e3d6000fd5b505050506040513d601f19601f820116820180604052508101906127799190614445565b6001600160a01b031663dd62ed3e87336040516001600160e01b031960e085901b1681526001600160a01b03928316600482015291166024820152604401602060405180830381865afa1580156127d4573d6000803e3d6000fd5b505050506040513d601f19601f820116820180604052508101906127f891906144bf565b10155b61285f5760405162461bcd60e51b815260206004820152602f60248201527f5061796572206d75737420616c6c6f772063616c6c657220746f207472616e7360448201526e66657220746865207072656d69756d60881b60648201526084016107c3565b612867611bc4565b8911156128d15760405162461bcd60e51b815260206004820152603260248201527f5269736b4d6f64756c653a205061796f7574206973206d6f7265207468616e206044820152716d6178696d756d2070657220706f6c69637960701b60648201526084016107c3565b60006128e8306128df611be3565b8b8d8c8c61304a565b9050806020015160cc60008282546129009190614638565b9091555061290e9050611149565b60cc54111561296b5760405162461bcd60e51b815260206004820152602360248201527f5269736b4d6f64756c653a204578706f73757265206c696d697420657863656560448201526219195960ea1b60648201526084016107c3565b604051636769a76f60e01b81526000906001600160a01b037f00000000000000000000000000000000000000000000000000000000000000001690636769a76f906129c09085908b908b908b90600401614743565b6020604051808303816000875af11580156129df573d6000803e3d6000fd5b505050506040513d601f19601f82011682018060405250810190612a0391906144bf565b8252509998505050505050505050565b600054610100900460ff1615808015612a335750600054600160ff909116105b80612a4d5750303b158015612a4d575060005460ff166001145b612a695760405162461bcd60e51b81526004016107c390614501565b6000805460ff191660011790558015612a8c576000805461ff0019166101001790555b612a94613357565b610e6c88888888888888613428565b60975460ff1615612ae95760405162461bcd60e51b815260206004820152601060248201526f14185d5cd8589b194e881c185d5cd95960821b60448201526064016107c3565b565b612af3612aa3565b6097805460ff191660011790557f62e78cea01bee320cd4e420270b5ea74000d11b0c9f74754ebdbfc544b05a2586123ad3390565b600082612b33611e31565b6001600160a01b031663313ce5676040518163ffffffff1660e01b8152600401602060405180830381865afa158015612b70573d6000803e3d6000fd5b505050506040513d601f19601f82011682018060405250810190612b94919061483f565b612b9e9190614862565b612ba990600a61495f565b612bb99063ffffffff841661464b565b90505b92915050565b600081156706f05b59d3b200001983900484111517612be057600080fd5b50670de0b6b3a764000091026706f05b59d3b20000010490565b60008115670de0b6b3a764000060028404190484111715612c1a57600080fd5b50670de0b6b3a76400009190910260028204010490565b60007f00000000000000000000000000000000000000000000000000000000000000006001600160a01b03166371907f176040518163ffffffff1660e01b8152600401602060405180830381865afa158015612c91573d6000803e3d6000fd5b505050506040513d601f19601f82011682018060405250810190612cb59190614445565b6001600160a01b031663b3efcbd230843360016040518563ffffffff1660e01b8152600401612ce79493929190614495565b602060405180830381865afa158015612d04573d6000803e3d6000fd5b505050506040513d601f19601f82011682018060405250810190612bbc919061466a565b6000612bbc61ffff8316655af3107a400061464b565b6000828403612d4f575060016112fa565b83600003612d695750670de0b6b3a76400008110156112fa565b82600003612d79575060006112fa565b82841015612da85781670de0b6b3a7640000612d958587612bfa565b612d9f91906144ee565b111590506112fa565b81612db38486612bfa565b612d9f90670de0b6b3a76400006144ee565b6000612bbc612dda655af3107a40008461496e565b612e72565b6000612bb983612ded611e31565b6001600160a01b031663313ce5676040518163ffffffff1660e01b8152600401602060405180830381865afa158015612e2a573d6000803e3d6000fd5b505050506040513d601f19601f82011682018060405250810190612e4e919061483f565b612e589190614862565b612e6390600a61495f565b612e6d908461496e565b613688565b600061ffff821115612ed55760405162461bcd60e51b815260206004820152602660248201527f53616665436173743a2076616c756520646f65736e27742066697420696e203160448201526536206269747360d01b60648201526084016107c3565b5090565b612ee16136ed565b8015612ef057612ef083613be6565b82602d811115612f0257612f02614687565b6040518381527f7bc647fe5043209e2019aa3503b79c1b0dd83eb61c56013d373a7584ff6bfb139060200160405180910390a2505050565b6001600160a01b0381163b612fa75760405162461bcd60e51b815260206004820152602d60248201527f455243313936373a206e657720696d706c656d656e746174696f6e206973206e60448201526c1bdd08184818dbdb9d1c9858dd609a1b60648201526084016107c3565b600080516020614af883398151915280546001600160a01b0319166001600160a01b0392909216919091179055565b612fdf83613d52565b600082511180612fec5750805b1561220857612ffb8383613d92565b50505050565b60975460ff16612ae95760405162461bcd60e51b815260206004820152601460248201527314185d5cd8589b194e881b9bdd081c185d5cd95960621b60448201526064016107c3565b613052613f48565b838511156130ad5760405162461bcd60e51b815260206004820152602260248201527f5072656d69756d2063616e6e6f74206265206d6f7265207468616e207061796f6044820152611d5d60f21b60648201526084016107c3565b6130b5613f48565b6001600160a01b038816610160820152604081018690526020810185905260a0810184905264ffffffffff42811661018083015283166101a0820152865161310990613102908690612bc2565b8690612bc2565b60c0820152602087015161311e908690612bc2565b6060820181905260c0820151101561314e578060c001518160600181815161314691906144ee565b905250613156565b600060608201525b6040870151613166908690612bc2565b6080820152606081015160c082015161317f9190614638565b816080015111156131b75780606001518160c0015161319e9190614638565b816080018181516131af91906144ee565b9052506131bf565b600060808201525b6132086301e13380826101800151836101a001516131dd91906146e4565b64ffffffffff168960a001516131f3919061464b565b6131fd919061496e565b606083015190612bc2565b6101208201526101808101516101a0820151613259916301e133809161322e91906146e4565b64ffffffffff168960c00151613244919061464b565b61324e919061496e565b608083015190612bc2565b610140820181905261012082015160009161327391614638565b905061328c886080015182612bc290919063ffffffff16565b606089015160c084015161329f91612bc2565b6132a99190614638565b60e0830181905260c0830151889183916132c39190614638565b6132cd9190614638565b111561331b5760405162461bcd60e51b815260206004820152601960248201527f5072656d69756d206c657373207468616e206d696e696d756d0000000000000060448201526064016107c3565b8160e00151818360c001518961333191906144ee565b61333b91906144ee565b61334591906144ee565b61010083015250979650505050505050565b600054610100900460ff16158080156133775750600054600160ff909116105b806133915750303b158015613391575060005460ff166001145b6133ad5760405162461bcd60e51b81526004016107c390614501565b6000805460ff1916600117905580156133d0576000805461ff0019166101001790555b6133d8613e86565b6133e0613ead565b8015610860576000805461ff0019169055604051600181527f7f26b83ff96e1f2b6a682f133852f6798a09c465da95921460cefb38474024989060200160405180910390a150565b600054610100900460ff16158080156134485750600054600160ff909116105b806134625750303b158015613462575060005460ff166001145b61347e5760405162461bcd60e51b81526004016107c390614501565b6000805460ff1916600117905580156134a1576000805461ff0019166101001790555b60ca6134ad89826149d0565b5060408051610140810182526127108152600060208201529081016134d189612dc5565b61ffff1681526020016134e388612dc5565b61ffff168152600060208201819052604082015260600161350387612dc5565b61ffff168152602001613517600287612ddf565b63ffffffff16815260200161352d600086612ddf565b63ffffffff9081168252612238602092830152825160cb80549385015160408601516060870151608088015160a089015160c08a015160e08b01516101008c0151610120909c015161ffff998a1663ffffffff19909c169b909b1762010000978a16979097029690961767ffffffff000000001916600160201b9589169590950267ffff000000000000191694909417600160301b93881693909302929092176bffffffff00000000000000001916600160401b9187169190910261ffff60501b191617600160501b918616919091021765ffffffffffff60601b1916600160601b9185169190910263ffffffff60701b191617600160701b918516919091021765ffffffffffff60901b1916600160901b959093169490940261ffff60b01b191691909117600160b01b9190921602179055600060cc5560cd80546001600160a01b0319166001600160a01b038416179055610e6c6136ed565b600063ffffffff821115612ed55760405162461bcd60e51b815260206004820152602660248201527f53616665436173743a2076616c756520646f65736e27742066697420696e203360448201526532206269747360d01b60648201526084016107c3565b60cb546127106201000090910461ffff1611156137585760405162461bcd60e51b815260206004820152602360248201527f56616c69646174696f6e3a206a72436f6c6c526174696f206d757374206265206044820152623c3d3160e81b60648201526084016107c3565b60cb54612710600160201b90910461ffff1611801590613784575060cb54600160201b900461ffff1615155b6137da5760405162461bcd60e51b815260206004820152602160248201527f56616c69646174696f6e3a20636f6c6c526174696f206d757374206265203c3d6044820152603160f81b60648201526084016107c3565b60cb5461ffff6201000082048116600160201b90920416101561384b5760405162461bcd60e51b8152602060048201526024808201527f56616c69646174696f6e3a20636f6c6c526174696f203e3d206a72436f6c6c526044820152636174696f60e01b60648201526084016107c3565b60cb54619c4061ffff9091161180159061386f575060cb5461138861ffff90911610155b6138bb5760405162461bcd60e51b815260206004820181905260248201527f56616c69646174696f6e3a206d6f63206d757374206265205b302e352c20345d60448201526064016107c3565b60cb54612710600160301b90910461ffff1611156139275760405162461bcd60e51b8152602060048201526024808201527f56616c69646174696f6e3a20656e7375726f5070466565206d757374206265206044820152633c3d203160e01b60648201526084016107c3565b60cb54612710600160401b90910461ffff1611156139955760405162461bcd60e51b815260206004820152602560248201527f56616c69646174696f6e3a20656e7375726f436f63466565206d757374206265604482015264203c3d203160d81b60648201526084016107c3565b60cb54612710600160601b90910461ffff161115613a035760405162461bcd60e51b815260206004820152602560248201527f56616c69646174696f6e3a207372526f63206d757374206265203c3d20312028604482015264313030252960d81b60648201526084016107c3565b60cb54612710600160501b90910461ffff161115613a715760405162461bcd60e51b815260206004820152602560248201527f56616c69646174696f6e3a206a72526f63206d757374206265203c3d20312028604482015264313030252960d81b60648201526084016107c3565b60cc54613a7c611149565b1015613afb5760405162461bcd60e51b815260206004820152604260248201527f56616c69646174696f6e3a206578706f737572654c696d69742063616e27742060448201527f6265206c657373207468616e2061637475616c206163746976654578706f7375606482015261726560f01b608482015260a4016107c3565b60cb54600160901b900463ffffffff1615801590613b27575060cb54600160701b900463ffffffff1615155b613b7d5760405162461bcd60e51b815260206004820152602160248201527f4578706f7375726520616e64204d61785061796f7574206d757374206265203e6044820152600360fc1b60648201526084016107c3565b60cd546001600160a01b0316612ae95760405162461bcd60e51b815260206004820152602860248201527f56616c69646174696f6e3a2057616c6c65742063616e2774206265207a65726f604482015267206164647265737360c01b60648201526084016107c3565b6000600182602d811115613bfc57613bfc614687565b613c069190614862565b60c954600160ff929092169190911b91506201518090613c2d9064ffffffffff16426146e4565b64ffffffffff161115613c6f5760c9805466ffffffffffffff8316600160281b026bffffffffffffffffffffffff1990911664ffffffffff4216171790555050565b60c954600160281b9004811666ffffffffffffff16600003613cd45760c9805464ffffffffff421664ffffffffff1966ffffffffffffff808616600160281b808604929092161702166bffffffffffffffffffffffff19909216919091171790555050565b60405162461bcd60e51b815260206004820152604760248201527f596f7520616c726561647920747765616b6564207468697320706172616d657460448201527f657220726563656e746c792e2057616974206265666f726520747765616b696e606482015266339030b3b0b4b760c91b608482015260a4016107c3565b613d5b81612f3a565b6040516001600160a01b038216907fbc7cd75a20ee27fd9adebab32041f755214dbc6bffa90cc0225b39da2e5c2d3b90600090a250565b60606001600160a01b0383163b613dfa5760405162461bcd60e51b815260206004820152602660248201527f416464726573733a2064656c65676174652063616c6c20746f206e6f6e2d636f6044820152651b9d1c9858dd60d21b60648201526084016107c3565b600080846001600160a01b031684604051613e159190614a90565b600060405180830381855af49150503d8060008114613e50576040519150601f19603f3d011682016040523d82523d6000602084013e613e55565b606091505b5091509150613e7d8282604051806060016040528060278152602001614b3860279139613edc565b95945050505050565b600054610100900460ff16612ae95760405162461bcd60e51b81526004016107c390614aac565b600054610100900460ff16613ed45760405162461bcd60e51b81526004016107c390614aac565b612ae9613f15565b60608315613eeb5750816112fa565b825115613efb5782518084602001fd5b8160405162461bcd60e51b81526004016107c39190613ff2565b600054610100900460ff16613f3c5760405162461bcd60e51b81526004016107c390614aac565b6097805460ff19169055565b604051806101c00160405280600081526020016000815260200160008152602001600081526020016000815260200160008152602001600081526020016000815260200160008152602001600081526020016000815260200160006001600160a01b03168152602001600064ffffffffff168152602001600064ffffffffff1681525090565b60005b83811015613fe9578181015183820152602001613fd1565b50506000910152565b6020815260008251806020840152614011816040850160208701613fce565b601f01601f19169190910160400192915050565b6001600160a01b038116811461086057600080fd5b60006020828403121561404c57600080fd5b81356112fa81614025565b803564ffffffffff8116811461406c57600080fd5b919050565b60008060008060008060c0878903121561408a57600080fd5b8635955060208701359450604087013593506140a860608801614057565b925060808701356140b881614025565b915060a08701356bffffffffffffffffffffffff811681146140d957600080fd5b809150509295509295509295565b634e487b7160e01b600052604160045260246000fd5b600067ffffffffffffffff80841115614118576141186140e7565b604051601f8501601f19908116603f01168101908282118183101715614140576141406140e7565b8160405280935085815286868601111561415957600080fd5b858560208301376000602087830101525050509392505050565b6000806040838503121561418657600080fd5b823561419181614025565b9150602083013567ffffffffffffffff8111156141ad57600080fd5b8301601f810185136141be57600080fd5b6141cd858235602084016140fd565b9150509250929050565b6000602082840312156141e957600080fd5b5035919050565b600080600080600080600060e0888a03121561420b57600080fd5b873567ffffffffffffffff81111561422257600080fd5b8801601f81018a1361423357600080fd5b6142428a8235602084016140fd565b9750506020880135955060408801359450606088013593506080880135925060a0880135915060c088013561427681614025565b8091505092959891949750929550565b60006101c0828403121561429957600080fd5b50919050565b6000806101e083850312156142b357600080fd5b6142bd8484614286565b946101c0939093013593505050565b6000806000606084860312156142e157600080fd5b83359250602084013591506142f860408501614057565b90509250925092565b6000806040838503121561431457600080fd5b8235600a811061432357600080fd5b946020939093013593505050565b801515811461086057600080fd5b6000806101e0838503121561435357600080fd5b61435d8484614286565b91506101c083013561436e81614331565b809150509250929050565b600181811c9082168061438d57607f821691505b60208210810361429957634e487b7160e01b600052602260045260246000fd5b6020808252602c908201527f46756e6374696f6e206d7573742062652063616c6c6564207468726f7567682060408201526b19195b1959d85d1958d85b1b60a21b606082015260800190565b6020808252602c908201527f46756e6374696f6e206d7573742062652063616c6c6564207468726f7567682060408201526b6163746976652070726f787960a01b606082015260800190565b60006020828403121561445757600080fd5b81516112fa81614025565b6001600160a01b039586168152602081019490945260408401929092529092166060820152901515608082015260a00190565b6001600160a01b039485168152602081019390935292166040820152901515606082015260800190565b6000602082840312156144d157600080fd5b5051919050565b634e487b7160e01b600052601160045260246000fd5b81810381811115612bbc57612bbc6144d8565b6020808252602e908201527f496e697469616c697a61626c653a20636f6e747261637420697320616c72656160408201526d191e481a5b9a5d1a585b1a5e995960921b606082015260800190565b803561406c81614025565b803582526020810135602083015260408101356040830152606081013560608301526080810135608083015260a081013560a083015260c081013560c083015260e081013560e08301526101008082013581840152506101208082013581840152506101408082013581840152506101606145d681830161454f565b6001600160a01b0316908301526101806145f1828201614057565b64ffffffffff16908301526101a061460a828201614057565b64ffffffffff811684830152612ffb565b6101e0810161462a828561455a565b826101c08301529392505050565b80820180821115612bbc57612bbc6144d8565b6000816000190483118215151615614665576146656144d8565b500290565b60006020828403121561467c57600080fd5b81516112fa81614331565b634e487b7160e01b600052602160045260246000fd5b6020808252600e908201526d151dd9585ac8195e18d95959195960921b604082015260600190565b6101e081016146d4828561455a565b8215156101c08301529392505050565b64ffffffffff828116828216039080821115614702576147026144d8565b5092915050565b634e487b7160e01b600052601260045260246000fd5b600064ffffffffff8084168061473757614737614709565b92169190910492915050565b600061022082019050855182526020860151602083015260408601516040830152606086015160608301526080860151608083015260a086015160a083015260c086015160c083015260e086015160e0830152610100808701518184015250610120808701518184015250610140808701518184015250610160808701516147d5828501826001600160a01b03169052565b50506101808681015164ffffffffff81168483015250506101a08681015164ffffffffff81168483015250506001600160a01b0385166101c08301526001600160a01b0384166101e08301526bffffffffffffffffffffffff831661020083015295945050505050565b60006020828403121561485157600080fd5b815160ff811681146112fa57600080fd5b60ff8281168282160390811115612bbc57612bbc6144d8565b600181815b808511156148b657816000190482111561489c5761489c6144d8565b808516156148a957918102915b93841c9390800290614880565b509250929050565b6000826148cd57506001612bbc565b816148da57506000612bbc565b81600181146148f057600281146148fa57614916565b6001915050612bbc565b60ff84111561490b5761490b6144d8565b50506001821b612bbc565b5060208310610133831016604e8410600b8410161715614939575081810a612bbc565b614943838361487b565b8060001904821115614957576149576144d8565b029392505050565b6000612bb960ff8416836148be565b60008261497d5761497d614709565b500490565b601f82111561220857600081815260208120601f850160051c810160208610156149a95750805b601f850160051c820191505b818110156149c8578281556001016149b5565b505050505050565b815167ffffffffffffffff8111156149ea576149ea6140e7565b6149fe816149f88454614379565b84614982565b602080601f831160018114614a335760008415614a1b5750858301515b600019600386901b1c1916600185901b1785556149c8565b600085815260208120601f198616915b82811015614a6257888601518255948401946001909101908401614a43565b5085821015614a805787850151600019600388901b60f8161c191681555b5050505050600190811b01905550565b60008251614aa2818460208701613fce565b9190910192915050565b6020808252602b908201527f496e697469616c697a61626c653a20636f6e7472616374206973206e6f74206960408201526a6e697469616c697a696e6760a81b60608201526080019056fe360894a13ba1a3210667c828492db98dca3e2076cc3735a920a3ca505d382bbcbf372ca3ebecfe59ac256f17697941bbe63302aced610e8b0e3646f743c7beb2416464726573733a206c6f772d6c6576656c2064656c65676174652063616c6c206661696c656455435dd261a4b9b3364963f7738a7a662ad9c84396d64be3365284bb7f0a5041a2646970667358221220a550bf06ebae53a7a82144122f61fcfd467d69221e1316ef2947694aba6d0f2a64736f6c63430008100033",
  "linkReferences": {},
  "deployedLinkReferences": {}
}